{
	"fundMe/FundMe.sol": {
		"FundMe": {
			"abi": [
				{
					"inputs": [
						{
							"internalType": "uint256",
							"name": "_lockTime",
							"type": "uint256"
						}
					],
					"stateMutability": "nonpayable",
					"type": "constructor"
				},
				{
					"inputs": [],
					"name": "fund",
					"outputs": [],
					"stateMutability": "payable",
					"type": "function"
				},
				{
					"inputs": [
						{
							"internalType": "address",
							"name": "",
							"type": "address"
						}
					],
					"name": "fundersToAmount",
					"outputs": [
						{
							"internalType": "uint256",
							"name": "",
							"type": "uint256"
						}
					],
					"stateMutability": "view",
					"type": "function"
				},
				{
					"inputs": [],
					"name": "getChainlinkDataFeedLatestAnswer",
					"outputs": [
						{
							"internalType": "int256",
							"name": "",
							"type": "int256"
						}
					],
					"stateMutability": "view",
					"type": "function"
				},
				{
					"inputs": [],
					"name": "getFund",
					"outputs": [],
					"stateMutability": "nonpayable",
					"type": "function"
				},
				{
					"inputs": [],
					"name": "getFundSuccess",
					"outputs": [
						{
							"internalType": "bool",
							"name": "",
							"type": "bool"
						}
					],
					"stateMutability": "view",
					"type": "function"
				},
				{
					"inputs": [],
					"name": "refund",
					"outputs": [],
					"stateMutability": "nonpayable",
					"type": "function"
				},
				{
					"inputs": [
						{
							"internalType": "address",
							"name": "_erc20Addr",
							"type": "address"
						}
					],
					"name": "setERC20Addr",
					"outputs": [],
					"stateMutability": "nonpayable",
					"type": "function"
				},
				{
					"inputs": [
						{
							"internalType": "address",
							"name": "funder",
							"type": "address"
						},
						{
							"internalType": "uint256",
							"name": "amountToUpdate",
							"type": "uint256"
						}
					],
					"name": "setFunderToAmount",
					"outputs": [],
					"stateMutability": "nonpayable",
					"type": "function"
				},
				{
					"inputs": [
						{
							"internalType": "address",
							"name": "_newOwner",
							"type": "address"
						}
					],
					"name": "transferOwnerShip",
					"outputs": [],
					"stateMutability": "nonpayable",
					"type": "function"
				}
			],
			"devdoc": {
				"kind": "dev",
				"methods": {},
				"version": 1
			},
			"evm": {
				"assembly": "    /* \"fundMe/FundMe.sol\":555:5422  contract FundMe {... */\n  mstore(0x40, 0x80)\n    /* \"fundMe/FundMe.sol\":965:970  false */\n  0x00\n    /* \"fundMe/FundMe.sol\":936:970  bool public getFundSuccess = false */\n  0x04\n  exp(0x0100, 0x14)\n  dup2\n  sload\n  dup2\n  0xff\n  mul\n  not\n  and\n  swap1\n  dup4\n  iszero\n  iszero\n  mul\n  or\n  swap1\n  sstore\n  pop\n    /* \"fundMe/FundMe.sol\":1164:1770  constructor(uint256 _lockTime) { ... */\n  callvalue\n  dup1\n  iszero\n  tag_1\n  jumpi\n  0x00\n  dup1\n  revert\ntag_1:\n  pop\n  mload(0x40)\n  sub(codesize, bytecodeSize)\n  dup1\n  bytecodeSize\n  dup4\n  codecopy\n  dup2\n  dup2\n  add\n  0x40\n  mstore\n  dup2\n  add\n  swap1\n  tag_2\n  swap2\n  swap1\n  tag_3\n  jump\t// in\ntag_2:\n    /* \"fundMe/FundMe.sol\":1523:1565  0x694AA1769357215DE4FAC081bf1f309aDC325306 */\n  0x694aa1769357215de4fac081bf1f309adc325306\n    /* \"fundMe/FundMe.sol\":1490:1498  dataFeed */\n  0x05\n  0x00\n    /* \"fundMe/FundMe.sol\":1490:1566  dataFeed = AggregatorV3Interface(0x694AA1769357215DE4FAC081bf1f309aDC325306) */\n  0x0100\n  exp\n  dup2\n  sload\n  dup2\n  0xffffffffffffffffffffffffffffffffffffffff\n  mul\n  not\n  and\n  swap1\n  dup4\n  0xffffffffffffffffffffffffffffffffffffffff\n  and\n  mul\n  or\n  swap1\n  sstore\n  pop\n    /* \"fundMe/FundMe.sol\":1673:1683  msg.sender */\n  caller\n    /* \"fundMe/FundMe.sol\":1665:1670  owner */\n  0x01\n  0x00\n    /* \"fundMe/FundMe.sol\":1665:1683  owner = msg.sender */\n  0x0100\n  exp\n  dup2\n  sload\n  dup2\n  0xffffffffffffffffffffffffffffffffffffffff\n  mul\n  not\n  and\n  swap1\n  dup4\n  0xffffffffffffffffffffffffffffffffffffffff\n  and\n  mul\n  or\n  swap1\n  sstore\n  pop\n    /* \"fundMe/FundMe.sol\":1716:1731  block.timestamp */\n  timestamp\n    /* \"fundMe/FundMe.sol\":1694:1713  deploymentTimestamp */\n  0x02\n    /* \"fundMe/FundMe.sol\":1694:1731  deploymentTimestamp = block.timestamp */\n  dup2\n  swap1\n  sstore\n  pop\n    /* \"fundMe/FundMe.sol\":1753:1762  _lockTime */\n  dup1\n    /* \"fundMe/FundMe.sol\":1742:1750  lockTime */\n  0x03\n    /* \"fundMe/FundMe.sol\":1742:1762  lockTime = _lockTime */\n  dup2\n  swap1\n  sstore\n  pop\n    /* \"fundMe/FundMe.sol\":1164:1770  constructor(uint256 _lockTime) { ... */\n  pop\n    /* \"fundMe/FundMe.sol\":555:5422  contract FundMe {... */\n  jump(tag_6)\n    /* \"#utility.yul\":88:205   */\ntag_8:\n    /* \"#utility.yul\":197:198   */\n  0x00\n    /* \"#utility.yul\":194:195   */\n  dup1\n    /* \"#utility.yul\":187:199   */\n  revert\n    /* \"#utility.yul\":334:411   */\ntag_10:\n    /* \"#utility.yul\":371:378   */\n  0x00\n    /* \"#utility.yul\":400:405   */\n  dup2\n    /* \"#utility.yul\":389:405   */\n  swap1\n  pop\n    /* \"#utility.yul\":334:411   */\n  swap2\n  swap1\n  pop\n  jump\t// out\n    /* \"#utility.yul\":417:539   */\ntag_11:\n    /* \"#utility.yul\":490:514   */\n  tag_19\n    /* \"#utility.yul\":508:513   */\n  dup2\n    /* \"#utility.yul\":490:514   */\n  tag_10\n  jump\t// in\ntag_19:\n    /* \"#utility.yul\":483:488   */\n  dup2\n    /* \"#utility.yul\":480:515   */\n  eq\n    /* \"#utility.yul\":470:533   */\n  tag_20\n  jumpi\n    /* \"#utility.yul\":529:530   */\n  0x00\n    /* \"#utility.yul\":526:527   */\n  dup1\n    /* \"#utility.yul\":519:531   */\n  revert\n    /* \"#utility.yul\":470:533   */\ntag_20:\n    /* \"#utility.yul\":417:539   */\n  pop\n  jump\t// out\n    /* \"#utility.yul\":545:688   */\ntag_12:\n    /* \"#utility.yul\":602:607   */\n  0x00\n    /* \"#utility.yul\":633:639   */\n  dup2\n    /* \"#utility.yul\":627:640   */\n  mload\n    /* \"#utility.yul\":618:640   */\n  swap1\n  pop\n    /* \"#utility.yul\":649:682   */\n  tag_22\n    /* \"#utility.yul\":676:681   */\n  dup2\n    /* \"#utility.yul\":649:682   */\n  tag_11\n  jump\t// in\ntag_22:\n    /* \"#utility.yul\":545:688   */\n  swap3\n  swap2\n  pop\n  pop\n  jump\t// out\n    /* \"#utility.yul\":694:1045   */\ntag_3:\n    /* \"#utility.yul\":764:770   */\n  0x00\n    /* \"#utility.yul\":813:815   */\n  0x20\n    /* \"#utility.yul\":801:810   */\n  dup3\n    /* \"#utility.yul\":792:799   */\n  dup5\n    /* \"#utility.yul\":788:811   */\n  sub\n    /* \"#utility.yul\":784:816   */\n  slt\n    /* \"#utility.yul\":781:900   */\n  iszero\n  tag_24\n  jumpi\n    /* \"#utility.yul\":819:898   */\n  tag_25\n  tag_8\n  jump\t// in\ntag_25:\n    /* \"#utility.yul\":781:900   */\ntag_24:\n    /* \"#utility.yul\":939:940   */\n  0x00\n    /* \"#utility.yul\":964:1028   */\n  tag_26\n    /* \"#utility.yul\":1020:1027   */\n  dup5\n    /* \"#utility.yul\":1011:1017   */\n  dup3\n    /* \"#utility.yul\":1000:1009   */\n  dup6\n    /* \"#utility.yul\":996:1018   */\n  add\n    /* \"#utility.yul\":964:1028   */\n  tag_12\n  jump\t// in\ntag_26:\n    /* \"#utility.yul\":954:1028   */\n  swap2\n  pop\n    /* \"#utility.yul\":910:1038   */\n  pop\n    /* \"#utility.yul\":694:1045   */\n  swap3\n  swap2\n  pop\n  pop\n  jump\t// out\n    /* \"fundMe/FundMe.sol\":555:5422  contract FundMe {... */\ntag_6:\n  dataSize(sub_0)\n  dup1\n  dataOffset(sub_0)\n  0x00\n  codecopy\n  0x00\n  return\nstop\n\nsub_0: assembly {\n        /* \"fundMe/FundMe.sol\":555:5422  contract FundMe {... */\n      mstore(0x40, 0x80)\n      jumpi(tag_1, lt(calldatasize, 0x04))\n      shr(0xe0, calldataload(0x00))\n      dup1\n      0x9f883a05\n      gt\n      tag_11\n      jumpi\n      dup1\n      0x9f883a05\n      eq\n      tag_6\n      jumpi\n      dup1\n      0xb60d4288\n      eq\n      tag_7\n      jumpi\n      dup1\n      0xbea4dfb5\n      eq\n      tag_8\n      jumpi\n      dup1\n      0xd39cf006\n      eq\n      tag_9\n      jumpi\n      dup1\n      0xda4658e0\n      eq\n      tag_10\n      jumpi\n      jump(tag_1)\n    tag_11:\n      dup1\n      0x590e1ae3\n      eq\n      tag_2\n      jumpi\n      dup1\n      0x648c2910\n      eq\n      tag_3\n      jumpi\n      dup1\n      0x8863dd1a\n      eq\n      tag_4\n      jumpi\n      dup1\n      0x8edd6eb6\n      eq\n      tag_5\n      jumpi\n    tag_1:\n      0x00\n      dup1\n      revert\n        /* \"fundMe/FundMe.sol\":3948:4433  function refund() external WindowClosed{... */\n    tag_2:\n      callvalue\n      dup1\n      iszero\n      tag_12\n      jumpi\n      0x00\n      dup1\n      revert\n    tag_12:\n      pop\n      tag_13\n      tag_14\n      jump\t// in\n    tag_13:\n      stop\n        /* \"fundMe/FundMe.sol\":4944:5044  function setERC20Addr(address _erc20Addr) public onlyOwner {... */\n    tag_3:\n      callvalue\n      dup1\n      iszero\n      tag_15\n      jumpi\n      0x00\n      dup1\n      revert\n    tag_15:\n      pop\n      tag_16\n      0x04\n      dup1\n      calldatasize\n      sub\n      dup2\n      add\n      swap1\n      tag_17\n      swap2\n      swap1\n      tag_18\n      jump\t// in\n    tag_17:\n      tag_19\n      jump\t// in\n    tag_16:\n      stop\n        /* \"fundMe/FundMe.sol\":3827:3926  function transferOwnerShip(address _newOwner) public onlyOwner {... */\n    tag_4:\n      callvalue\n      dup1\n      iszero\n      tag_20\n      jumpi\n      0x00\n      dup1\n      revert\n    tag_20:\n      pop\n      tag_21\n      0x04\n      dup1\n      calldatasize\n      sub\n      dup2\n      add\n      swap1\n      tag_22\n      swap2\n      swap1\n      tag_18\n      jump\t// in\n    tag_22:\n      tag_23\n      jump\t// in\n    tag_21:\n      stop\n        /* \"fundMe/FundMe.sol\":2948:3800  function getFund() external WindowClosed onlyOwner{... */\n    tag_5:\n      callvalue\n      dup1\n      iszero\n      tag_24\n      jumpi\n      0x00\n      dup1\n      revert\n    tag_24:\n      pop\n      tag_25\n      tag_26\n      jump\t// in\n    tag_25:\n      stop\n        /* \"fundMe/FundMe.sol\":580:630  mapping(address => uint256) public fundersToAmount */\n    tag_6:\n      callvalue\n      dup1\n      iszero\n      tag_27\n      jumpi\n      0x00\n      dup1\n      revert\n    tag_27:\n      pop\n      tag_28\n      0x04\n      dup1\n      calldatasize\n      sub\n      dup2\n      add\n      swap1\n      tag_29\n      swap2\n      swap1\n      tag_18\n      jump\t// in\n    tag_29:\n      tag_30\n      jump\t// in\n    tag_28:\n      mload(0x40)\n      tag_31\n      swap2\n      swap1\n      tag_32\n      jump\t// in\n    tag_31:\n      mload(0x40)\n      dup1\n      swap2\n      sub\n      swap1\n      return\n        /* \"fundMe/FundMe.sol\":1778:2193  function fund() external payable { ... */\n    tag_7:\n      tag_33\n      tag_34\n      jump\t// in\n    tag_33:\n      stop\n        /* \"fundMe/FundMe.sol\":2227:2575  function getChainlinkDataFeedLatestAnswer() public view returns (int) {... */\n    tag_8:\n      callvalue\n      dup1\n      iszero\n      tag_35\n      jumpi\n      0x00\n      dup1\n      revert\n    tag_35:\n      pop\n      tag_36\n      tag_37\n      jump\t// in\n    tag_36:\n      mload(0x40)\n      tag_38\n      swap2\n      swap1\n      tag_39\n      jump\t// in\n    tag_38:\n      mload(0x40)\n      dup1\n      swap2\n      sub\n      swap1\n      return\n        /* \"fundMe/FundMe.sol\":4615:4846  function setFunderToAmount(address funder, uint256 amountToUpdate) external  {... */\n    tag_9:\n      callvalue\n      dup1\n      iszero\n      tag_40\n      jumpi\n      0x00\n      dup1\n      revert\n    tag_40:\n      pop\n      tag_41\n      0x04\n      dup1\n      calldatasize\n      sub\n      dup2\n      add\n      swap1\n      tag_42\n      swap2\n      swap1\n      tag_43\n      jump\t// in\n    tag_42:\n      tag_44\n      jump\t// in\n    tag_41:\n      stop\n        /* \"fundMe/FundMe.sol\":936:970  bool public getFundSuccess = false */\n    tag_10:\n      callvalue\n      dup1\n      iszero\n      tag_45\n      jumpi\n      0x00\n      dup1\n      revert\n    tag_45:\n      pop\n      tag_46\n      tag_47\n      jump\t// in\n    tag_46:\n      mload(0x40)\n      tag_48\n      swap2\n      swap1\n      tag_49\n      jump\t// in\n    tag_48:\n      mload(0x40)\n      dup1\n      swap2\n      sub\n      swap1\n      return\n        /* \"fundMe/FundMe.sol\":3948:4433  function refund() external WindowClosed{... */\n    tag_14:\n        /* \"fundMe/FundMe.sol\":5177:5185  lockTime */\n      sload(0x03)\n        /* \"fundMe/FundMe.sol\":5155:5174  deploymentTimestamp */\n      sload(0x02)\n        /* \"fundMe/FundMe.sol\":5155:5185  deploymentTimestamp + lockTime */\n      tag_51\n      swap2\n      swap1\n      tag_52\n      jump\t// in\n    tag_51:\n        /* \"fundMe/FundMe.sol\":5136:5151  block.timestamp */\n      timestamp\n        /* \"fundMe/FundMe.sol\":5136:5185  block.timestamp >= deploymentTimestamp + lockTime */\n      lt\n      iszero\n        /* \"fundMe/FundMe.sol\":5128:5210  require(block.timestamp >= deploymentTimestamp + lockTime, \"Window is not closed\") */\n      tag_53\n      jumpi\n      mload(0x40)\n      0x08c379a000000000000000000000000000000000000000000000000000000000\n      dup2\n      mstore\n      0x04\n      add\n      tag_54\n      swap1\n      tag_55\n      jump\t// in\n    tag_54:\n      mload(0x40)\n      dup1\n      swap2\n      sub\n      swap1\n      revert\n    tag_53:\n        /* \"fundMe/FundMe.sol\":755:758  200 */\n      0xc8\n        /* \"fundMe/FundMe.sol\":4006:4044  convertEthToUsd(address(this).balance) */\n      tag_57\n        /* \"fundMe/FundMe.sol\":4022:4043  address(this).balance */\n      selfbalance\n        /* \"fundMe/FundMe.sol\":4006:4021  convertEthToUsd */\n      tag_58\n        /* \"fundMe/FundMe.sol\":4006:4044  convertEthToUsd(address(this).balance) */\n      jump\t// in\n    tag_57:\n        /* \"fundMe/FundMe.sol\":4006:4053  convertEthToUsd(address(this).balance) < TARGET */\n      lt\n        /* \"fundMe/FundMe.sol\":3998:4076  require(convertEthToUsd(address(this).balance) < TARGET, \"Target is reached!\") */\n      tag_59\n      jumpi\n      mload(0x40)\n      0x08c379a000000000000000000000000000000000000000000000000000000000\n      dup2\n      mstore\n      0x04\n      add\n      tag_60\n      swap1\n      tag_61\n      jump\t// in\n    tag_60:\n      mload(0x40)\n      dup1\n      swap2\n      sub\n      swap1\n      revert\n    tag_59:\n        /* \"fundMe/FundMe.sol\":4126:4127  0 */\n      0x00\n        /* \"fundMe/FundMe.sol\":4095:4110  fundersToAmount */\n      dup1\n        /* \"fundMe/FundMe.sol\":4095:4122  fundersToAmount[msg.sender] */\n      0x00\n        /* \"fundMe/FundMe.sol\":4111:4121  msg.sender */\n      caller\n        /* \"fundMe/FundMe.sol\":4095:4122  fundersToAmount[msg.sender] */\n      0xffffffffffffffffffffffffffffffffffffffff\n      and\n      0xffffffffffffffffffffffffffffffffffffffff\n      and\n      dup2\n      mstore\n      0x20\n      add\n      swap1\n      dup2\n      mstore\n      0x20\n      add\n      0x00\n      keccak256\n      sload\n        /* \"fundMe/FundMe.sol\":4095:4127  fundersToAmount[msg.sender] != 0 */\n      sub\n        /* \"fundMe/FundMe.sol\":4087:4156  require(fundersToAmount[msg.sender] != 0, \"There is no fund for you\") */\n      tag_62\n      jumpi\n      mload(0x40)\n      0x08c379a000000000000000000000000000000000000000000000000000000000\n      dup2\n      mstore\n      0x04\n      add\n      tag_63\n      swap1\n      tag_64\n      jump\t// in\n    tag_63:\n      mload(0x40)\n      dup1\n      swap2\n      sub\n      swap1\n      revert\n    tag_62:\n        /* \"fundMe/FundMe.sol\":4236:4247  bool result */\n      0x00\n        /* \"fundMe/FundMe.sol\":4279:4289  msg.sender */\n      caller\n        /* \"fundMe/FundMe.sol\":4271:4295  payable(msg.sender).call */\n      0xffffffffffffffffffffffffffffffffffffffff\n      and\n        /* \"fundMe/FundMe.sol\":4303:4318  fundersToAmount */\n      0x00\n        /* \"fundMe/FundMe.sol\":4303:4330  fundersToAmount[msg.sender] */\n      dup1\n        /* \"fundMe/FundMe.sol\":4319:4329  msg.sender */\n      caller\n        /* \"fundMe/FundMe.sol\":4303:4330  fundersToAmount[msg.sender] */\n      0xffffffffffffffffffffffffffffffffffffffff\n      and\n      0xffffffffffffffffffffffffffffffffffffffff\n      and\n      dup2\n      mstore\n      0x20\n      add\n      swap1\n      dup2\n      mstore\n      0x20\n      add\n      0x00\n      keccak256\n      sload\n        /* \"fundMe/FundMe.sol\":4271:4335  payable(msg.sender).call{value: fundersToAmount[msg.sender]}(\"\") */\n      mload(0x40)\n      tag_65\n      swap1\n      tag_66\n      jump\t// in\n    tag_65:\n      0x00\n      mload(0x40)\n      dup1\n      dup4\n      sub\n      dup2\n      dup6\n      dup8\n      gas\n      call\n      swap3\n      pop\n      pop\n      pop\n      returndatasize\n      dup1\n      0x00\n      dup2\n      eq\n      tag_69\n      jumpi\n      mload(0x40)\n      swap2\n      pop\n      and(add(returndatasize, 0x3f), not(0x1f))\n      dup3\n      add\n      0x40\n      mstore\n      returndatasize\n      dup3\n      mstore\n      returndatasize\n      0x00\n      0x20\n      dup5\n      add\n      returndatacopy\n      jump(tag_68)\n    tag_69:\n      0x60\n      swap2\n      pop\n    tag_68:\n      pop\n        /* \"fundMe/FundMe.sol\":4258:4335  (result, ) = payable(msg.sender).call{value: fundersToAmount[msg.sender]}(\"\") */\n      pop\n      dup1\n      swap2\n      pop\n      pop\n        /* \"fundMe/FundMe.sol\":4354:4360  result */\n      dup1\n        /* \"fundMe/FundMe.sol\":4346:4383  require(result, \"Transfer is failed\") */\n      tag_70\n      jumpi\n      mload(0x40)\n      0x08c379a000000000000000000000000000000000000000000000000000000000\n      dup2\n      mstore\n      0x04\n      add\n      tag_71\n      swap1\n      tag_72\n      jump\t// in\n    tag_71:\n      mload(0x40)\n      dup1\n      swap2\n      sub\n      swap1\n      revert\n    tag_70:\n        /* \"fundMe/FundMe.sol\":4424:4425  0 */\n      0x00\n        /* \"fundMe/FundMe.sol\":4394:4409  fundersToAmount */\n      dup1\n        /* \"fundMe/FundMe.sol\":4394:4421  fundersToAmount[msg.sender] */\n      0x00\n        /* \"fundMe/FundMe.sol\":4410:4420  msg.sender */\n      caller\n        /* \"fundMe/FundMe.sol\":4394:4421  fundersToAmount[msg.sender] */\n      0xffffffffffffffffffffffffffffffffffffffff\n      and\n      0xffffffffffffffffffffffffffffffffffffffff\n      and\n      dup2\n      mstore\n      0x20\n      add\n      swap1\n      dup2\n      mstore\n      0x20\n      add\n      0x00\n      keccak256\n        /* \"fundMe/FundMe.sol\":4394:4425  fundersToAmount[msg.sender] = 0 */\n      dup2\n      swap1\n      sstore\n      pop\n        /* \"fundMe/FundMe.sol\":3987:4433  {... */\n      pop\n        /* \"fundMe/FundMe.sol\":3948:4433  function refund() external WindowClosed{... */\n      jump\t// out\n        /* \"fundMe/FundMe.sol\":4944:5044  function setERC20Addr(address _erc20Addr) public onlyOwner {... */\n    tag_19:\n        /* \"fundMe/FundMe.sol\":5350:5355  owner */\n      0x01\n      0x00\n      swap1\n      sload\n      swap1\n      0x0100\n      exp\n      swap1\n      div\n      0xffffffffffffffffffffffffffffffffffffffff\n      and\n        /* \"fundMe/FundMe.sol\":5336:5355  msg.sender == owner */\n      0xffffffffffffffffffffffffffffffffffffffff\n      and\n        /* \"fundMe/FundMe.sol\":5336:5346  msg.sender */\n      caller\n        /* \"fundMe/FundMe.sol\":5336:5355  msg.sender == owner */\n      0xffffffffffffffffffffffffffffffffffffffff\n      and\n      eq\n        /* \"fundMe/FundMe.sol\":5328:5399  require(msg.sender == owner, \"This function can only be call by owner\") */\n      tag_74\n      jumpi\n      mload(0x40)\n      0x08c379a000000000000000000000000000000000000000000000000000000000\n      dup2\n      mstore\n      0x04\n      add\n      tag_75\n      swap1\n      tag_76\n      jump\t// in\n    tag_75:\n      mload(0x40)\n      dup1\n      swap2\n      sub\n      swap1\n      revert\n    tag_74:\n        /* \"fundMe/FundMe.sol\":5026:5036  _erc20Addr */\n      dup1\n        /* \"fundMe/FundMe.sol\":5014:5023  erc20Addr */\n      0x04\n      0x00\n        /* \"fundMe/FundMe.sol\":5014:5036  erc20Addr = _erc20Addr */\n      0x0100\n      exp\n      dup2\n      sload\n      dup2\n      0xffffffffffffffffffffffffffffffffffffffff\n      mul\n      not\n      and\n      swap1\n      dup4\n      0xffffffffffffffffffffffffffffffffffffffff\n      and\n      mul\n      or\n      swap1\n      sstore\n      pop\n        /* \"fundMe/FundMe.sol\":4944:5044  function setERC20Addr(address _erc20Addr) public onlyOwner {... */\n      pop\n      jump\t// out\n        /* \"fundMe/FundMe.sol\":3827:3926  function transferOwnerShip(address _newOwner) public onlyOwner {... */\n    tag_23:\n        /* \"fundMe/FundMe.sol\":5350:5355  owner */\n      0x01\n      0x00\n      swap1\n      sload\n      swap1\n      0x0100\n      exp\n      swap1\n      div\n      0xffffffffffffffffffffffffffffffffffffffff\n      and\n        /* \"fundMe/FundMe.sol\":5336:5355  msg.sender == owner */\n      0xffffffffffffffffffffffffffffffffffffffff\n      and\n        /* \"fundMe/FundMe.sol\":5336:5346  msg.sender */\n      caller\n        /* \"fundMe/FundMe.sol\":5336:5355  msg.sender == owner */\n      0xffffffffffffffffffffffffffffffffffffffff\n      and\n      eq\n        /* \"fundMe/FundMe.sol\":5328:5399  require(msg.sender == owner, \"This function can only be call by owner\") */\n      tag_79\n      jumpi\n      mload(0x40)\n      0x08c379a000000000000000000000000000000000000000000000000000000000\n      dup2\n      mstore\n      0x04\n      add\n      tag_80\n      swap1\n      tag_76\n      jump\t// in\n    tag_80:\n      mload(0x40)\n      dup1\n      swap2\n      sub\n      swap1\n      revert\n    tag_79:\n        /* \"fundMe/FundMe.sol\":3909:3918  _newOwner */\n      dup1\n        /* \"fundMe/FundMe.sol\":3901:3906  owner */\n      0x01\n      0x00\n        /* \"fundMe/FundMe.sol\":3901:3918  owner = _newOwner */\n      0x0100\n      exp\n      dup2\n      sload\n      dup2\n      0xffffffffffffffffffffffffffffffffffffffff\n      mul\n      not\n      and\n      swap1\n      dup4\n      0xffffffffffffffffffffffffffffffffffffffff\n      and\n      mul\n      or\n      swap1\n      sstore\n      pop\n        /* \"fundMe/FundMe.sol\":3827:3926  function transferOwnerShip(address _newOwner) public onlyOwner {... */\n      pop\n      jump\t// out\n        /* \"fundMe/FundMe.sol\":2948:3800  function getFund() external WindowClosed onlyOwner{... */\n    tag_26:\n        /* \"fundMe/FundMe.sol\":5177:5185  lockTime */\n      sload(0x03)\n        /* \"fundMe/FundMe.sol\":5155:5174  deploymentTimestamp */\n      sload(0x02)\n        /* \"fundMe/FundMe.sol\":5155:5185  deploymentTimestamp + lockTime */\n      tag_83\n      swap2\n      swap1\n      tag_52\n      jump\t// in\n    tag_83:\n        /* \"fundMe/FundMe.sol\":5136:5151  block.timestamp */\n      timestamp\n        /* \"fundMe/FundMe.sol\":5136:5185  block.timestamp >= deploymentTimestamp + lockTime */\n      lt\n      iszero\n        /* \"fundMe/FundMe.sol\":5128:5210  require(block.timestamp >= deploymentTimestamp + lockTime, \"Window is not closed\") */\n      tag_84\n      jumpi\n      mload(0x40)\n      0x08c379a000000000000000000000000000000000000000000000000000000000\n      dup2\n      mstore\n      0x04\n      add\n      tag_85\n      swap1\n      tag_55\n      jump\t// in\n    tag_85:\n      mload(0x40)\n      dup1\n      swap2\n      sub\n      swap1\n      revert\n    tag_84:\n        /* \"fundMe/FundMe.sol\":5350:5355  owner */\n      0x01\n      0x00\n      swap1\n      sload\n      swap1\n      0x0100\n      exp\n      swap1\n      div\n      0xffffffffffffffffffffffffffffffffffffffff\n      and\n        /* \"fundMe/FundMe.sol\":5336:5355  msg.sender == owner */\n      0xffffffffffffffffffffffffffffffffffffffff\n      and\n        /* \"fundMe/FundMe.sol\":5336:5346  msg.sender */\n      caller\n        /* \"fundMe/FundMe.sol\":5336:5355  msg.sender == owner */\n      0xffffffffffffffffffffffffffffffffffffffff\n      and\n      eq\n        /* \"fundMe/FundMe.sol\":5328:5399  require(msg.sender == owner, \"This function can only be call by owner\") */\n      tag_87\n      jumpi\n      mload(0x40)\n      0x08c379a000000000000000000000000000000000000000000000000000000000\n      dup2\n      mstore\n      0x04\n      add\n      tag_88\n      swap1\n      tag_76\n      jump\t// in\n    tag_88:\n      mload(0x40)\n      dup1\n      swap2\n      sub\n      swap1\n      revert\n    tag_87:\n        /* \"fundMe/FundMe.sol\":755:758  200 */\n      0xc8\n        /* \"fundMe/FundMe.sol\":3210:3248  convertEthToUsd(address(this).balance) */\n      tag_90\n        /* \"fundMe/FundMe.sol\":3226:3247  address(this).balance */\n      selfbalance\n        /* \"fundMe/FundMe.sol\":3210:3225  convertEthToUsd */\n      tag_58\n        /* \"fundMe/FundMe.sol\":3210:3248  convertEthToUsd(address(this).balance) */\n      jump\t// in\n    tag_90:\n        /* \"fundMe/FundMe.sol\":3210:3258  convertEthToUsd(address(this).balance) >= TARGET */\n      lt\n      iszero\n        /* \"fundMe/FundMe.sol\":3202:3285  require(convertEthToUsd(address(this).balance) >= TARGET, \"Target is not reached!\") */\n      tag_91\n      jumpi\n      mload(0x40)\n      0x08c379a000000000000000000000000000000000000000000000000000000000\n      dup2\n      mstore\n      0x04\n      add\n      tag_92\n      swap1\n      tag_93\n      jump\t// in\n    tag_92:\n      mload(0x40)\n      dup1\n      swap2\n      sub\n      swap1\n      revert\n    tag_91:\n        /* \"fundMe/FundMe.sol\":3619:3630  bool result */\n      0x00\n        /* \"fundMe/FundMe.sol\":3662:3672  msg.sender */\n      caller\n        /* \"fundMe/FundMe.sol\":3654:3678  payable(msg.sender).call */\n      0xffffffffffffffffffffffffffffffffffffffff\n      and\n        /* \"fundMe/FundMe.sol\":3686:3707  address(this).balance */\n      selfbalance\n        /* \"fundMe/FundMe.sol\":3654:3712  payable(msg.sender).call{value: address(this).balance}(\"\") */\n      mload(0x40)\n      tag_94\n      swap1\n      tag_66\n      jump\t// in\n    tag_94:\n      0x00\n      mload(0x40)\n      dup1\n      dup4\n      sub\n      dup2\n      dup6\n      dup8\n      gas\n      call\n      swap3\n      pop\n      pop\n      pop\n      returndatasize\n      dup1\n      0x00\n      dup2\n      eq\n      tag_97\n      jumpi\n      mload(0x40)\n      swap2\n      pop\n      and(add(returndatasize, 0x3f), not(0x1f))\n      dup3\n      add\n      0x40\n      mstore\n      returndatasize\n      dup3\n      mstore\n      returndatasize\n      0x00\n      0x20\n      dup5\n      add\n      returndatacopy\n      jump(tag_96)\n    tag_97:\n      0x60\n      swap2\n      pop\n    tag_96:\n      pop\n        /* \"fundMe/FundMe.sol\":3641:3712  (result, ) = payable(msg.sender).call{value: address(this).balance}(\"\") */\n      pop\n      dup1\n      swap2\n      pop\n      pop\n        /* \"fundMe/FundMe.sol\":3731:3737  result */\n      dup1\n        /* \"fundMe/FundMe.sol\":3723:3760  require(result, \"Transfer is failed\") */\n      tag_98\n      jumpi\n      mload(0x40)\n      0x08c379a000000000000000000000000000000000000000000000000000000000\n      dup2\n      mstore\n      0x04\n      add\n      tag_99\n      swap1\n      tag_72\n      jump\t// in\n    tag_99:\n      mload(0x40)\n      dup1\n      swap2\n      sub\n      swap1\n      revert\n    tag_98:\n        /* \"fundMe/FundMe.sol\":3788:3792  true */\n      0x01\n        /* \"fundMe/FundMe.sol\":3771:3785  getFundSuccess */\n      0x04\n      0x14\n        /* \"fundMe/FundMe.sol\":3771:3792  getFundSuccess = true */\n      0x0100\n      exp\n      dup2\n      sload\n      dup2\n      0xff\n      mul\n      not\n      and\n      swap1\n      dup4\n      iszero\n      iszero\n      mul\n      or\n      swap1\n      sstore\n      pop\n        /* \"fundMe/FundMe.sol\":2998:3800  {... */\n      pop\n        /* \"fundMe/FundMe.sol\":2948:3800  function getFund() external WindowClosed onlyOwner{... */\n      jump\t// out\n        /* \"fundMe/FundMe.sol\":580:630  mapping(address => uint256) public fundersToAmount */\n    tag_30:\n      mstore(0x20, 0x00)\n      dup1\n      0x00\n      mstore\n      keccak256(0x00, 0x40)\n      0x00\n      swap2\n      pop\n      swap1\n      pop\n      sload\n      dup2\n      jump\t// out\n        /* \"fundMe/FundMe.sol\":1778:2193  function fund() external payable { ... */\n    tag_34:\n        /* \"fundMe/FundMe.sol\":702:716  100 * 10 ** 18 */\n      0x056bc75e2d63100000\n        /* \"fundMe/FundMe.sol\":1895:1921  convertEthToUsd(msg.value) */\n      tag_101\n        /* \"fundMe/FundMe.sol\":1911:1920  msg.value */\n      callvalue\n        /* \"fundMe/FundMe.sol\":1895:1910  convertEthToUsd */\n      tag_58\n        /* \"fundMe/FundMe.sol\":1895:1921  convertEthToUsd(msg.value) */\n      jump\t// in\n    tag_101:\n        /* \"fundMe/FundMe.sol\":1895:1936  convertEthToUsd(msg.value)>=MINIMUM_VALUE */\n      lt\n      iszero\n        /* \"fundMe/FundMe.sol\":1887:1984  require(convertEthToUsd(msg.value)>=MINIMUM_VALUE, \"Send more ETH, The minimum ETH value is one\") */\n      tag_102\n      jumpi\n      mload(0x40)\n      0x08c379a000000000000000000000000000000000000000000000000000000000\n      dup2\n      mstore\n      0x04\n      add\n      tag_103\n      swap1\n      tag_104\n      jump\t// in\n    tag_103:\n      mload(0x40)\n      dup1\n      swap2\n      sub\n      swap1\n      revert\n    tag_102:\n        /* \"fundMe/FundMe.sol\":2106:2114  lockTime */\n      sload(0x03)\n        /* \"fundMe/FundMe.sol\":2084:2103  deploymentTimestamp */\n      sload(0x02)\n        /* \"fundMe/FundMe.sol\":2084:2114  deploymentTimestamp + lockTime */\n      tag_105\n      swap2\n      swap1\n      tag_52\n      jump\t// in\n    tag_105:\n        /* \"fundMe/FundMe.sol\":2066:2081  block.timestamp */\n      timestamp\n        /* \"fundMe/FundMe.sol\":2066:2114  block.timestamp < deploymentTimestamp + lockTime */\n      lt\n        /* \"fundMe/FundMe.sol\":2058:2135  require(block.timestamp < deploymentTimestamp + lockTime, \"Window is closed\") */\n      tag_106\n      jumpi\n      mload(0x40)\n      0x08c379a000000000000000000000000000000000000000000000000000000000\n      dup2\n      mstore\n      0x04\n      add\n      tag_107\n      swap1\n      tag_108\n      jump\t// in\n    tag_107:\n      mload(0x40)\n      dup1\n      swap2\n      sub\n      swap1\n      revert\n    tag_106:\n        /* \"fundMe/FundMe.sol\":2176:2185  msg.value */\n      callvalue\n        /* \"fundMe/FundMe.sol\":2146:2161  fundersToAmount */\n      0x00\n        /* \"fundMe/FundMe.sol\":2146:2173  fundersToAmount[msg.sender] */\n      dup1\n        /* \"fundMe/FundMe.sol\":2162:2172  msg.sender */\n      caller\n        /* \"fundMe/FundMe.sol\":2146:2173  fundersToAmount[msg.sender] */\n      0xffffffffffffffffffffffffffffffffffffffff\n      and\n      0xffffffffffffffffffffffffffffffffffffffff\n      and\n      dup2\n      mstore\n      0x20\n      add\n      swap1\n      dup2\n      mstore\n      0x20\n      add\n      0x00\n      keccak256\n        /* \"fundMe/FundMe.sol\":2146:2185  fundersToAmount[msg.sender] = msg.value */\n      dup2\n      swap1\n      sstore\n      pop\n        /* \"fundMe/FundMe.sol\":1778:2193  function fund() external payable { ... */\n      jump\t// out\n        /* \"fundMe/FundMe.sol\":2227:2575  function getChainlinkDataFeedLatestAnswer() public view returns (int) {... */\n    tag_37:\n        /* \"fundMe/FundMe.sol\":2292:2295  int */\n      0x00\n        /* \"fundMe/FundMe.sol\":2386:2396  int answer */\n      dup1\n        /* \"fundMe/FundMe.sol\":2517:2525  dataFeed */\n      0x05\n      0x00\n      swap1\n      sload\n      swap1\n      0x0100\n      exp\n      swap1\n      div\n      0xffffffffffffffffffffffffffffffffffffffff\n      and\n        /* \"fundMe/FundMe.sol\":2517:2541  dataFeed.latestRoundData */\n      0xffffffffffffffffffffffffffffffffffffffff\n      and\n      0xfeaf968c\n        /* \"fundMe/FundMe.sol\":2517:2543  dataFeed.latestRoundData() */\n      mload(0x40)\n      dup2\n      0xffffffff\n      and\n      0xe0\n      shl\n      dup2\n      mstore\n      0x04\n      add\n      0xa0\n      mload(0x40)\n      dup1\n      dup4\n      sub\n      dup2\n      dup7\n      gas\n      staticcall\n      iszero\n      dup1\n      iszero\n      tag_111\n      jumpi\n      returndatasize\n      0x00\n      dup1\n      returndatacopy\n      revert(0x00, returndatasize)\n    tag_111:\n      pop\n      pop\n      pop\n      pop\n      mload(0x40)\n      returndatasize\n      not(0x1f)\n      0x1f\n      dup3\n      add\n      and\n      dup3\n      add\n      dup1\n      0x40\n      mstore\n      pop\n      dup2\n      add\n      swap1\n      tag_112\n      swap2\n      swap1\n      tag_113\n      jump\t// in\n    tag_112:\n        /* \"fundMe/FundMe.sol\":2336:2543  (... */\n      pop\n      pop\n      pop\n      swap2\n      pop\n      pop\n        /* \"fundMe/FundMe.sol\":2561:2567  answer */\n      dup1\n        /* \"fundMe/FundMe.sol\":2554:2567  return answer */\n      swap2\n      pop\n      pop\n        /* \"fundMe/FundMe.sol\":2227:2575  function getChainlinkDataFeedLatestAnswer() public view returns (int) {... */\n      swap1\n      jump\t// out\n        /* \"fundMe/FundMe.sol\":4615:4846  function setFunderToAmount(address funder, uint256 amountToUpdate) external  {... */\n    tag_44:\n        /* \"fundMe/FundMe.sol\":4725:4734  erc20Addr */\n      0x04\n      0x00\n      swap1\n      sload\n      swap1\n      0x0100\n      exp\n      swap1\n      div\n      0xffffffffffffffffffffffffffffffffffffffff\n      and\n        /* \"fundMe/FundMe.sol\":4711:4734  msg.sender == erc20Addr */\n      0xffffffffffffffffffffffffffffffffffffffff\n      and\n        /* \"fundMe/FundMe.sol\":4711:4721  msg.sender */\n      caller\n        /* \"fundMe/FundMe.sol\":4711:4734  msg.sender == erc20Addr */\n      0xffffffffffffffffffffffffffffffffffffffff\n      and\n      eq\n        /* \"fundMe/FundMe.sol\":4703:4787  require(msg.sender == erc20Addr, \"you do not have permission to call this function\") */\n      tag_115\n      jumpi\n      mload(0x40)\n      0x08c379a000000000000000000000000000000000000000000000000000000000\n      dup2\n      mstore\n      0x04\n      add\n      tag_116\n      swap1\n      tag_117\n      jump\t// in\n    tag_116:\n      mload(0x40)\n      dup1\n      swap2\n      sub\n      swap1\n      revert\n    tag_115:\n        /* \"fundMe/FundMe.sol\":4824:4838  amountToUpdate */\n      dup1\n        /* \"fundMe/FundMe.sol\":4798:4813  fundersToAmount */\n      0x00\n        /* \"fundMe/FundMe.sol\":4798:4821  fundersToAmount[funder] */\n      dup1\n        /* \"fundMe/FundMe.sol\":4814:4820  funder */\n      dup5\n        /* \"fundMe/FundMe.sol\":4798:4821  fundersToAmount[funder] */\n      0xffffffffffffffffffffffffffffffffffffffff\n      and\n      0xffffffffffffffffffffffffffffffffffffffff\n      and\n      dup2\n      mstore\n      0x20\n      add\n      swap1\n      dup2\n      mstore\n      0x20\n      add\n      0x00\n      keccak256\n        /* \"fundMe/FundMe.sol\":4798:4838  fundersToAmount[funder] = amountToUpdate */\n      dup2\n      swap1\n      sstore\n      pop\n        /* \"fundMe/FundMe.sol\":4615:4846  function setFunderToAmount(address funder, uint256 amountToUpdate) external  {... */\n      pop\n      pop\n      jump\t// out\n        /* \"fundMe/FundMe.sol\":936:970  bool public getFundSuccess = false */\n    tag_47:\n      0x04\n      0x14\n      swap1\n      sload\n      swap1\n      0x0100\n      exp\n      swap1\n      div\n      0xff\n      and\n      dup2\n      jump\t// out\n        /* \"fundMe/FundMe.sol\":2583:2898  function convertEthToUsd(uint256 _ethAmount) internal view returns(uint256) {... */\n    tag_58:\n        /* \"fundMe/FundMe.sol\":2650:2657  uint256 */\n      0x00\n        /* \"fundMe/FundMe.sol\":2670:2686  uint256 ethPrice */\n      dup1\n        /* \"fundMe/FundMe.sol\":2697:2731  getChainlinkDataFeedLatestAnswer() */\n      tag_119\n        /* \"fundMe/FundMe.sol\":2697:2729  getChainlinkDataFeedLatestAnswer */\n      tag_37\n        /* \"fundMe/FundMe.sol\":2697:2731  getChainlinkDataFeedLatestAnswer() */\n      jump\t// in\n    tag_119:\n        /* \"fundMe/FundMe.sol\":2670:2732  uint256 ethPrice = uint256(getChainlinkDataFeedLatestAnswer()) */\n      swap1\n      pop\n        /* \"fundMe/FundMe.sol\":2856:2861  10**8 */\n      0x05f5e100\n        /* \"fundMe/FundMe.sol\":2846:2854  ethPrice */\n      dup2\n        /* \"fundMe/FundMe.sol\":2833:2843  _ethAmount */\n      dup5\n        /* \"fundMe/FundMe.sol\":2833:2854  _ethAmount * ethPrice */\n      tag_120\n      swap2\n      swap1\n      tag_121\n      jump\t// in\n    tag_120:\n        /* \"fundMe/FundMe.sol\":2833:2862  _ethAmount * ethPrice/(10**8) */\n      tag_122\n      swap2\n      swap1\n      tag_123\n      jump\t// in\n    tag_122:\n        /* \"fundMe/FundMe.sol\":2826:2862  return _ethAmount * ethPrice/(10**8) */\n      swap2\n      pop\n      pop\n        /* \"fundMe/FundMe.sol\":2583:2898  function convertEthToUsd(uint256 _ethAmount) internal view returns(uint256) {... */\n      swap2\n      swap1\n      pop\n      jump\t// out\n        /* \"#utility.yul\":88:205   */\n    tag_125:\n        /* \"#utility.yul\":197:198   */\n      0x00\n        /* \"#utility.yul\":194:195   */\n      dup1\n        /* \"#utility.yul\":187:199   */\n      revert\n        /* \"#utility.yul\":334:460   */\n    tag_127:\n        /* \"#utility.yul\":371:378   */\n      0x00\n        /* \"#utility.yul\":411:453   */\n      0xffffffffffffffffffffffffffffffffffffffff\n        /* \"#utility.yul\":404:409   */\n      dup3\n        /* \"#utility.yul\":400:454   */\n      and\n        /* \"#utility.yul\":389:454   */\n      swap1\n      pop\n        /* \"#utility.yul\":334:460   */\n      swap2\n      swap1\n      pop\n      jump\t// out\n        /* \"#utility.yul\":466:562   */\n    tag_128:\n        /* \"#utility.yul\":503:510   */\n      0x00\n        /* \"#utility.yul\":532:556   */\n      tag_175\n        /* \"#utility.yul\":550:555   */\n      dup3\n        /* \"#utility.yul\":532:556   */\n      tag_127\n      jump\t// in\n    tag_175:\n        /* \"#utility.yul\":521:556   */\n      swap1\n      pop\n        /* \"#utility.yul\":466:562   */\n      swap2\n      swap1\n      pop\n      jump\t// out\n        /* \"#utility.yul\":568:690   */\n    tag_129:\n        /* \"#utility.yul\":641:665   */\n      tag_177\n        /* \"#utility.yul\":659:664   */\n      dup2\n        /* \"#utility.yul\":641:665   */\n      tag_128\n      jump\t// in\n    tag_177:\n        /* \"#utility.yul\":634:639   */\n      dup2\n        /* \"#utility.yul\":631:666   */\n      eq\n        /* \"#utility.yul\":621:684   */\n      tag_178\n      jumpi\n        /* \"#utility.yul\":680:681   */\n      0x00\n        /* \"#utility.yul\":677:678   */\n      dup1\n        /* \"#utility.yul\":670:682   */\n      revert\n        /* \"#utility.yul\":621:684   */\n    tag_178:\n        /* \"#utility.yul\":568:690   */\n      pop\n      jump\t// out\n        /* \"#utility.yul\":696:835   */\n    tag_130:\n        /* \"#utility.yul\":742:747   */\n      0x00\n        /* \"#utility.yul\":780:786   */\n      dup2\n        /* \"#utility.yul\":767:787   */\n      calldataload\n        /* \"#utility.yul\":758:787   */\n      swap1\n      pop\n        /* \"#utility.yul\":796:829   */\n      tag_180\n        /* \"#utility.yul\":823:828   */\n      dup2\n        /* \"#utility.yul\":796:829   */\n      tag_129\n      jump\t// in\n    tag_180:\n        /* \"#utility.yul\":696:835   */\n      swap3\n      swap2\n      pop\n      pop\n      jump\t// out\n        /* \"#utility.yul\":841:1170   */\n    tag_18:\n        /* \"#utility.yul\":900:906   */\n      0x00\n        /* \"#utility.yul\":949:951   */\n      0x20\n        /* \"#utility.yul\":937:946   */\n      dup3\n        /* \"#utility.yul\":928:935   */\n      dup5\n        /* \"#utility.yul\":924:947   */\n      sub\n        /* \"#utility.yul\":920:952   */\n      slt\n        /* \"#utility.yul\":917:1036   */\n      iszero\n      tag_182\n      jumpi\n        /* \"#utility.yul\":955:1034   */\n      tag_183\n      tag_125\n      jump\t// in\n    tag_183:\n        /* \"#utility.yul\":917:1036   */\n    tag_182:\n        /* \"#utility.yul\":1075:1076   */\n      0x00\n        /* \"#utility.yul\":1100:1153   */\n      tag_184\n        /* \"#utility.yul\":1145:1152   */\n      dup5\n        /* \"#utility.yul\":1136:1142   */\n      dup3\n        /* \"#utility.yul\":1125:1134   */\n      dup6\n        /* \"#utility.yul\":1121:1143   */\n      add\n        /* \"#utility.yul\":1100:1153   */\n      tag_130\n      jump\t// in\n    tag_184:\n        /* \"#utility.yul\":1090:1153   */\n      swap2\n      pop\n        /* \"#utility.yul\":1046:1163   */\n      pop\n        /* \"#utility.yul\":841:1170   */\n      swap3\n      swap2\n      pop\n      pop\n      jump\t// out\n        /* \"#utility.yul\":1176:1253   */\n    tag_131:\n        /* \"#utility.yul\":1213:1220   */\n      0x00\n        /* \"#utility.yul\":1242:1247   */\n      dup2\n        /* \"#utility.yul\":1231:1247   */\n      swap1\n      pop\n        /* \"#utility.yul\":1176:1253   */\n      swap2\n      swap1\n      pop\n      jump\t// out\n        /* \"#utility.yul\":1259:1377   */\n    tag_132:\n        /* \"#utility.yul\":1346:1370   */\n      tag_187\n        /* \"#utility.yul\":1364:1369   */\n      dup2\n        /* \"#utility.yul\":1346:1370   */\n      tag_131\n      jump\t// in\n    tag_187:\n        /* \"#utility.yul\":1341:1344   */\n      dup3\n        /* \"#utility.yul\":1334:1371   */\n      mstore\n        /* \"#utility.yul\":1259:1377   */\n      pop\n      pop\n      jump\t// out\n        /* \"#utility.yul\":1383:1605   */\n    tag_32:\n        /* \"#utility.yul\":1476:1480   */\n      0x00\n        /* \"#utility.yul\":1514:1516   */\n      0x20\n        /* \"#utility.yul\":1503:1512   */\n      dup3\n        /* \"#utility.yul\":1499:1517   */\n      add\n        /* \"#utility.yul\":1491:1517   */\n      swap1\n      pop\n        /* \"#utility.yul\":1527:1598   */\n      tag_189\n        /* \"#utility.yul\":1595:1596   */\n      0x00\n        /* \"#utility.yul\":1584:1593   */\n      dup4\n        /* \"#utility.yul\":1580:1597   */\n      add\n        /* \"#utility.yul\":1571:1577   */\n      dup5\n        /* \"#utility.yul\":1527:1598   */\n      tag_132\n      jump\t// in\n    tag_189:\n        /* \"#utility.yul\":1383:1605   */\n      swap3\n      swap2\n      pop\n      pop\n      jump\t// out\n        /* \"#utility.yul\":1611:1687   */\n    tag_133:\n        /* \"#utility.yul\":1647:1654   */\n      0x00\n        /* \"#utility.yul\":1676:1681   */\n      dup2\n        /* \"#utility.yul\":1665:1681   */\n      swap1\n      pop\n        /* \"#utility.yul\":1611:1687   */\n      swap2\n      swap1\n      pop\n      jump\t// out\n        /* \"#utility.yul\":1693:1808   */\n    tag_134:\n        /* \"#utility.yul\":1778:1801   */\n      tag_192\n        /* \"#utility.yul\":1795:1800   */\n      dup2\n        /* \"#utility.yul\":1778:1801   */\n      tag_133\n      jump\t// in\n    tag_192:\n        /* \"#utility.yul\":1773:1776   */\n      dup3\n        /* \"#utility.yul\":1766:1802   */\n      mstore\n        /* \"#utility.yul\":1693:1808   */\n      pop\n      pop\n      jump\t// out\n        /* \"#utility.yul\":1814:2032   */\n    tag_39:\n        /* \"#utility.yul\":1905:1909   */\n      0x00\n        /* \"#utility.yul\":1943:1945   */\n      0x20\n        /* \"#utility.yul\":1932:1941   */\n      dup3\n        /* \"#utility.yul\":1928:1946   */\n      add\n        /* \"#utility.yul\":1920:1946   */\n      swap1\n      pop\n        /* \"#utility.yul\":1956:2025   */\n      tag_194\n        /* \"#utility.yul\":2022:2023   */\n      0x00\n        /* \"#utility.yul\":2011:2020   */\n      dup4\n        /* \"#utility.yul\":2007:2024   */\n      add\n        /* \"#utility.yul\":1998:2004   */\n      dup5\n        /* \"#utility.yul\":1956:2025   */\n      tag_134\n      jump\t// in\n    tag_194:\n        /* \"#utility.yul\":1814:2032   */\n      swap3\n      swap2\n      pop\n      pop\n      jump\t// out\n        /* \"#utility.yul\":2038:2160   */\n    tag_135:\n        /* \"#utility.yul\":2111:2135   */\n      tag_196\n        /* \"#utility.yul\":2129:2134   */\n      dup2\n        /* \"#utility.yul\":2111:2135   */\n      tag_131\n      jump\t// in\n    tag_196:\n        /* \"#utility.yul\":2104:2109   */\n      dup2\n        /* \"#utility.yul\":2101:2136   */\n      eq\n        /* \"#utility.yul\":2091:2154   */\n      tag_197\n      jumpi\n        /* \"#utility.yul\":2150:2151   */\n      0x00\n        /* \"#utility.yul\":2147:2148   */\n      dup1\n        /* \"#utility.yul\":2140:2152   */\n      revert\n        /* \"#utility.yul\":2091:2154   */\n    tag_197:\n        /* \"#utility.yul\":2038:2160   */\n      pop\n      jump\t// out\n        /* \"#utility.yul\":2166:2305   */\n    tag_136:\n        /* \"#utility.yul\":2212:2217   */\n      0x00\n        /* \"#utility.yul\":2250:2256   */\n      dup2\n        /* \"#utility.yul\":2237:2257   */\n      calldataload\n        /* \"#utility.yul\":2228:2257   */\n      swap1\n      pop\n        /* \"#utility.yul\":2266:2299   */\n      tag_199\n        /* \"#utility.yul\":2293:2298   */\n      dup2\n        /* \"#utility.yul\":2266:2299   */\n      tag_135\n      jump\t// in\n    tag_199:\n        /* \"#utility.yul\":2166:2305   */\n      swap3\n      swap2\n      pop\n      pop\n      jump\t// out\n        /* \"#utility.yul\":2311:2785   */\n    tag_43:\n        /* \"#utility.yul\":2379:2385   */\n      0x00\n        /* \"#utility.yul\":2387:2393   */\n      dup1\n        /* \"#utility.yul\":2436:2438   */\n      0x40\n        /* \"#utility.yul\":2424:2433   */\n      dup4\n        /* \"#utility.yul\":2415:2422   */\n      dup6\n        /* \"#utility.yul\":2411:2434   */\n      sub\n        /* \"#utility.yul\":2407:2439   */\n      slt\n        /* \"#utility.yul\":2404:2523   */\n      iszero\n      tag_201\n      jumpi\n        /* \"#utility.yul\":2442:2521   */\n      tag_202\n      tag_125\n      jump\t// in\n    tag_202:\n        /* \"#utility.yul\":2404:2523   */\n    tag_201:\n        /* \"#utility.yul\":2562:2563   */\n      0x00\n        /* \"#utility.yul\":2587:2640   */\n      tag_203\n        /* \"#utility.yul\":2632:2639   */\n      dup6\n        /* \"#utility.yul\":2623:2629   */\n      dup3\n        /* \"#utility.yul\":2612:2621   */\n      dup7\n        /* \"#utility.yul\":2608:2630   */\n      add\n        /* \"#utility.yul\":2587:2640   */\n      tag_130\n      jump\t// in\n    tag_203:\n        /* \"#utility.yul\":2577:2640   */\n      swap3\n      pop\n        /* \"#utility.yul\":2533:2650   */\n      pop\n        /* \"#utility.yul\":2689:2691   */\n      0x20\n        /* \"#utility.yul\":2715:2768   */\n      tag_204\n        /* \"#utility.yul\":2760:2767   */\n      dup6\n        /* \"#utility.yul\":2751:2757   */\n      dup3\n        /* \"#utility.yul\":2740:2749   */\n      dup7\n        /* \"#utility.yul\":2736:2758   */\n      add\n        /* \"#utility.yul\":2715:2768   */\n      tag_136\n      jump\t// in\n    tag_204:\n        /* \"#utility.yul\":2705:2768   */\n      swap2\n      pop\n        /* \"#utility.yul\":2660:2778   */\n      pop\n        /* \"#utility.yul\":2311:2785   */\n      swap3\n      pop\n      swap3\n      swap1\n      pop\n      jump\t// out\n        /* \"#utility.yul\":2791:2881   */\n    tag_137:\n        /* \"#utility.yul\":2825:2832   */\n      0x00\n        /* \"#utility.yul\":2868:2873   */\n      dup2\n        /* \"#utility.yul\":2861:2874   */\n      iszero\n        /* \"#utility.yul\":2854:2875   */\n      iszero\n        /* \"#utility.yul\":2843:2875   */\n      swap1\n      pop\n        /* \"#utility.yul\":2791:2881   */\n      swap2\n      swap1\n      pop\n      jump\t// out\n        /* \"#utility.yul\":2887:2996   */\n    tag_138:\n        /* \"#utility.yul\":2968:2989   */\n      tag_207\n        /* \"#utility.yul\":2983:2988   */\n      dup2\n        /* \"#utility.yul\":2968:2989   */\n      tag_137\n      jump\t// in\n    tag_207:\n        /* \"#utility.yul\":2963:2966   */\n      dup3\n        /* \"#utility.yul\":2956:2990   */\n      mstore\n        /* \"#utility.yul\":2887:2996   */\n      pop\n      pop\n      jump\t// out\n        /* \"#utility.yul\":3002:3212   */\n    tag_49:\n        /* \"#utility.yul\":3089:3093   */\n      0x00\n        /* \"#utility.yul\":3127:3129   */\n      0x20\n        /* \"#utility.yul\":3116:3125   */\n      dup3\n        /* \"#utility.yul\":3112:3130   */\n      add\n        /* \"#utility.yul\":3104:3130   */\n      swap1\n      pop\n        /* \"#utility.yul\":3140:3205   */\n      tag_209\n        /* \"#utility.yul\":3202:3203   */\n      0x00\n        /* \"#utility.yul\":3191:3200   */\n      dup4\n        /* \"#utility.yul\":3187:3204   */\n      add\n        /* \"#utility.yul\":3178:3184   */\n      dup5\n        /* \"#utility.yul\":3140:3205   */\n      tag_138\n      jump\t// in\n    tag_209:\n        /* \"#utility.yul\":3002:3212   */\n      swap3\n      swap2\n      pop\n      pop\n      jump\t// out\n        /* \"#utility.yul\":3218:3398   */\n    tag_139:\n        /* \"#utility.yul\":3266:3343   */\n      0x4e487b7100000000000000000000000000000000000000000000000000000000\n        /* \"#utility.yul\":3263:3264   */\n      0x00\n        /* \"#utility.yul\":3256:3344   */\n      mstore\n        /* \"#utility.yul\":3363:3367   */\n      0x11\n        /* \"#utility.yul\":3360:3361   */\n      0x04\n        /* \"#utility.yul\":3353:3368   */\n      mstore\n        /* \"#utility.yul\":3387:3391   */\n      0x24\n        /* \"#utility.yul\":3384:3385   */\n      0x00\n        /* \"#utility.yul\":3377:3392   */\n      revert\n        /* \"#utility.yul\":3404:3595   */\n    tag_52:\n        /* \"#utility.yul\":3444:3447   */\n      0x00\n        /* \"#utility.yul\":3463:3483   */\n      tag_212\n        /* \"#utility.yul\":3481:3482   */\n      dup3\n        /* \"#utility.yul\":3463:3483   */\n      tag_131\n      jump\t// in\n    tag_212:\n        /* \"#utility.yul\":3458:3483   */\n      swap2\n      pop\n        /* \"#utility.yul\":3497:3517   */\n      tag_213\n        /* \"#utility.yul\":3515:3516   */\n      dup4\n        /* \"#utility.yul\":3497:3517   */\n      tag_131\n      jump\t// in\n    tag_213:\n        /* \"#utility.yul\":3492:3517   */\n      swap3\n      pop\n        /* \"#utility.yul\":3540:3541   */\n      dup3\n        /* \"#utility.yul\":3537:3538   */\n      dup3\n        /* \"#utility.yul\":3533:3542   */\n      add\n        /* \"#utility.yul\":3526:3542   */\n      swap1\n      pop\n        /* \"#utility.yul\":3561:3564   */\n      dup1\n        /* \"#utility.yul\":3558:3559   */\n      dup3\n        /* \"#utility.yul\":3555:3565   */\n      gt\n        /* \"#utility.yul\":3552:3588   */\n      iszero\n      tag_214\n      jumpi\n        /* \"#utility.yul\":3568:3586   */\n      tag_215\n      tag_139\n      jump\t// in\n    tag_215:\n        /* \"#utility.yul\":3552:3588   */\n    tag_214:\n        /* \"#utility.yul\":3404:3595   */\n      swap3\n      swap2\n      pop\n      pop\n      jump\t// out\n        /* \"#utility.yul\":3601:3770   */\n    tag_140:\n        /* \"#utility.yul\":3685:3696   */\n      0x00\n        /* \"#utility.yul\":3719:3725   */\n      dup3\n        /* \"#utility.yul\":3714:3717   */\n      dup3\n        /* \"#utility.yul\":3707:3726   */\n      mstore\n        /* \"#utility.yul\":3759:3763   */\n      0x20\n        /* \"#utility.yul\":3754:3757   */\n      dup3\n        /* \"#utility.yul\":3750:3764   */\n      add\n        /* \"#utility.yul\":3735:3764   */\n      swap1\n      pop\n        /* \"#utility.yul\":3601:3770   */\n      swap3\n      swap2\n      pop\n      pop\n      jump\t// out\n        /* \"#utility.yul\":3776:3946   */\n    tag_141:\n        /* \"#utility.yul\":3916:3938   */\n      0x57696e646f77206973206e6f7420636c6f736564000000000000000000000000\n        /* \"#utility.yul\":3912:3913   */\n      0x00\n        /* \"#utility.yul\":3904:3910   */\n      dup3\n        /* \"#utility.yul\":3900:3914   */\n      add\n        /* \"#utility.yul\":3893:3939   */\n      mstore\n        /* \"#utility.yul\":3776:3946   */\n      pop\n      jump\t// out\n        /* \"#utility.yul\":3952:4318   */\n    tag_142:\n        /* \"#utility.yul\":4094:4097   */\n      0x00\n        /* \"#utility.yul\":4115:4182   */\n      tag_219\n        /* \"#utility.yul\":4179:4181   */\n      0x14\n        /* \"#utility.yul\":4174:4177   */\n      dup4\n        /* \"#utility.yul\":4115:4182   */\n      tag_140\n      jump\t// in\n    tag_219:\n        /* \"#utility.yul\":4108:4182   */\n      swap2\n      pop\n        /* \"#utility.yul\":4191:4284   */\n      tag_220\n        /* \"#utility.yul\":4280:4283   */\n      dup3\n        /* \"#utility.yul\":4191:4284   */\n      tag_141\n      jump\t// in\n    tag_220:\n        /* \"#utility.yul\":4309:4311   */\n      0x20\n        /* \"#utility.yul\":4304:4307   */\n      dup3\n        /* \"#utility.yul\":4300:4312   */\n      add\n        /* \"#utility.yul\":4293:4312   */\n      swap1\n      pop\n        /* \"#utility.yul\":3952:4318   */\n      swap2\n      swap1\n      pop\n      jump\t// out\n        /* \"#utility.yul\":4324:4743   */\n    tag_55:\n        /* \"#utility.yul\":4490:4494   */\n      0x00\n        /* \"#utility.yul\":4528:4530   */\n      0x20\n        /* \"#utility.yul\":4517:4526   */\n      dup3\n        /* \"#utility.yul\":4513:4531   */\n      add\n        /* \"#utility.yul\":4505:4531   */\n      swap1\n      pop\n        /* \"#utility.yul\":4577:4586   */\n      dup2\n        /* \"#utility.yul\":4571:4575   */\n      dup2\n        /* \"#utility.yul\":4567:4587   */\n      sub\n        /* \"#utility.yul\":4563:4564   */\n      0x00\n        /* \"#utility.yul\":4552:4561   */\n      dup4\n        /* \"#utility.yul\":4548:4565   */\n      add\n        /* \"#utility.yul\":4541:4588   */\n      mstore\n        /* \"#utility.yul\":4605:4736   */\n      tag_222\n        /* \"#utility.yul\":4731:4735   */\n      dup2\n        /* \"#utility.yul\":4605:4736   */\n      tag_142\n      jump\t// in\n    tag_222:\n        /* \"#utility.yul\":4597:4736   */\n      swap1\n      pop\n        /* \"#utility.yul\":4324:4743   */\n      swap2\n      swap1\n      pop\n      jump\t// out\n        /* \"#utility.yul\":4749:4917   */\n    tag_143:\n        /* \"#utility.yul\":4889:4909   */\n      0x5461726765742069732072656163686564210000000000000000000000000000\n        /* \"#utility.yul\":4885:4886   */\n      0x00\n        /* \"#utility.yul\":4877:4883   */\n      dup3\n        /* \"#utility.yul\":4873:4887   */\n      add\n        /* \"#utility.yul\":4866:4910   */\n      mstore\n        /* \"#utility.yul\":4749:4917   */\n      pop\n      jump\t// out\n        /* \"#utility.yul\":4923:5289   */\n    tag_144:\n        /* \"#utility.yul\":5065:5068   */\n      0x00\n        /* \"#utility.yul\":5086:5153   */\n      tag_225\n        /* \"#utility.yul\":5150:5152   */\n      0x12\n        /* \"#utility.yul\":5145:5148   */\n      dup4\n        /* \"#utility.yul\":5086:5153   */\n      tag_140\n      jump\t// in\n    tag_225:\n        /* \"#utility.yul\":5079:5153   */\n      swap2\n      pop\n        /* \"#utility.yul\":5162:5255   */\n      tag_226\n        /* \"#utility.yul\":5251:5254   */\n      dup3\n        /* \"#utility.yul\":5162:5255   */\n      tag_143\n      jump\t// in\n    tag_226:\n        /* \"#utility.yul\":5280:5282   */\n      0x20\n        /* \"#utility.yul\":5275:5278   */\n      dup3\n        /* \"#utility.yul\":5271:5283   */\n      add\n        /* \"#utility.yul\":5264:5283   */\n      swap1\n      pop\n        /* \"#utility.yul\":4923:5289   */\n      swap2\n      swap1\n      pop\n      jump\t// out\n        /* \"#utility.yul\":5295:5714   */\n    tag_61:\n        /* \"#utility.yul\":5461:5465   */\n      0x00\n        /* \"#utility.yul\":5499:5501   */\n      0x20\n        /* \"#utility.yul\":5488:5497   */\n      dup3\n        /* \"#utility.yul\":5484:5502   */\n      add\n        /* \"#utility.yul\":5476:5502   */\n      swap1\n      pop\n        /* \"#utility.yul\":5548:5557   */\n      dup2\n        /* \"#utility.yul\":5542:5546   */\n      dup2\n        /* \"#utility.yul\":5538:5558   */\n      sub\n        /* \"#utility.yul\":5534:5535   */\n      0x00\n        /* \"#utility.yul\":5523:5532   */\n      dup4\n        /* \"#utility.yul\":5519:5536   */\n      add\n        /* \"#utility.yul\":5512:5559   */\n      mstore\n        /* \"#utility.yul\":5576:5707   */\n      tag_228\n        /* \"#utility.yul\":5702:5706   */\n      dup2\n        /* \"#utility.yul\":5576:5707   */\n      tag_144\n      jump\t// in\n    tag_228:\n        /* \"#utility.yul\":5568:5707   */\n      swap1\n      pop\n        /* \"#utility.yul\":5295:5714   */\n      swap2\n      swap1\n      pop\n      jump\t// out\n        /* \"#utility.yul\":5720:5894   */\n    tag_145:\n        /* \"#utility.yul\":5860:5886   */\n      0x5468657265206973206e6f2066756e6420666f7220796f750000000000000000\n        /* \"#utility.yul\":5856:5857   */\n      0x00\n        /* \"#utility.yul\":5848:5854   */\n      dup3\n        /* \"#utility.yul\":5844:5858   */\n      add\n        /* \"#utility.yul\":5837:5887   */\n      mstore\n        /* \"#utility.yul\":5720:5894   */\n      pop\n      jump\t// out\n        /* \"#utility.yul\":5900:6266   */\n    tag_146:\n        /* \"#utility.yul\":6042:6045   */\n      0x00\n        /* \"#utility.yul\":6063:6130   */\n      tag_231\n        /* \"#utility.yul\":6127:6129   */\n      0x18\n        /* \"#utility.yul\":6122:6125   */\n      dup4\n        /* \"#utility.yul\":6063:6130   */\n      tag_140\n      jump\t// in\n    tag_231:\n        /* \"#utility.yul\":6056:6130   */\n      swap2\n      pop\n        /* \"#utility.yul\":6139:6232   */\n      tag_232\n        /* \"#utility.yul\":6228:6231   */\n      dup3\n        /* \"#utility.yul\":6139:6232   */\n      tag_145\n      jump\t// in\n    tag_232:\n        /* \"#utility.yul\":6257:6259   */\n      0x20\n        /* \"#utility.yul\":6252:6255   */\n      dup3\n        /* \"#utility.yul\":6248:6260   */\n      add\n        /* \"#utility.yul\":6241:6260   */\n      swap1\n      pop\n        /* \"#utility.yul\":5900:6266   */\n      swap2\n      swap1\n      pop\n      jump\t// out\n        /* \"#utility.yul\":6272:6691   */\n    tag_64:\n        /* \"#utility.yul\":6438:6442   */\n      0x00\n        /* \"#utility.yul\":6476:6478   */\n      0x20\n        /* \"#utility.yul\":6465:6474   */\n      dup3\n        /* \"#utility.yul\":6461:6479   */\n      add\n        /* \"#utility.yul\":6453:6479   */\n      swap1\n      pop\n        /* \"#utility.yul\":6525:6534   */\n      dup2\n        /* \"#utility.yul\":6519:6523   */\n      dup2\n        /* \"#utility.yul\":6515:6535   */\n      sub\n        /* \"#utility.yul\":6511:6512   */\n      0x00\n        /* \"#utility.yul\":6500:6509   */\n      dup4\n        /* \"#utility.yul\":6496:6513   */\n      add\n        /* \"#utility.yul\":6489:6536   */\n      mstore\n        /* \"#utility.yul\":6553:6684   */\n      tag_234\n        /* \"#utility.yul\":6679:6683   */\n      dup2\n        /* \"#utility.yul\":6553:6684   */\n      tag_146\n      jump\t// in\n    tag_234:\n        /* \"#utility.yul\":6545:6684   */\n      swap1\n      pop\n        /* \"#utility.yul\":6272:6691   */\n      swap2\n      swap1\n      pop\n      jump\t// out\n        /* \"#utility.yul\":6697:6844   */\n    tag_147:\n        /* \"#utility.yul\":6798:6809   */\n      0x00\n        /* \"#utility.yul\":6835:6838   */\n      dup2\n        /* \"#utility.yul\":6820:6838   */\n      swap1\n      pop\n        /* \"#utility.yul\":6697:6844   */\n      swap3\n      swap2\n      pop\n      pop\n      jump\t// out\n        /* \"#utility.yul\":6850:6964   */\n    tag_148:\n      pop\n      jump\t// out\n        /* \"#utility.yul\":6970:7368   */\n    tag_149:\n        /* \"#utility.yul\":7129:7132   */\n      0x00\n        /* \"#utility.yul\":7150:7233   */\n      tag_238\n        /* \"#utility.yul\":7231:7232   */\n      0x00\n        /* \"#utility.yul\":7226:7229   */\n      dup4\n        /* \"#utility.yul\":7150:7233   */\n      tag_147\n      jump\t// in\n    tag_238:\n        /* \"#utility.yul\":7143:7233   */\n      swap2\n      pop\n        /* \"#utility.yul\":7242:7335   */\n      tag_239\n        /* \"#utility.yul\":7331:7334   */\n      dup3\n        /* \"#utility.yul\":7242:7335   */\n      tag_148\n      jump\t// in\n    tag_239:\n        /* \"#utility.yul\":7360:7361   */\n      0x00\n        /* \"#utility.yul\":7355:7358   */\n      dup3\n        /* \"#utility.yul\":7351:7362   */\n      add\n        /* \"#utility.yul\":7344:7362   */\n      swap1\n      pop\n        /* \"#utility.yul\":6970:7368   */\n      swap2\n      swap1\n      pop\n      jump\t// out\n        /* \"#utility.yul\":7374:7753   */\n    tag_66:\n        /* \"#utility.yul\":7558:7561   */\n      0x00\n        /* \"#utility.yul\":7580:7727   */\n      tag_241\n        /* \"#utility.yul\":7723:7726   */\n      dup3\n        /* \"#utility.yul\":7580:7727   */\n      tag_149\n      jump\t// in\n    tag_241:\n        /* \"#utility.yul\":7573:7727   */\n      swap2\n      pop\n        /* \"#utility.yul\":7744:7747   */\n      dup2\n        /* \"#utility.yul\":7737:7747   */\n      swap1\n      pop\n        /* \"#utility.yul\":7374:7753   */\n      swap2\n      swap1\n      pop\n      jump\t// out\n        /* \"#utility.yul\":7759:7927   */\n    tag_150:\n        /* \"#utility.yul\":7899:7919   */\n      0x5472616e73666572206973206661696c65640000000000000000000000000000\n        /* \"#utility.yul\":7895:7896   */\n      0x00\n        /* \"#utility.yul\":7887:7893   */\n      dup3\n        /* \"#utility.yul\":7883:7897   */\n      add\n        /* \"#utility.yul\":7876:7920   */\n      mstore\n        /* \"#utility.yul\":7759:7927   */\n      pop\n      jump\t// out\n        /* \"#utility.yul\":7933:8299   */\n    tag_151:\n        /* \"#utility.yul\":8075:8078   */\n      0x00\n        /* \"#utility.yul\":8096:8163   */\n      tag_244\n        /* \"#utility.yul\":8160:8162   */\n      0x12\n        /* \"#utility.yul\":8155:8158   */\n      dup4\n        /* \"#utility.yul\":8096:8163   */\n      tag_140\n      jump\t// in\n    tag_244:\n        /* \"#utility.yul\":8089:8163   */\n      swap2\n      pop\n        /* \"#utility.yul\":8172:8265   */\n      tag_245\n        /* \"#utility.yul\":8261:8264   */\n      dup3\n        /* \"#utility.yul\":8172:8265   */\n      tag_150\n      jump\t// in\n    tag_245:\n        /* \"#utility.yul\":8290:8292   */\n      0x20\n        /* \"#utility.yul\":8285:8288   */\n      dup3\n        /* \"#utility.yul\":8281:8293   */\n      add\n        /* \"#utility.yul\":8274:8293   */\n      swap1\n      pop\n        /* \"#utility.yul\":7933:8299   */\n      swap2\n      swap1\n      pop\n      jump\t// out\n        /* \"#utility.yul\":8305:8724   */\n    tag_72:\n        /* \"#utility.yul\":8471:8475   */\n      0x00\n        /* \"#utility.yul\":8509:8511   */\n      0x20\n        /* \"#utility.yul\":8498:8507   */\n      dup3\n        /* \"#utility.yul\":8494:8512   */\n      add\n        /* \"#utility.yul\":8486:8512   */\n      swap1\n      pop\n        /* \"#utility.yul\":8558:8567   */\n      dup2\n        /* \"#utility.yul\":8552:8556   */\n      dup2\n        /* \"#utility.yul\":8548:8568   */\n      sub\n        /* \"#utility.yul\":8544:8545   */\n      0x00\n        /* \"#utility.yul\":8533:8542   */\n      dup4\n        /* \"#utility.yul\":8529:8546   */\n      add\n        /* \"#utility.yul\":8522:8569   */\n      mstore\n        /* \"#utility.yul\":8586:8717   */\n      tag_247\n        /* \"#utility.yul\":8712:8716   */\n      dup2\n        /* \"#utility.yul\":8586:8717   */\n      tag_151\n      jump\t// in\n    tag_247:\n        /* \"#utility.yul\":8578:8717   */\n      swap1\n      pop\n        /* \"#utility.yul\":8305:8724   */\n      swap2\n      swap1\n      pop\n      jump\t// out\n        /* \"#utility.yul\":8730:8956   */\n    tag_152:\n        /* \"#utility.yul\":8870:8904   */\n      0x546869732066756e6374696f6e2063616e206f6e6c792062652063616c6c2062\n        /* \"#utility.yul\":8866:8867   */\n      0x00\n        /* \"#utility.yul\":8858:8864   */\n      dup3\n        /* \"#utility.yul\":8854:8868   */\n      add\n        /* \"#utility.yul\":8847:8905   */\n      mstore\n        /* \"#utility.yul\":8939:8948   */\n      0x79206f776e657200000000000000000000000000000000000000000000000000\n        /* \"#utility.yul\":8934:8936   */\n      0x20\n        /* \"#utility.yul\":8926:8932   */\n      dup3\n        /* \"#utility.yul\":8922:8937   */\n      add\n        /* \"#utility.yul\":8915:8949   */\n      mstore\n        /* \"#utility.yul\":8730:8956   */\n      pop\n      jump\t// out\n        /* \"#utility.yul\":8962:9328   */\n    tag_153:\n        /* \"#utility.yul\":9104:9107   */\n      0x00\n        /* \"#utility.yul\":9125:9192   */\n      tag_250\n        /* \"#utility.yul\":9189:9191   */\n      0x27\n        /* \"#utility.yul\":9184:9187   */\n      dup4\n        /* \"#utility.yul\":9125:9192   */\n      tag_140\n      jump\t// in\n    tag_250:\n        /* \"#utility.yul\":9118:9192   */\n      swap2\n      pop\n        /* \"#utility.yul\":9201:9294   */\n      tag_251\n        /* \"#utility.yul\":9290:9293   */\n      dup3\n        /* \"#utility.yul\":9201:9294   */\n      tag_152\n      jump\t// in\n    tag_251:\n        /* \"#utility.yul\":9319:9321   */\n      0x40\n        /* \"#utility.yul\":9314:9317   */\n      dup3\n        /* \"#utility.yul\":9310:9322   */\n      add\n        /* \"#utility.yul\":9303:9322   */\n      swap1\n      pop\n        /* \"#utility.yul\":8962:9328   */\n      swap2\n      swap1\n      pop\n      jump\t// out\n        /* \"#utility.yul\":9334:9753   */\n    tag_76:\n        /* \"#utility.yul\":9500:9504   */\n      0x00\n        /* \"#utility.yul\":9538:9540   */\n      0x20\n        /* \"#utility.yul\":9527:9536   */\n      dup3\n        /* \"#utility.yul\":9523:9541   */\n      add\n        /* \"#utility.yul\":9515:9541   */\n      swap1\n      pop\n        /* \"#utility.yul\":9587:9596   */\n      dup2\n        /* \"#utility.yul\":9581:9585   */\n      dup2\n        /* \"#utility.yul\":9577:9597   */\n      sub\n        /* \"#utility.yul\":9573:9574   */\n      0x00\n        /* \"#utility.yul\":9562:9571   */\n      dup4\n        /* \"#utility.yul\":9558:9575   */\n      add\n        /* \"#utility.yul\":9551:9598   */\n      mstore\n        /* \"#utility.yul\":9615:9746   */\n      tag_253\n        /* \"#utility.yul\":9741:9745   */\n      dup2\n        /* \"#utility.yul\":9615:9746   */\n      tag_153\n      jump\t// in\n    tag_253:\n        /* \"#utility.yul\":9607:9746   */\n      swap1\n      pop\n        /* \"#utility.yul\":9334:9753   */\n      swap2\n      swap1\n      pop\n      jump\t// out\n        /* \"#utility.yul\":9759:9931   */\n    tag_154:\n        /* \"#utility.yul\":9899:9923   */\n      0x546172676574206973206e6f7420726561636865642100000000000000000000\n        /* \"#utility.yul\":9895:9896   */\n      0x00\n        /* \"#utility.yul\":9887:9893   */\n      dup3\n        /* \"#utility.yul\":9883:9897   */\n      add\n        /* \"#utility.yul\":9876:9924   */\n      mstore\n        /* \"#utility.yul\":9759:9931   */\n      pop\n      jump\t// out\n        /* \"#utility.yul\":9937:10303   */\n    tag_155:\n        /* \"#utility.yul\":10079:10082   */\n      0x00\n        /* \"#utility.yul\":10100:10167   */\n      tag_256\n        /* \"#utility.yul\":10164:10166   */\n      0x16\n        /* \"#utility.yul\":10159:10162   */\n      dup4\n        /* \"#utility.yul\":10100:10167   */\n      tag_140\n      jump\t// in\n    tag_256:\n        /* \"#utility.yul\":10093:10167   */\n      swap2\n      pop\n        /* \"#utility.yul\":10176:10269   */\n      tag_257\n        /* \"#utility.yul\":10265:10268   */\n      dup3\n        /* \"#utility.yul\":10176:10269   */\n      tag_154\n      jump\t// in\n    tag_257:\n        /* \"#utility.yul\":10294:10296   */\n      0x20\n        /* \"#utility.yul\":10289:10292   */\n      dup3\n        /* \"#utility.yul\":10285:10297   */\n      add\n        /* \"#utility.yul\":10278:10297   */\n      swap1\n      pop\n        /* \"#utility.yul\":9937:10303   */\n      swap2\n      swap1\n      pop\n      jump\t// out\n        /* \"#utility.yul\":10309:10728   */\n    tag_93:\n        /* \"#utility.yul\":10475:10479   */\n      0x00\n        /* \"#utility.yul\":10513:10515   */\n      0x20\n        /* \"#utility.yul\":10502:10511   */\n      dup3\n        /* \"#utility.yul\":10498:10516   */\n      add\n        /* \"#utility.yul\":10490:10516   */\n      swap1\n      pop\n        /* \"#utility.yul\":10562:10571   */\n      dup2\n        /* \"#utility.yul\":10556:10560   */\n      dup2\n        /* \"#utility.yul\":10552:10572   */\n      sub\n        /* \"#utility.yul\":10548:10549   */\n      0x00\n        /* \"#utility.yul\":10537:10546   */\n      dup4\n        /* \"#utility.yul\":10533:10550   */\n      add\n        /* \"#utility.yul\":10526:10573   */\n      mstore\n        /* \"#utility.yul\":10590:10721   */\n      tag_259\n        /* \"#utility.yul\":10716:10720   */\n      dup2\n        /* \"#utility.yul\":10590:10721   */\n      tag_155\n      jump\t// in\n    tag_259:\n        /* \"#utility.yul\":10582:10721   */\n      swap1\n      pop\n        /* \"#utility.yul\":10309:10728   */\n      swap2\n      swap1\n      pop\n      jump\t// out\n        /* \"#utility.yul\":10734:10964   */\n    tag_156:\n        /* \"#utility.yul\":10874:10908   */\n      0x53656e64206d6f7265204554482c20546865206d696e696d756d204554482076\n        /* \"#utility.yul\":10870:10871   */\n      0x00\n        /* \"#utility.yul\":10862:10868   */\n      dup3\n        /* \"#utility.yul\":10858:10872   */\n      add\n        /* \"#utility.yul\":10851:10909   */\n      mstore\n        /* \"#utility.yul\":10943:10956   */\n      0x616c7565206973206f6e65000000000000000000000000000000000000000000\n        /* \"#utility.yul\":10938:10940   */\n      0x20\n        /* \"#utility.yul\":10930:10936   */\n      dup3\n        /* \"#utility.yul\":10926:10941   */\n      add\n        /* \"#utility.yul\":10919:10957   */\n      mstore\n        /* \"#utility.yul\":10734:10964   */\n      pop\n      jump\t// out\n        /* \"#utility.yul\":10970:11336   */\n    tag_157:\n        /* \"#utility.yul\":11112:11115   */\n      0x00\n        /* \"#utility.yul\":11133:11200   */\n      tag_262\n        /* \"#utility.yul\":11197:11199   */\n      0x2b\n        /* \"#utility.yul\":11192:11195   */\n      dup4\n        /* \"#utility.yul\":11133:11200   */\n      tag_140\n      jump\t// in\n    tag_262:\n        /* \"#utility.yul\":11126:11200   */\n      swap2\n      pop\n        /* \"#utility.yul\":11209:11302   */\n      tag_263\n        /* \"#utility.yul\":11298:11301   */\n      dup3\n        /* \"#utility.yul\":11209:11302   */\n      tag_156\n      jump\t// in\n    tag_263:\n        /* \"#utility.yul\":11327:11329   */\n      0x40\n        /* \"#utility.yul\":11322:11325   */\n      dup3\n        /* \"#utility.yul\":11318:11330   */\n      add\n        /* \"#utility.yul\":11311:11330   */\n      swap1\n      pop\n        /* \"#utility.yul\":10970:11336   */\n      swap2\n      swap1\n      pop\n      jump\t// out\n        /* \"#utility.yul\":11342:11761   */\n    tag_104:\n        /* \"#utility.yul\":11508:11512   */\n      0x00\n        /* \"#utility.yul\":11546:11548   */\n      0x20\n        /* \"#utility.yul\":11535:11544   */\n      dup3\n        /* \"#utility.yul\":11531:11549   */\n      add\n        /* \"#utility.yul\":11523:11549   */\n      swap1\n      pop\n        /* \"#utility.yul\":11595:11604   */\n      dup2\n        /* \"#utility.yul\":11589:11593   */\n      dup2\n        /* \"#utility.yul\":11585:11605   */\n      sub\n        /* \"#utility.yul\":11581:11582   */\n      0x00\n        /* \"#utility.yul\":11570:11579   */\n      dup4\n        /* \"#utility.yul\":11566:11583   */\n      add\n        /* \"#utility.yul\":11559:11606   */\n      mstore\n        /* \"#utility.yul\":11623:11754   */\n      tag_265\n        /* \"#utility.yul\":11749:11753   */\n      dup2\n        /* \"#utility.yul\":11623:11754   */\n      tag_157\n      jump\t// in\n    tag_265:\n        /* \"#utility.yul\":11615:11754   */\n      swap1\n      pop\n        /* \"#utility.yul\":11342:11761   */\n      swap2\n      swap1\n      pop\n      jump\t// out\n        /* \"#utility.yul\":11767:11933   */\n    tag_158:\n        /* \"#utility.yul\":11907:11925   */\n      0x57696e646f7720697320636c6f73656400000000000000000000000000000000\n        /* \"#utility.yul\":11903:11904   */\n      0x00\n        /* \"#utility.yul\":11895:11901   */\n      dup3\n        /* \"#utility.yul\":11891:11905   */\n      add\n        /* \"#utility.yul\":11884:11926   */\n      mstore\n        /* \"#utility.yul\":11767:11933   */\n      pop\n      jump\t// out\n        /* \"#utility.yul\":11939:12305   */\n    tag_159:\n        /* \"#utility.yul\":12081:12084   */\n      0x00\n        /* \"#utility.yul\":12102:12169   */\n      tag_268\n        /* \"#utility.yul\":12166:12168   */\n      0x10\n        /* \"#utility.yul\":12161:12164   */\n      dup4\n        /* \"#utility.yul\":12102:12169   */\n      tag_140\n      jump\t// in\n    tag_268:\n        /* \"#utility.yul\":12095:12169   */\n      swap2\n      pop\n        /* \"#utility.yul\":12178:12271   */\n      tag_269\n        /* \"#utility.yul\":12267:12270   */\n      dup3\n        /* \"#utility.yul\":12178:12271   */\n      tag_158\n      jump\t// in\n    tag_269:\n        /* \"#utility.yul\":12296:12298   */\n      0x20\n        /* \"#utility.yul\":12291:12294   */\n      dup3\n        /* \"#utility.yul\":12287:12299   */\n      add\n        /* \"#utility.yul\":12280:12299   */\n      swap1\n      pop\n        /* \"#utility.yul\":11939:12305   */\n      swap2\n      swap1\n      pop\n      jump\t// out\n        /* \"#utility.yul\":12311:12730   */\n    tag_108:\n        /* \"#utility.yul\":12477:12481   */\n      0x00\n        /* \"#utility.yul\":12515:12517   */\n      0x20\n        /* \"#utility.yul\":12504:12513   */\n      dup3\n        /* \"#utility.yul\":12500:12518   */\n      add\n        /* \"#utility.yul\":12492:12518   */\n      swap1\n      pop\n        /* \"#utility.yul\":12564:12573   */\n      dup2\n        /* \"#utility.yul\":12558:12562   */\n      dup2\n        /* \"#utility.yul\":12554:12574   */\n      sub\n        /* \"#utility.yul\":12550:12551   */\n      0x00\n        /* \"#utility.yul\":12539:12548   */\n      dup4\n        /* \"#utility.yul\":12535:12552   */\n      add\n        /* \"#utility.yul\":12528:12575   */\n      mstore\n        /* \"#utility.yul\":12592:12723   */\n      tag_271\n        /* \"#utility.yul\":12718:12722   */\n      dup2\n        /* \"#utility.yul\":12592:12723   */\n      tag_159\n      jump\t// in\n    tag_271:\n        /* \"#utility.yul\":12584:12723   */\n      swap1\n      pop\n        /* \"#utility.yul\":12311:12730   */\n      swap2\n      swap1\n      pop\n      jump\t// out\n        /* \"#utility.yul\":12736:12841   */\n    tag_160:\n        /* \"#utility.yul\":12772:12779   */\n      0x00\n        /* \"#utility.yul\":12812:12834   */\n      0xffffffffffffffffffff\n        /* \"#utility.yul\":12805:12810   */\n      dup3\n        /* \"#utility.yul\":12801:12835   */\n      and\n        /* \"#utility.yul\":12790:12835   */\n      swap1\n      pop\n        /* \"#utility.yul\":12736:12841   */\n      swap2\n      swap1\n      pop\n      jump\t// out\n        /* \"#utility.yul\":12847:12967   */\n    tag_161:\n        /* \"#utility.yul\":12919:12942   */\n      tag_274\n        /* \"#utility.yul\":12936:12941   */\n      dup2\n        /* \"#utility.yul\":12919:12942   */\n      tag_160\n      jump\t// in\n    tag_274:\n        /* \"#utility.yul\":12912:12917   */\n      dup2\n        /* \"#utility.yul\":12909:12943   */\n      eq\n        /* \"#utility.yul\":12899:12961   */\n      tag_275\n      jumpi\n        /* \"#utility.yul\":12957:12958   */\n      0x00\n        /* \"#utility.yul\":12954:12955   */\n      dup1\n        /* \"#utility.yul\":12947:12959   */\n      revert\n        /* \"#utility.yul\":12899:12961   */\n    tag_275:\n        /* \"#utility.yul\":12847:12967   */\n      pop\n      jump\t// out\n        /* \"#utility.yul\":12973:13114   */\n    tag_162:\n        /* \"#utility.yul\":13029:13034   */\n      0x00\n        /* \"#utility.yul\":13060:13066   */\n      dup2\n        /* \"#utility.yul\":13054:13067   */\n      mload\n        /* \"#utility.yul\":13045:13067   */\n      swap1\n      pop\n        /* \"#utility.yul\":13076:13108   */\n      tag_277\n        /* \"#utility.yul\":13102:13107   */\n      dup2\n        /* \"#utility.yul\":13076:13108   */\n      tag_161\n      jump\t// in\n    tag_277:\n        /* \"#utility.yul\":12973:13114   */\n      swap3\n      swap2\n      pop\n      pop\n      jump\t// out\n        /* \"#utility.yul\":13120:13240   */\n    tag_163:\n        /* \"#utility.yul\":13192:13215   */\n      tag_279\n        /* \"#utility.yul\":13209:13214   */\n      dup2\n        /* \"#utility.yul\":13192:13215   */\n      tag_133\n      jump\t// in\n    tag_279:\n        /* \"#utility.yul\":13185:13190   */\n      dup2\n        /* \"#utility.yul\":13182:13216   */\n      eq\n        /* \"#utility.yul\":13172:13234   */\n      tag_280\n      jumpi\n        /* \"#utility.yul\":13230:13231   */\n      0x00\n        /* \"#utility.yul\":13227:13228   */\n      dup1\n        /* \"#utility.yul\":13220:13232   */\n      revert\n        /* \"#utility.yul\":13172:13234   */\n    tag_280:\n        /* \"#utility.yul\":13120:13240   */\n      pop\n      jump\t// out\n        /* \"#utility.yul\":13246:13387   */\n    tag_164:\n        /* \"#utility.yul\":13302:13307   */\n      0x00\n        /* \"#utility.yul\":13333:13339   */\n      dup2\n        /* \"#utility.yul\":13327:13340   */\n      mload\n        /* \"#utility.yul\":13318:13340   */\n      swap1\n      pop\n        /* \"#utility.yul\":13349:13381   */\n      tag_282\n        /* \"#utility.yul\":13375:13380   */\n      dup2\n        /* \"#utility.yul\":13349:13381   */\n      tag_163\n      jump\t// in\n    tag_282:\n        /* \"#utility.yul\":13246:13387   */\n      swap3\n      swap2\n      pop\n      pop\n      jump\t// out\n        /* \"#utility.yul\":13393:13536   */\n    tag_165:\n        /* \"#utility.yul\":13450:13455   */\n      0x00\n        /* \"#utility.yul\":13481:13487   */\n      dup2\n        /* \"#utility.yul\":13475:13488   */\n      mload\n        /* \"#utility.yul\":13466:13488   */\n      swap1\n      pop\n        /* \"#utility.yul\":13497:13530   */\n      tag_284\n        /* \"#utility.yul\":13524:13529   */\n      dup2\n        /* \"#utility.yul\":13497:13530   */\n      tag_135\n      jump\t// in\n    tag_284:\n        /* \"#utility.yul\":13393:13536   */\n      swap3\n      swap2\n      pop\n      pop\n      jump\t// out\n        /* \"#utility.yul\":13542:14513   */\n    tag_113:\n        /* \"#utility.yul\":13645:13651   */\n      0x00\n        /* \"#utility.yul\":13653:13659   */\n      dup1\n        /* \"#utility.yul\":13661:13667   */\n      0x00\n        /* \"#utility.yul\":13669:13675   */\n      dup1\n        /* \"#utility.yul\":13677:13683   */\n      0x00\n        /* \"#utility.yul\":13726:13729   */\n      0xa0\n        /* \"#utility.yul\":13714:13723   */\n      dup7\n        /* \"#utility.yul\":13705:13712   */\n      dup9\n        /* \"#utility.yul\":13701:13724   */\n      sub\n        /* \"#utility.yul\":13697:13730   */\n      slt\n        /* \"#utility.yul\":13694:13814   */\n      iszero\n      tag_286\n      jumpi\n        /* \"#utility.yul\":13733:13812   */\n      tag_287\n      tag_125\n      jump\t// in\n    tag_287:\n        /* \"#utility.yul\":13694:13814   */\n    tag_286:\n        /* \"#utility.yul\":13853:13854   */\n      0x00\n        /* \"#utility.yul\":13878:13941   */\n      tag_288\n        /* \"#utility.yul\":13933:13940   */\n      dup9\n        /* \"#utility.yul\":13924:13930   */\n      dup3\n        /* \"#utility.yul\":13913:13922   */\n      dup10\n        /* \"#utility.yul\":13909:13931   */\n      add\n        /* \"#utility.yul\":13878:13941   */\n      tag_162\n      jump\t// in\n    tag_288:\n        /* \"#utility.yul\":13868:13941   */\n      swap6\n      pop\n        /* \"#utility.yul\":13824:13951   */\n      pop\n        /* \"#utility.yul\":13990:13992   */\n      0x20\n        /* \"#utility.yul\":14016:14079   */\n      tag_289\n        /* \"#utility.yul\":14071:14078   */\n      dup9\n        /* \"#utility.yul\":14062:14068   */\n      dup3\n        /* \"#utility.yul\":14051:14060   */\n      dup10\n        /* \"#utility.yul\":14047:14069   */\n      add\n        /* \"#utility.yul\":14016:14079   */\n      tag_164\n      jump\t// in\n    tag_289:\n        /* \"#utility.yul\":14006:14079   */\n      swap5\n      pop\n        /* \"#utility.yul\":13961:14089   */\n      pop\n        /* \"#utility.yul\":14128:14130   */\n      0x40\n        /* \"#utility.yul\":14154:14218   */\n      tag_290\n        /* \"#utility.yul\":14210:14217   */\n      dup9\n        /* \"#utility.yul\":14201:14207   */\n      dup3\n        /* \"#utility.yul\":14190:14199   */\n      dup10\n        /* \"#utility.yul\":14186:14208   */\n      add\n        /* \"#utility.yul\":14154:14218   */\n      tag_165\n      jump\t// in\n    tag_290:\n        /* \"#utility.yul\":14144:14218   */\n      swap4\n      pop\n        /* \"#utility.yul\":14099:14228   */\n      pop\n        /* \"#utility.yul\":14267:14269   */\n      0x60\n        /* \"#utility.yul\":14293:14357   */\n      tag_291\n        /* \"#utility.yul\":14349:14356   */\n      dup9\n        /* \"#utility.yul\":14340:14346   */\n      dup3\n        /* \"#utility.yul\":14329:14338   */\n      dup10\n        /* \"#utility.yul\":14325:14347   */\n      add\n        /* \"#utility.yul\":14293:14357   */\n      tag_165\n      jump\t// in\n    tag_291:\n        /* \"#utility.yul\":14283:14357   */\n      swap3\n      pop\n        /* \"#utility.yul\":14238:14367   */\n      pop\n        /* \"#utility.yul\":14406:14409   */\n      0x80\n        /* \"#utility.yul\":14433:14496   */\n      tag_292\n        /* \"#utility.yul\":14488:14495   */\n      dup9\n        /* \"#utility.yul\":14479:14485   */\n      dup3\n        /* \"#utility.yul\":14468:14477   */\n      dup10\n        /* \"#utility.yul\":14464:14486   */\n      add\n        /* \"#utility.yul\":14433:14496   */\n      tag_162\n      jump\t// in\n    tag_292:\n        /* \"#utility.yul\":14423:14496   */\n      swap2\n      pop\n        /* \"#utility.yul\":14377:14506   */\n      pop\n        /* \"#utility.yul\":13542:14513   */\n      swap3\n      swap6\n      pop\n      swap3\n      swap6\n      swap1\n      swap4\n      pop\n      jump\t// out\n        /* \"#utility.yul\":14519:14754   */\n    tag_166:\n        /* \"#utility.yul\":14659:14693   */\n      0x796f7520646f206e6f742068617665207065726d697373696f6e20746f206361\n        /* \"#utility.yul\":14655:14656   */\n      0x00\n        /* \"#utility.yul\":14647:14653   */\n      dup3\n        /* \"#utility.yul\":14643:14657   */\n      add\n        /* \"#utility.yul\":14636:14694   */\n      mstore\n        /* \"#utility.yul\":14728:14746   */\n      0x6c6c20746869732066756e6374696f6e00000000000000000000000000000000\n        /* \"#utility.yul\":14723:14725   */\n      0x20\n        /* \"#utility.yul\":14715:14721   */\n      dup3\n        /* \"#utility.yul\":14711:14726   */\n      add\n        /* \"#utility.yul\":14704:14747   */\n      mstore\n        /* \"#utility.yul\":14519:14754   */\n      pop\n      jump\t// out\n        /* \"#utility.yul\":14760:15126   */\n    tag_167:\n        /* \"#utility.yul\":14902:14905   */\n      0x00\n        /* \"#utility.yul\":14923:14990   */\n      tag_295\n        /* \"#utility.yul\":14987:14989   */\n      0x30\n        /* \"#utility.yul\":14982:14985   */\n      dup4\n        /* \"#utility.yul\":14923:14990   */\n      tag_140\n      jump\t// in\n    tag_295:\n        /* \"#utility.yul\":14916:14990   */\n      swap2\n      pop\n        /* \"#utility.yul\":14999:15092   */\n      tag_296\n        /* \"#utility.yul\":15088:15091   */\n      dup3\n        /* \"#utility.yul\":14999:15092   */\n      tag_166\n      jump\t// in\n    tag_296:\n        /* \"#utility.yul\":15117:15119   */\n      0x40\n        /* \"#utility.yul\":15112:15115   */\n      dup3\n        /* \"#utility.yul\":15108:15120   */\n      add\n        /* \"#utility.yul\":15101:15120   */\n      swap1\n      pop\n        /* \"#utility.yul\":14760:15126   */\n      swap2\n      swap1\n      pop\n      jump\t// out\n        /* \"#utility.yul\":15132:15551   */\n    tag_117:\n        /* \"#utility.yul\":15298:15302   */\n      0x00\n        /* \"#utility.yul\":15336:15338   */\n      0x20\n        /* \"#utility.yul\":15325:15334   */\n      dup3\n        /* \"#utility.yul\":15321:15339   */\n      add\n        /* \"#utility.yul\":15313:15339   */\n      swap1\n      pop\n        /* \"#utility.yul\":15385:15394   */\n      dup2\n        /* \"#utility.yul\":15379:15383   */\n      dup2\n        /* \"#utility.yul\":15375:15395   */\n      sub\n        /* \"#utility.yul\":15371:15372   */\n      0x00\n        /* \"#utility.yul\":15360:15369   */\n      dup4\n        /* \"#utility.yul\":15356:15373   */\n      add\n        /* \"#utility.yul\":15349:15396   */\n      mstore\n        /* \"#utility.yul\":15413:15544   */\n      tag_298\n        /* \"#utility.yul\":15539:15543   */\n      dup2\n        /* \"#utility.yul\":15413:15544   */\n      tag_167\n      jump\t// in\n    tag_298:\n        /* \"#utility.yul\":15405:15544   */\n      swap1\n      pop\n        /* \"#utility.yul\":15132:15551   */\n      swap2\n      swap1\n      pop\n      jump\t// out\n        /* \"#utility.yul\":15557:15967   */\n    tag_121:\n        /* \"#utility.yul\":15597:15604   */\n      0x00\n        /* \"#utility.yul\":15620:15640   */\n      tag_300\n        /* \"#utility.yul\":15638:15639   */\n      dup3\n        /* \"#utility.yul\":15620:15640   */\n      tag_131\n      jump\t// in\n    tag_300:\n        /* \"#utility.yul\":15615:15640   */\n      swap2\n      pop\n        /* \"#utility.yul\":15654:15674   */\n      tag_301\n        /* \"#utility.yul\":15672:15673   */\n      dup4\n        /* \"#utility.yul\":15654:15674   */\n      tag_131\n      jump\t// in\n    tag_301:\n        /* \"#utility.yul\":15649:15674   */\n      swap3\n      pop\n        /* \"#utility.yul\":15709:15710   */\n      dup3\n        /* \"#utility.yul\":15706:15707   */\n      dup3\n        /* \"#utility.yul\":15702:15711   */\n      mul\n        /* \"#utility.yul\":15731:15761   */\n      tag_302\n        /* \"#utility.yul\":15749:15760   */\n      dup2\n        /* \"#utility.yul\":15731:15761   */\n      tag_131\n      jump\t// in\n    tag_302:\n        /* \"#utility.yul\":15720:15761   */\n      swap2\n      pop\n        /* \"#utility.yul\":15910:15911   */\n      dup3\n        /* \"#utility.yul\":15901:15908   */\n      dup3\n        /* \"#utility.yul\":15897:15912   */\n      div\n        /* \"#utility.yul\":15894:15895   */\n      dup5\n        /* \"#utility.yul\":15891:15913   */\n      eq\n        /* \"#utility.yul\":15871:15872   */\n      dup4\n        /* \"#utility.yul\":15864:15873   */\n      iszero\n        /* \"#utility.yul\":15844:15927   */\n      or\n        /* \"#utility.yul\":15821:15960   */\n      tag_303\n      jumpi\n        /* \"#utility.yul\":15940:15958   */\n      tag_304\n      tag_139\n      jump\t// in\n    tag_304:\n        /* \"#utility.yul\":15821:15960   */\n    tag_303:\n        /* \"#utility.yul\":15605:15967   */\n      pop\n        /* \"#utility.yul\":15557:15967   */\n      swap3\n      swap2\n      pop\n      pop\n      jump\t// out\n        /* \"#utility.yul\":15973:16153   */\n    tag_168:\n        /* \"#utility.yul\":16021:16098   */\n      0x4e487b7100000000000000000000000000000000000000000000000000000000\n        /* \"#utility.yul\":16018:16019   */\n      0x00\n        /* \"#utility.yul\":16011:16099   */\n      mstore\n        /* \"#utility.yul\":16118:16122   */\n      0x12\n        /* \"#utility.yul\":16115:16116   */\n      0x04\n        /* \"#utility.yul\":16108:16123   */\n      mstore\n        /* \"#utility.yul\":16142:16146   */\n      0x24\n        /* \"#utility.yul\":16139:16140   */\n      0x00\n        /* \"#utility.yul\":16132:16147   */\n      revert\n        /* \"#utility.yul\":16159:16344   */\n    tag_123:\n        /* \"#utility.yul\":16199:16200   */\n      0x00\n        /* \"#utility.yul\":16216:16236   */\n      tag_307\n        /* \"#utility.yul\":16234:16235   */\n      dup3\n        /* \"#utility.yul\":16216:16236   */\n      tag_131\n      jump\t// in\n    tag_307:\n        /* \"#utility.yul\":16211:16236   */\n      swap2\n      pop\n        /* \"#utility.yul\":16250:16270   */\n      tag_308\n        /* \"#utility.yul\":16268:16269   */\n      dup4\n        /* \"#utility.yul\":16250:16270   */\n      tag_131\n      jump\t// in\n    tag_308:\n        /* \"#utility.yul\":16245:16270   */\n      swap3\n      pop\n        /* \"#utility.yul\":16289:16290   */\n      dup3\n        /* \"#utility.yul\":16279:16314   */\n      tag_309\n      jumpi\n        /* \"#utility.yul\":16294:16312   */\n      tag_310\n      tag_168\n      jump\t// in\n    tag_310:\n        /* \"#utility.yul\":16279:16314   */\n    tag_309:\n        /* \"#utility.yul\":16336:16337   */\n      dup3\n        /* \"#utility.yul\":16333:16334   */\n      dup3\n        /* \"#utility.yul\":16329:16338   */\n      div\n        /* \"#utility.yul\":16324:16338   */\n      swap1\n      pop\n        /* \"#utility.yul\":16159:16344   */\n      swap3\n      swap2\n      pop\n      pop\n      jump\t// out\n\n    auxdata: 0xa26469706673582212205d2a1b897f59e2c1e72b1be7a88821ddc4a8b1f43a4ed98c209725b27f05d4a364736f6c634300081a0033\n}\n",
				"bytecode": {
					"linkReferences": {},
					"object": "60806040525f600460146101000a81548160ff021916908315150217905550348015610029575f80fd5b506040516113cf3803806113cf833981810160405281019061004b919061012a565b73694aa1769357215de4fac081bf1f309adc32530660055f6101000a81548173ffffffffffffffffffffffffffffffffffffffff021916908373ffffffffffffffffffffffffffffffffffffffff1602179055503360015f6101000a81548173ffffffffffffffffffffffffffffffffffffffff021916908373ffffffffffffffffffffffffffffffffffffffff160217905550426002819055508060038190555050610155565b5f80fd5b5f819050919050565b610109816100f7565b8114610113575f80fd5b50565b5f8151905061012481610100565b92915050565b5f6020828403121561013f5761013e6100f3565b5b5f61014c84828501610116565b91505092915050565b61126d806101625f395ff3fe608060405260043610610085575f3560e01c80639f883a05116100585780639f883a0514610105578063b60d428814610141578063bea4dfb51461014b578063d39cf00614610175578063da4658e01461019d57610085565b8063590e1ae314610089578063648c29101461009f5780638863dd1a146100c75780638edd6eb6146100ef575b5f80fd5b348015610094575f80fd5b5061009d6101c7565b005b3480156100aa575f80fd5b506100c560048036038101906100c09190610ab2565b61040c565b005b3480156100d2575f80fd5b506100ed60048036038101906100e89190610ab2565b6104de565b005b3480156100fa575f80fd5b506101036105b0565b005b348015610110575f80fd5b5061012b60048036038101906101269190610ab2565b6107a5565b6040516101389190610af5565b60405180910390f35b6101496107b9565b005b348015610156575f80fd5b5061015f6108a1565b60405161016c9190610b26565b60405180910390f35b348015610180575f80fd5b5061019b60048036038101906101969190610b69565b61093e565b005b3480156101a8575f80fd5b506101b1610a12565b6040516101be9190610bc1565b60405180910390f35b6003546002546101d79190610c07565b421015610219576040517f08c379a000000000000000000000000000000000000000000000000000000000815260040161021090610c94565b60405180910390fd5b60c861022447610a25565b10610264576040517f08c379a000000000000000000000000000000000000000000000000000000000815260040161025b90610cfc565b60405180910390fd5b5f805f3373ffffffffffffffffffffffffffffffffffffffff1673ffffffffffffffffffffffffffffffffffffffff1681526020019081526020015f2054036102e2576040517f08c379a00000000000000000000000000000000000000000000000000000000081526004016102d990610d64565b60405180910390fd5b5f3373ffffffffffffffffffffffffffffffffffffffff165f803373ffffffffffffffffffffffffffffffffffffffff1673ffffffffffffffffffffffffffffffffffffffff1681526020019081526020015f205460405161034390610daf565b5f6040518083038185875af1925050503d805f811461037d576040519150601f19603f3d011682016040523d82523d5f602084013e610382565b606091505b505080915050806103c8576040517f08c379a00000000000000000000000000000000000000000000000000000000081526004016103bf90610e0d565b60405180910390fd5b5f805f3373ffffffffffffffffffffffffffffffffffffffff1673ffffffffffffffffffffffffffffffffffffffff1681526020019081526020015f208190555050565b60015f9054906101000a900473ffffffffffffffffffffffffffffffffffffffff1673ffffffffffffffffffffffffffffffffffffffff163373ffffffffffffffffffffffffffffffffffffffff161461049b576040517f08c379a000000000000000000000000000000000000000000000000000000000815260040161049290610e9b565b60405180910390fd5b8060045f6101000a81548173ffffffffffffffffffffffffffffffffffffffff021916908373ffffffffffffffffffffffffffffffffffffffff16021790555050565b60015f9054906101000a900473ffffffffffffffffffffffffffffffffffffffff1673ffffffffffffffffffffffffffffffffffffffff163373ffffffffffffffffffffffffffffffffffffffff161461056d576040517f08c379a000000000000000000000000000000000000000000000000000000000815260040161056490610e9b565b60405180910390fd5b8060015f6101000a81548173ffffffffffffffffffffffffffffffffffffffff021916908373ffffffffffffffffffffffffffffffffffffffff16021790555050565b6003546002546105c09190610c07565b421015610602576040517f08c379a00000000000000000000000000000000000000000000000000000000081526004016105f990610c94565b60405180910390fd5b60015f9054906101000a900473ffffffffffffffffffffffffffffffffffffffff1673ffffffffffffffffffffffffffffffffffffffff163373ffffffffffffffffffffffffffffffffffffffff1614610691576040517f08c379a000000000000000000000000000000000000000000000000000000000815260040161068890610e9b565b60405180910390fd5b60c861069c47610a25565b10156106dd576040517f08c379a00000000000000000000000000000000000000000000000000000000081526004016106d490610f03565b60405180910390fd5b5f3373ffffffffffffffffffffffffffffffffffffffff164760405161070290610daf565b5f6040518083038185875af1925050503d805f811461073c576040519150601f19603f3d011682016040523d82523d5f602084013e610741565b606091505b50508091505080610787576040517f08c379a000000000000000000000000000000000000000000000000000000000815260040161077e90610e0d565b60405180910390fd5b6001600460146101000a81548160ff02191690831515021790555050565b5f602052805f5260405f205f915090505481565b68056bc75e2d631000006107cc34610a25565b101561080d576040517f08c379a000000000000000000000000000000000000000000000000000000000815260040161080490610f91565b60405180910390fd5b60035460025461081d9190610c07565b421061085e576040517f08c379a000000000000000000000000000000000000000000000000000000000815260040161085590610ff9565b60405180910390fd5b345f803373ffffffffffffffffffffffffffffffffffffffff1673ffffffffffffffffffffffffffffffffffffffff1681526020019081526020015f2081905550565b5f8060055f9054906101000a900473ffffffffffffffffffffffffffffffffffffffff1673ffffffffffffffffffffffffffffffffffffffff1663feaf968c6040518163ffffffff1660e01b815260040160a060405180830381865afa15801561090d573d5f803e3d5ffd5b505050506040513d601f19601f820116820180604052508101906109319190611094565b5050509150508091505090565b60045f9054906101000a900473ffffffffffffffffffffffffffffffffffffffff1673ffffffffffffffffffffffffffffffffffffffff163373ffffffffffffffffffffffffffffffffffffffff16146109cd576040517f08c379a00000000000000000000000000000000000000000000000000000000081526004016109c49061117b565b60405180910390fd5b805f808473ffffffffffffffffffffffffffffffffffffffff1673ffffffffffffffffffffffffffffffffffffffff1681526020019081526020015f20819055505050565b600460149054906101000a900460ff1681565b5f80610a2f6108a1565b90506305f5e1008184610a429190611199565b610a4c9190611207565b915050919050565b5f80fd5b5f73ffffffffffffffffffffffffffffffffffffffff82169050919050565b5f610a8182610a58565b9050919050565b610a9181610a77565b8114610a9b575f80fd5b50565b5f81359050610aac81610a88565b92915050565b5f60208284031215610ac757610ac6610a54565b5b5f610ad484828501610a9e565b91505092915050565b5f819050919050565b610aef81610add565b82525050565b5f602082019050610b085f830184610ae6565b92915050565b5f819050919050565b610b2081610b0e565b82525050565b5f602082019050610b395f830184610b17565b92915050565b610b4881610add565b8114610b52575f80fd5b50565b5f81359050610b6381610b3f565b92915050565b5f8060408385031215610b7f57610b7e610a54565b5b5f610b8c85828601610a9e565b9250506020610b9d85828601610b55565b9150509250929050565b5f8115159050919050565b610bbb81610ba7565b82525050565b5f602082019050610bd45f830184610bb2565b92915050565b7f4e487b71000000000000000000000000000000000000000000000000000000005f52601160045260245ffd5b5f610c1182610add565b9150610c1c83610add565b9250828201905080821115610c3457610c33610bda565b5b92915050565b5f82825260208201905092915050565b7f57696e646f77206973206e6f7420636c6f7365640000000000000000000000005f82015250565b5f610c7e601483610c3a565b9150610c8982610c4a565b602082019050919050565b5f6020820190508181035f830152610cab81610c72565b9050919050565b7f54617267657420697320726561636865642100000000000000000000000000005f82015250565b5f610ce6601283610c3a565b9150610cf182610cb2565b602082019050919050565b5f6020820190508181035f830152610d1381610cda565b9050919050565b7f5468657265206973206e6f2066756e6420666f7220796f7500000000000000005f82015250565b5f610d4e601883610c3a565b9150610d5982610d1a565b602082019050919050565b5f6020820190508181035f830152610d7b81610d42565b9050919050565b5f81905092915050565b50565b5f610d9a5f83610d82565b9150610da582610d8c565b5f82019050919050565b5f610db982610d8f565b9150819050919050565b7f5472616e73666572206973206661696c656400000000000000000000000000005f82015250565b5f610df7601283610c3a565b9150610e0282610dc3565b602082019050919050565b5f6020820190508181035f830152610e2481610deb565b9050919050565b7f546869732066756e6374696f6e2063616e206f6e6c792062652063616c6c20625f8201527f79206f776e657200000000000000000000000000000000000000000000000000602082015250565b5f610e85602783610c3a565b9150610e9082610e2b565b604082019050919050565b5f6020820190508181035f830152610eb281610e79565b9050919050565b7f546172676574206973206e6f74207265616368656421000000000000000000005f82015250565b5f610eed601683610c3a565b9150610ef882610eb9565b602082019050919050565b5f6020820190508181035f830152610f1a81610ee1565b9050919050565b7f53656e64206d6f7265204554482c20546865206d696e696d756d2045544820765f8201527f616c7565206973206f6e65000000000000000000000000000000000000000000602082015250565b5f610f7b602b83610c3a565b9150610f8682610f21565b604082019050919050565b5f6020820190508181035f830152610fa881610f6f565b9050919050565b7f57696e646f7720697320636c6f736564000000000000000000000000000000005f82015250565b5f610fe3601083610c3a565b9150610fee82610faf565b602082019050919050565b5f6020820190508181035f83015261101081610fd7565b9050919050565b5f69ffffffffffffffffffff82169050919050565b61103581611017565b811461103f575f80fd5b50565b5f815190506110508161102c565b92915050565b61105f81610b0e565b8114611069575f80fd5b50565b5f8151905061107a81611056565b92915050565b5f8151905061108e81610b3f565b92915050565b5f805f805f60a086880312156110ad576110ac610a54565b5b5f6110ba88828901611042565b95505060206110cb8882890161106c565b94505060406110dc88828901611080565b93505060606110ed88828901611080565b92505060806110fe88828901611042565b9150509295509295909350565b7f796f7520646f206e6f742068617665207065726d697373696f6e20746f2063615f8201527f6c6c20746869732066756e6374696f6e00000000000000000000000000000000602082015250565b5f611165603083610c3a565b91506111708261110b565b604082019050919050565b5f6020820190508181035f83015261119281611159565b9050919050565b5f6111a382610add565b91506111ae83610add565b92508282026111bc81610add565b915082820484148315176111d3576111d2610bda565b5b5092915050565b7f4e487b71000000000000000000000000000000000000000000000000000000005f52601260045260245ffd5b5f61121182610add565b915061121c83610add565b92508261122c5761122b6111da565b5b82820490509291505056fea26469706673582212205d2a1b897f59e2c1e72b1be7a88821ddc4a8b1f43a4ed98c209725b27f05d4a364736f6c634300081a0033",
					"opcodes": "PUSH1 0x80 PUSH1 0x40 MSTORE PUSH0 PUSH1 0x4 PUSH1 0x14 PUSH2 0x100 EXP DUP2 SLOAD DUP2 PUSH1 0xFF MUL NOT AND SWAP1 DUP4 ISZERO ISZERO MUL OR SWAP1 SSTORE POP CALLVALUE DUP1 ISZERO PUSH2 0x29 JUMPI PUSH0 DUP1 REVERT JUMPDEST POP PUSH1 0x40 MLOAD PUSH2 0x13CF CODESIZE SUB DUP1 PUSH2 0x13CF DUP4 CODECOPY DUP2 DUP2 ADD PUSH1 0x40 MSTORE DUP2 ADD SWAP1 PUSH2 0x4B SWAP2 SWAP1 PUSH2 0x12A JUMP JUMPDEST PUSH20 0x694AA1769357215DE4FAC081BF1F309ADC325306 PUSH1 0x5 PUSH0 PUSH2 0x100 EXP DUP2 SLOAD DUP2 PUSH20 0xFFFFFFFFFFFFFFFFFFFFFFFFFFFFFFFFFFFFFFFF MUL NOT AND SWAP1 DUP4 PUSH20 0xFFFFFFFFFFFFFFFFFFFFFFFFFFFFFFFFFFFFFFFF AND MUL OR SWAP1 SSTORE POP CALLER PUSH1 0x1 PUSH0 PUSH2 0x100 EXP DUP2 SLOAD DUP2 PUSH20 0xFFFFFFFFFFFFFFFFFFFFFFFFFFFFFFFFFFFFFFFF MUL NOT AND SWAP1 DUP4 PUSH20 0xFFFFFFFFFFFFFFFFFFFFFFFFFFFFFFFFFFFFFFFF AND MUL OR SWAP1 SSTORE POP TIMESTAMP PUSH1 0x2 DUP2 SWAP1 SSTORE POP DUP1 PUSH1 0x3 DUP2 SWAP1 SSTORE POP POP PUSH2 0x155 JUMP JUMPDEST PUSH0 DUP1 REVERT JUMPDEST PUSH0 DUP2 SWAP1 POP SWAP2 SWAP1 POP JUMP JUMPDEST PUSH2 0x109 DUP2 PUSH2 0xF7 JUMP JUMPDEST DUP2 EQ PUSH2 0x113 JUMPI PUSH0 DUP1 REVERT JUMPDEST POP JUMP JUMPDEST PUSH0 DUP2 MLOAD SWAP1 POP PUSH2 0x124 DUP2 PUSH2 0x100 JUMP JUMPDEST SWAP3 SWAP2 POP POP JUMP JUMPDEST PUSH0 PUSH1 0x20 DUP3 DUP5 SUB SLT ISZERO PUSH2 0x13F JUMPI PUSH2 0x13E PUSH2 0xF3 JUMP JUMPDEST JUMPDEST PUSH0 PUSH2 0x14C DUP5 DUP3 DUP6 ADD PUSH2 0x116 JUMP JUMPDEST SWAP2 POP POP SWAP3 SWAP2 POP POP JUMP JUMPDEST PUSH2 0x126D DUP1 PUSH2 0x162 PUSH0 CODECOPY PUSH0 RETURN INVALID PUSH1 0x80 PUSH1 0x40 MSTORE PUSH1 0x4 CALLDATASIZE LT PUSH2 0x85 JUMPI PUSH0 CALLDATALOAD PUSH1 0xE0 SHR DUP1 PUSH4 0x9F883A05 GT PUSH2 0x58 JUMPI DUP1 PUSH4 0x9F883A05 EQ PUSH2 0x105 JUMPI DUP1 PUSH4 0xB60D4288 EQ PUSH2 0x141 JUMPI DUP1 PUSH4 0xBEA4DFB5 EQ PUSH2 0x14B JUMPI DUP1 PUSH4 0xD39CF006 EQ PUSH2 0x175 JUMPI DUP1 PUSH4 0xDA4658E0 EQ PUSH2 0x19D JUMPI PUSH2 0x85 JUMP JUMPDEST DUP1 PUSH4 0x590E1AE3 EQ PUSH2 0x89 JUMPI DUP1 PUSH4 0x648C2910 EQ PUSH2 0x9F JUMPI DUP1 PUSH4 0x8863DD1A EQ PUSH2 0xC7 JUMPI DUP1 PUSH4 0x8EDD6EB6 EQ PUSH2 0xEF JUMPI JUMPDEST PUSH0 DUP1 REVERT JUMPDEST CALLVALUE DUP1 ISZERO PUSH2 0x94 JUMPI PUSH0 DUP1 REVERT JUMPDEST POP PUSH2 0x9D PUSH2 0x1C7 JUMP JUMPDEST STOP JUMPDEST CALLVALUE DUP1 ISZERO PUSH2 0xAA JUMPI PUSH0 DUP1 REVERT JUMPDEST POP PUSH2 0xC5 PUSH1 0x4 DUP1 CALLDATASIZE SUB DUP2 ADD SWAP1 PUSH2 0xC0 SWAP2 SWAP1 PUSH2 0xAB2 JUMP JUMPDEST PUSH2 0x40C JUMP JUMPDEST STOP JUMPDEST CALLVALUE DUP1 ISZERO PUSH2 0xD2 JUMPI PUSH0 DUP1 REVERT JUMPDEST POP PUSH2 0xED PUSH1 0x4 DUP1 CALLDATASIZE SUB DUP2 ADD SWAP1 PUSH2 0xE8 SWAP2 SWAP1 PUSH2 0xAB2 JUMP JUMPDEST PUSH2 0x4DE JUMP JUMPDEST STOP JUMPDEST CALLVALUE DUP1 ISZERO PUSH2 0xFA JUMPI PUSH0 DUP1 REVERT JUMPDEST POP PUSH2 0x103 PUSH2 0x5B0 JUMP JUMPDEST STOP JUMPDEST CALLVALUE DUP1 ISZERO PUSH2 0x110 JUMPI PUSH0 DUP1 REVERT JUMPDEST POP PUSH2 0x12B PUSH1 0x4 DUP1 CALLDATASIZE SUB DUP2 ADD SWAP1 PUSH2 0x126 SWAP2 SWAP1 PUSH2 0xAB2 JUMP JUMPDEST PUSH2 0x7A5 JUMP JUMPDEST PUSH1 0x40 MLOAD PUSH2 0x138 SWAP2 SWAP1 PUSH2 0xAF5 JUMP JUMPDEST PUSH1 0x40 MLOAD DUP1 SWAP2 SUB SWAP1 RETURN JUMPDEST PUSH2 0x149 PUSH2 0x7B9 JUMP JUMPDEST STOP JUMPDEST CALLVALUE DUP1 ISZERO PUSH2 0x156 JUMPI PUSH0 DUP1 REVERT JUMPDEST POP PUSH2 0x15F PUSH2 0x8A1 JUMP JUMPDEST PUSH1 0x40 MLOAD PUSH2 0x16C SWAP2 SWAP1 PUSH2 0xB26 JUMP JUMPDEST PUSH1 0x40 MLOAD DUP1 SWAP2 SUB SWAP1 RETURN JUMPDEST CALLVALUE DUP1 ISZERO PUSH2 0x180 JUMPI PUSH0 DUP1 REVERT JUMPDEST POP PUSH2 0x19B PUSH1 0x4 DUP1 CALLDATASIZE SUB DUP2 ADD SWAP1 PUSH2 0x196 SWAP2 SWAP1 PUSH2 0xB69 JUMP JUMPDEST PUSH2 0x93E JUMP JUMPDEST STOP JUMPDEST CALLVALUE DUP1 ISZERO PUSH2 0x1A8 JUMPI PUSH0 DUP1 REVERT JUMPDEST POP PUSH2 0x1B1 PUSH2 0xA12 JUMP JUMPDEST PUSH1 0x40 MLOAD PUSH2 0x1BE SWAP2 SWAP1 PUSH2 0xBC1 JUMP JUMPDEST PUSH1 0x40 MLOAD DUP1 SWAP2 SUB SWAP1 RETURN JUMPDEST PUSH1 0x3 SLOAD PUSH1 0x2 SLOAD PUSH2 0x1D7 SWAP2 SWAP1 PUSH2 0xC07 JUMP JUMPDEST TIMESTAMP LT ISZERO PUSH2 0x219 JUMPI PUSH1 0x40 MLOAD PUSH32 0x8C379A000000000000000000000000000000000000000000000000000000000 DUP2 MSTORE PUSH1 0x4 ADD PUSH2 0x210 SWAP1 PUSH2 0xC94 JUMP JUMPDEST PUSH1 0x40 MLOAD DUP1 SWAP2 SUB SWAP1 REVERT JUMPDEST PUSH1 0xC8 PUSH2 0x224 SELFBALANCE PUSH2 0xA25 JUMP JUMPDEST LT PUSH2 0x264 JUMPI PUSH1 0x40 MLOAD PUSH32 0x8C379A000000000000000000000000000000000000000000000000000000000 DUP2 MSTORE PUSH1 0x4 ADD PUSH2 0x25B SWAP1 PUSH2 0xCFC JUMP JUMPDEST PUSH1 0x40 MLOAD DUP1 SWAP2 SUB SWAP1 REVERT JUMPDEST PUSH0 DUP1 PUSH0 CALLER PUSH20 0xFFFFFFFFFFFFFFFFFFFFFFFFFFFFFFFFFFFFFFFF AND PUSH20 0xFFFFFFFFFFFFFFFFFFFFFFFFFFFFFFFFFFFFFFFF AND DUP2 MSTORE PUSH1 0x20 ADD SWAP1 DUP2 MSTORE PUSH1 0x20 ADD PUSH0 KECCAK256 SLOAD SUB PUSH2 0x2E2 JUMPI PUSH1 0x40 MLOAD PUSH32 0x8C379A000000000000000000000000000000000000000000000000000000000 DUP2 MSTORE PUSH1 0x4 ADD PUSH2 0x2D9 SWAP1 PUSH2 0xD64 JUMP JUMPDEST PUSH1 0x40 MLOAD DUP1 SWAP2 SUB SWAP1 REVERT JUMPDEST PUSH0 CALLER PUSH20 0xFFFFFFFFFFFFFFFFFFFFFFFFFFFFFFFFFFFFFFFF AND PUSH0 DUP1 CALLER PUSH20 0xFFFFFFFFFFFFFFFFFFFFFFFFFFFFFFFFFFFFFFFF AND PUSH20 0xFFFFFFFFFFFFFFFFFFFFFFFFFFFFFFFFFFFFFFFF AND DUP2 MSTORE PUSH1 0x20 ADD SWAP1 DUP2 MSTORE PUSH1 0x20 ADD PUSH0 KECCAK256 SLOAD PUSH1 0x40 MLOAD PUSH2 0x343 SWAP1 PUSH2 0xDAF JUMP JUMPDEST PUSH0 PUSH1 0x40 MLOAD DUP1 DUP4 SUB DUP2 DUP6 DUP8 GAS CALL SWAP3 POP POP POP RETURNDATASIZE DUP1 PUSH0 DUP2 EQ PUSH2 0x37D JUMPI PUSH1 0x40 MLOAD SWAP2 POP PUSH1 0x1F NOT PUSH1 0x3F RETURNDATASIZE ADD AND DUP3 ADD PUSH1 0x40 MSTORE RETURNDATASIZE DUP3 MSTORE RETURNDATASIZE PUSH0 PUSH1 0x20 DUP5 ADD RETURNDATACOPY PUSH2 0x382 JUMP JUMPDEST PUSH1 0x60 SWAP2 POP JUMPDEST POP POP DUP1 SWAP2 POP POP DUP1 PUSH2 0x3C8 JUMPI PUSH1 0x40 MLOAD PUSH32 0x8C379A000000000000000000000000000000000000000000000000000000000 DUP2 MSTORE PUSH1 0x4 ADD PUSH2 0x3BF SWAP1 PUSH2 0xE0D JUMP JUMPDEST PUSH1 0x40 MLOAD DUP1 SWAP2 SUB SWAP1 REVERT JUMPDEST PUSH0 DUP1 PUSH0 CALLER PUSH20 0xFFFFFFFFFFFFFFFFFFFFFFFFFFFFFFFFFFFFFFFF AND PUSH20 0xFFFFFFFFFFFFFFFFFFFFFFFFFFFFFFFFFFFFFFFF AND DUP2 MSTORE PUSH1 0x20 ADD SWAP1 DUP2 MSTORE PUSH1 0x20 ADD PUSH0 KECCAK256 DUP2 SWAP1 SSTORE POP POP JUMP JUMPDEST PUSH1 0x1 PUSH0 SWAP1 SLOAD SWAP1 PUSH2 0x100 EXP SWAP1 DIV PUSH20 0xFFFFFFFFFFFFFFFFFFFFFFFFFFFFFFFFFFFFFFFF AND PUSH20 0xFFFFFFFFFFFFFFFFFFFFFFFFFFFFFFFFFFFFFFFF AND CALLER PUSH20 0xFFFFFFFFFFFFFFFFFFFFFFFFFFFFFFFFFFFFFFFF AND EQ PUSH2 0x49B JUMPI PUSH1 0x40 MLOAD PUSH32 0x8C379A000000000000000000000000000000000000000000000000000000000 DUP2 MSTORE PUSH1 0x4 ADD PUSH2 0x492 SWAP1 PUSH2 0xE9B JUMP JUMPDEST PUSH1 0x40 MLOAD DUP1 SWAP2 SUB SWAP1 REVERT JUMPDEST DUP1 PUSH1 0x4 PUSH0 PUSH2 0x100 EXP DUP2 SLOAD DUP2 PUSH20 0xFFFFFFFFFFFFFFFFFFFFFFFFFFFFFFFFFFFFFFFF MUL NOT AND SWAP1 DUP4 PUSH20 0xFFFFFFFFFFFFFFFFFFFFFFFFFFFFFFFFFFFFFFFF AND MUL OR SWAP1 SSTORE POP POP JUMP JUMPDEST PUSH1 0x1 PUSH0 SWAP1 SLOAD SWAP1 PUSH2 0x100 EXP SWAP1 DIV PUSH20 0xFFFFFFFFFFFFFFFFFFFFFFFFFFFFFFFFFFFFFFFF AND PUSH20 0xFFFFFFFFFFFFFFFFFFFFFFFFFFFFFFFFFFFFFFFF AND CALLER PUSH20 0xFFFFFFFFFFFFFFFFFFFFFFFFFFFFFFFFFFFFFFFF AND EQ PUSH2 0x56D JUMPI PUSH1 0x40 MLOAD PUSH32 0x8C379A000000000000000000000000000000000000000000000000000000000 DUP2 MSTORE PUSH1 0x4 ADD PUSH2 0x564 SWAP1 PUSH2 0xE9B JUMP JUMPDEST PUSH1 0x40 MLOAD DUP1 SWAP2 SUB SWAP1 REVERT JUMPDEST DUP1 PUSH1 0x1 PUSH0 PUSH2 0x100 EXP DUP2 SLOAD DUP2 PUSH20 0xFFFFFFFFFFFFFFFFFFFFFFFFFFFFFFFFFFFFFFFF MUL NOT AND SWAP1 DUP4 PUSH20 0xFFFFFFFFFFFFFFFFFFFFFFFFFFFFFFFFFFFFFFFF AND MUL OR SWAP1 SSTORE POP POP JUMP JUMPDEST PUSH1 0x3 SLOAD PUSH1 0x2 SLOAD PUSH2 0x5C0 SWAP2 SWAP1 PUSH2 0xC07 JUMP JUMPDEST TIMESTAMP LT ISZERO PUSH2 0x602 JUMPI PUSH1 0x40 MLOAD PUSH32 0x8C379A000000000000000000000000000000000000000000000000000000000 DUP2 MSTORE PUSH1 0x4 ADD PUSH2 0x5F9 SWAP1 PUSH2 0xC94 JUMP JUMPDEST PUSH1 0x40 MLOAD DUP1 SWAP2 SUB SWAP1 REVERT JUMPDEST PUSH1 0x1 PUSH0 SWAP1 SLOAD SWAP1 PUSH2 0x100 EXP SWAP1 DIV PUSH20 0xFFFFFFFFFFFFFFFFFFFFFFFFFFFFFFFFFFFFFFFF AND PUSH20 0xFFFFFFFFFFFFFFFFFFFFFFFFFFFFFFFFFFFFFFFF AND CALLER PUSH20 0xFFFFFFFFFFFFFFFFFFFFFFFFFFFFFFFFFFFFFFFF AND EQ PUSH2 0x691 JUMPI PUSH1 0x40 MLOAD PUSH32 0x8C379A000000000000000000000000000000000000000000000000000000000 DUP2 MSTORE PUSH1 0x4 ADD PUSH2 0x688 SWAP1 PUSH2 0xE9B JUMP JUMPDEST PUSH1 0x40 MLOAD DUP1 SWAP2 SUB SWAP1 REVERT JUMPDEST PUSH1 0xC8 PUSH2 0x69C SELFBALANCE PUSH2 0xA25 JUMP JUMPDEST LT ISZERO PUSH2 0x6DD JUMPI PUSH1 0x40 MLOAD PUSH32 0x8C379A000000000000000000000000000000000000000000000000000000000 DUP2 MSTORE PUSH1 0x4 ADD PUSH2 0x6D4 SWAP1 PUSH2 0xF03 JUMP JUMPDEST PUSH1 0x40 MLOAD DUP1 SWAP2 SUB SWAP1 REVERT JUMPDEST PUSH0 CALLER PUSH20 0xFFFFFFFFFFFFFFFFFFFFFFFFFFFFFFFFFFFFFFFF AND SELFBALANCE PUSH1 0x40 MLOAD PUSH2 0x702 SWAP1 PUSH2 0xDAF JUMP JUMPDEST PUSH0 PUSH1 0x40 MLOAD DUP1 DUP4 SUB DUP2 DUP6 DUP8 GAS CALL SWAP3 POP POP POP RETURNDATASIZE DUP1 PUSH0 DUP2 EQ PUSH2 0x73C JUMPI PUSH1 0x40 MLOAD SWAP2 POP PUSH1 0x1F NOT PUSH1 0x3F RETURNDATASIZE ADD AND DUP3 ADD PUSH1 0x40 MSTORE RETURNDATASIZE DUP3 MSTORE RETURNDATASIZE PUSH0 PUSH1 0x20 DUP5 ADD RETURNDATACOPY PUSH2 0x741 JUMP JUMPDEST PUSH1 0x60 SWAP2 POP JUMPDEST POP POP DUP1 SWAP2 POP POP DUP1 PUSH2 0x787 JUMPI PUSH1 0x40 MLOAD PUSH32 0x8C379A000000000000000000000000000000000000000000000000000000000 DUP2 MSTORE PUSH1 0x4 ADD PUSH2 0x77E SWAP1 PUSH2 0xE0D JUMP JUMPDEST PUSH1 0x40 MLOAD DUP1 SWAP2 SUB SWAP1 REVERT JUMPDEST PUSH1 0x1 PUSH1 0x4 PUSH1 0x14 PUSH2 0x100 EXP DUP2 SLOAD DUP2 PUSH1 0xFF MUL NOT AND SWAP1 DUP4 ISZERO ISZERO MUL OR SWAP1 SSTORE POP POP JUMP JUMPDEST PUSH0 PUSH1 0x20 MSTORE DUP1 PUSH0 MSTORE PUSH1 0x40 PUSH0 KECCAK256 PUSH0 SWAP2 POP SWAP1 POP SLOAD DUP2 JUMP JUMPDEST PUSH9 0x56BC75E2D63100000 PUSH2 0x7CC CALLVALUE PUSH2 0xA25 JUMP JUMPDEST LT ISZERO PUSH2 0x80D JUMPI PUSH1 0x40 MLOAD PUSH32 0x8C379A000000000000000000000000000000000000000000000000000000000 DUP2 MSTORE PUSH1 0x4 ADD PUSH2 0x804 SWAP1 PUSH2 0xF91 JUMP JUMPDEST PUSH1 0x40 MLOAD DUP1 SWAP2 SUB SWAP1 REVERT JUMPDEST PUSH1 0x3 SLOAD PUSH1 0x2 SLOAD PUSH2 0x81D SWAP2 SWAP1 PUSH2 0xC07 JUMP JUMPDEST TIMESTAMP LT PUSH2 0x85E JUMPI PUSH1 0x40 MLOAD PUSH32 0x8C379A000000000000000000000000000000000000000000000000000000000 DUP2 MSTORE PUSH1 0x4 ADD PUSH2 0x855 SWAP1 PUSH2 0xFF9 JUMP JUMPDEST PUSH1 0x40 MLOAD DUP1 SWAP2 SUB SWAP1 REVERT JUMPDEST CALLVALUE PUSH0 DUP1 CALLER PUSH20 0xFFFFFFFFFFFFFFFFFFFFFFFFFFFFFFFFFFFFFFFF AND PUSH20 0xFFFFFFFFFFFFFFFFFFFFFFFFFFFFFFFFFFFFFFFF AND DUP2 MSTORE PUSH1 0x20 ADD SWAP1 DUP2 MSTORE PUSH1 0x20 ADD PUSH0 KECCAK256 DUP2 SWAP1 SSTORE POP JUMP JUMPDEST PUSH0 DUP1 PUSH1 0x5 PUSH0 SWAP1 SLOAD SWAP1 PUSH2 0x100 EXP SWAP1 DIV PUSH20 0xFFFFFFFFFFFFFFFFFFFFFFFFFFFFFFFFFFFFFFFF AND PUSH20 0xFFFFFFFFFFFFFFFFFFFFFFFFFFFFFFFFFFFFFFFF AND PUSH4 0xFEAF968C PUSH1 0x40 MLOAD DUP2 PUSH4 0xFFFFFFFF AND PUSH1 0xE0 SHL DUP2 MSTORE PUSH1 0x4 ADD PUSH1 0xA0 PUSH1 0x40 MLOAD DUP1 DUP4 SUB DUP2 DUP7 GAS STATICCALL ISZERO DUP1 ISZERO PUSH2 0x90D JUMPI RETURNDATASIZE PUSH0 DUP1 RETURNDATACOPY RETURNDATASIZE PUSH0 REVERT JUMPDEST POP POP POP POP PUSH1 0x40 MLOAD RETURNDATASIZE PUSH1 0x1F NOT PUSH1 0x1F DUP3 ADD AND DUP3 ADD DUP1 PUSH1 0x40 MSTORE POP DUP2 ADD SWAP1 PUSH2 0x931 SWAP2 SWAP1 PUSH2 0x1094 JUMP JUMPDEST POP POP POP SWAP2 POP POP DUP1 SWAP2 POP POP SWAP1 JUMP JUMPDEST PUSH1 0x4 PUSH0 SWAP1 SLOAD SWAP1 PUSH2 0x100 EXP SWAP1 DIV PUSH20 0xFFFFFFFFFFFFFFFFFFFFFFFFFFFFFFFFFFFFFFFF AND PUSH20 0xFFFFFFFFFFFFFFFFFFFFFFFFFFFFFFFFFFFFFFFF AND CALLER PUSH20 0xFFFFFFFFFFFFFFFFFFFFFFFFFFFFFFFFFFFFFFFF AND EQ PUSH2 0x9CD JUMPI PUSH1 0x40 MLOAD PUSH32 0x8C379A000000000000000000000000000000000000000000000000000000000 DUP2 MSTORE PUSH1 0x4 ADD PUSH2 0x9C4 SWAP1 PUSH2 0x117B JUMP JUMPDEST PUSH1 0x40 MLOAD DUP1 SWAP2 SUB SWAP1 REVERT JUMPDEST DUP1 PUSH0 DUP1 DUP5 PUSH20 0xFFFFFFFFFFFFFFFFFFFFFFFFFFFFFFFFFFFFFFFF AND PUSH20 0xFFFFFFFFFFFFFFFFFFFFFFFFFFFFFFFFFFFFFFFF AND DUP2 MSTORE PUSH1 0x20 ADD SWAP1 DUP2 MSTORE PUSH1 0x20 ADD PUSH0 KECCAK256 DUP2 SWAP1 SSTORE POP POP POP JUMP JUMPDEST PUSH1 0x4 PUSH1 0x14 SWAP1 SLOAD SWAP1 PUSH2 0x100 EXP SWAP1 DIV PUSH1 0xFF AND DUP2 JUMP JUMPDEST PUSH0 DUP1 PUSH2 0xA2F PUSH2 0x8A1 JUMP JUMPDEST SWAP1 POP PUSH4 0x5F5E100 DUP2 DUP5 PUSH2 0xA42 SWAP2 SWAP1 PUSH2 0x1199 JUMP JUMPDEST PUSH2 0xA4C SWAP2 SWAP1 PUSH2 0x1207 JUMP JUMPDEST SWAP2 POP POP SWAP2 SWAP1 POP JUMP JUMPDEST PUSH0 DUP1 REVERT JUMPDEST PUSH0 PUSH20 0xFFFFFFFFFFFFFFFFFFFFFFFFFFFFFFFFFFFFFFFF DUP3 AND SWAP1 POP SWAP2 SWAP1 POP JUMP JUMPDEST PUSH0 PUSH2 0xA81 DUP3 PUSH2 0xA58 JUMP JUMPDEST SWAP1 POP SWAP2 SWAP1 POP JUMP JUMPDEST PUSH2 0xA91 DUP2 PUSH2 0xA77 JUMP JUMPDEST DUP2 EQ PUSH2 0xA9B JUMPI PUSH0 DUP1 REVERT JUMPDEST POP JUMP JUMPDEST PUSH0 DUP2 CALLDATALOAD SWAP1 POP PUSH2 0xAAC DUP2 PUSH2 0xA88 JUMP JUMPDEST SWAP3 SWAP2 POP POP JUMP JUMPDEST PUSH0 PUSH1 0x20 DUP3 DUP5 SUB SLT ISZERO PUSH2 0xAC7 JUMPI PUSH2 0xAC6 PUSH2 0xA54 JUMP JUMPDEST JUMPDEST PUSH0 PUSH2 0xAD4 DUP5 DUP3 DUP6 ADD PUSH2 0xA9E JUMP JUMPDEST SWAP2 POP POP SWAP3 SWAP2 POP POP JUMP JUMPDEST PUSH0 DUP2 SWAP1 POP SWAP2 SWAP1 POP JUMP JUMPDEST PUSH2 0xAEF DUP2 PUSH2 0xADD JUMP JUMPDEST DUP3 MSTORE POP POP JUMP JUMPDEST PUSH0 PUSH1 0x20 DUP3 ADD SWAP1 POP PUSH2 0xB08 PUSH0 DUP4 ADD DUP5 PUSH2 0xAE6 JUMP JUMPDEST SWAP3 SWAP2 POP POP JUMP JUMPDEST PUSH0 DUP2 SWAP1 POP SWAP2 SWAP1 POP JUMP JUMPDEST PUSH2 0xB20 DUP2 PUSH2 0xB0E JUMP JUMPDEST DUP3 MSTORE POP POP JUMP JUMPDEST PUSH0 PUSH1 0x20 DUP3 ADD SWAP1 POP PUSH2 0xB39 PUSH0 DUP4 ADD DUP5 PUSH2 0xB17 JUMP JUMPDEST SWAP3 SWAP2 POP POP JUMP JUMPDEST PUSH2 0xB48 DUP2 PUSH2 0xADD JUMP JUMPDEST DUP2 EQ PUSH2 0xB52 JUMPI PUSH0 DUP1 REVERT JUMPDEST POP JUMP JUMPDEST PUSH0 DUP2 CALLDATALOAD SWAP1 POP PUSH2 0xB63 DUP2 PUSH2 0xB3F JUMP JUMPDEST SWAP3 SWAP2 POP POP JUMP JUMPDEST PUSH0 DUP1 PUSH1 0x40 DUP4 DUP6 SUB SLT ISZERO PUSH2 0xB7F JUMPI PUSH2 0xB7E PUSH2 0xA54 JUMP JUMPDEST JUMPDEST PUSH0 PUSH2 0xB8C DUP6 DUP3 DUP7 ADD PUSH2 0xA9E JUMP JUMPDEST SWAP3 POP POP PUSH1 0x20 PUSH2 0xB9D DUP6 DUP3 DUP7 ADD PUSH2 0xB55 JUMP JUMPDEST SWAP2 POP POP SWAP3 POP SWAP3 SWAP1 POP JUMP JUMPDEST PUSH0 DUP2 ISZERO ISZERO SWAP1 POP SWAP2 SWAP1 POP JUMP JUMPDEST PUSH2 0xBBB DUP2 PUSH2 0xBA7 JUMP JUMPDEST DUP3 MSTORE POP POP JUMP JUMPDEST PUSH0 PUSH1 0x20 DUP3 ADD SWAP1 POP PUSH2 0xBD4 PUSH0 DUP4 ADD DUP5 PUSH2 0xBB2 JUMP JUMPDEST SWAP3 SWAP2 POP POP JUMP JUMPDEST PUSH32 0x4E487B7100000000000000000000000000000000000000000000000000000000 PUSH0 MSTORE PUSH1 0x11 PUSH1 0x4 MSTORE PUSH1 0x24 PUSH0 REVERT JUMPDEST PUSH0 PUSH2 0xC11 DUP3 PUSH2 0xADD JUMP JUMPDEST SWAP2 POP PUSH2 0xC1C DUP4 PUSH2 0xADD JUMP JUMPDEST SWAP3 POP DUP3 DUP3 ADD SWAP1 POP DUP1 DUP3 GT ISZERO PUSH2 0xC34 JUMPI PUSH2 0xC33 PUSH2 0xBDA JUMP JUMPDEST JUMPDEST SWAP3 SWAP2 POP POP JUMP JUMPDEST PUSH0 DUP3 DUP3 MSTORE PUSH1 0x20 DUP3 ADD SWAP1 POP SWAP3 SWAP2 POP POP JUMP JUMPDEST PUSH32 0x57696E646F77206973206E6F7420636C6F736564000000000000000000000000 PUSH0 DUP3 ADD MSTORE POP JUMP JUMPDEST PUSH0 PUSH2 0xC7E PUSH1 0x14 DUP4 PUSH2 0xC3A JUMP JUMPDEST SWAP2 POP PUSH2 0xC89 DUP3 PUSH2 0xC4A JUMP JUMPDEST PUSH1 0x20 DUP3 ADD SWAP1 POP SWAP2 SWAP1 POP JUMP JUMPDEST PUSH0 PUSH1 0x20 DUP3 ADD SWAP1 POP DUP2 DUP2 SUB PUSH0 DUP4 ADD MSTORE PUSH2 0xCAB DUP2 PUSH2 0xC72 JUMP JUMPDEST SWAP1 POP SWAP2 SWAP1 POP JUMP JUMPDEST PUSH32 0x5461726765742069732072656163686564210000000000000000000000000000 PUSH0 DUP3 ADD MSTORE POP JUMP JUMPDEST PUSH0 PUSH2 0xCE6 PUSH1 0x12 DUP4 PUSH2 0xC3A JUMP JUMPDEST SWAP2 POP PUSH2 0xCF1 DUP3 PUSH2 0xCB2 JUMP JUMPDEST PUSH1 0x20 DUP3 ADD SWAP1 POP SWAP2 SWAP1 POP JUMP JUMPDEST PUSH0 PUSH1 0x20 DUP3 ADD SWAP1 POP DUP2 DUP2 SUB PUSH0 DUP4 ADD MSTORE PUSH2 0xD13 DUP2 PUSH2 0xCDA JUMP JUMPDEST SWAP1 POP SWAP2 SWAP1 POP JUMP JUMPDEST PUSH32 0x5468657265206973206E6F2066756E6420666F7220796F750000000000000000 PUSH0 DUP3 ADD MSTORE POP JUMP JUMPDEST PUSH0 PUSH2 0xD4E PUSH1 0x18 DUP4 PUSH2 0xC3A JUMP JUMPDEST SWAP2 POP PUSH2 0xD59 DUP3 PUSH2 0xD1A JUMP JUMPDEST PUSH1 0x20 DUP3 ADD SWAP1 POP SWAP2 SWAP1 POP JUMP JUMPDEST PUSH0 PUSH1 0x20 DUP3 ADD SWAP1 POP DUP2 DUP2 SUB PUSH0 DUP4 ADD MSTORE PUSH2 0xD7B DUP2 PUSH2 0xD42 JUMP JUMPDEST SWAP1 POP SWAP2 SWAP1 POP JUMP JUMPDEST PUSH0 DUP2 SWAP1 POP SWAP3 SWAP2 POP POP JUMP JUMPDEST POP JUMP JUMPDEST PUSH0 PUSH2 0xD9A PUSH0 DUP4 PUSH2 0xD82 JUMP JUMPDEST SWAP2 POP PUSH2 0xDA5 DUP3 PUSH2 0xD8C JUMP JUMPDEST PUSH0 DUP3 ADD SWAP1 POP SWAP2 SWAP1 POP JUMP JUMPDEST PUSH0 PUSH2 0xDB9 DUP3 PUSH2 0xD8F JUMP JUMPDEST SWAP2 POP DUP2 SWAP1 POP SWAP2 SWAP1 POP JUMP JUMPDEST PUSH32 0x5472616E73666572206973206661696C65640000000000000000000000000000 PUSH0 DUP3 ADD MSTORE POP JUMP JUMPDEST PUSH0 PUSH2 0xDF7 PUSH1 0x12 DUP4 PUSH2 0xC3A JUMP JUMPDEST SWAP2 POP PUSH2 0xE02 DUP3 PUSH2 0xDC3 JUMP JUMPDEST PUSH1 0x20 DUP3 ADD SWAP1 POP SWAP2 SWAP1 POP JUMP JUMPDEST PUSH0 PUSH1 0x20 DUP3 ADD SWAP1 POP DUP2 DUP2 SUB PUSH0 DUP4 ADD MSTORE PUSH2 0xE24 DUP2 PUSH2 0xDEB JUMP JUMPDEST SWAP1 POP SWAP2 SWAP1 POP JUMP JUMPDEST PUSH32 0x546869732066756E6374696F6E2063616E206F6E6C792062652063616C6C2062 PUSH0 DUP3 ADD MSTORE PUSH32 0x79206F776E657200000000000000000000000000000000000000000000000000 PUSH1 0x20 DUP3 ADD MSTORE POP JUMP JUMPDEST PUSH0 PUSH2 0xE85 PUSH1 0x27 DUP4 PUSH2 0xC3A JUMP JUMPDEST SWAP2 POP PUSH2 0xE90 DUP3 PUSH2 0xE2B JUMP JUMPDEST PUSH1 0x40 DUP3 ADD SWAP1 POP SWAP2 SWAP1 POP JUMP JUMPDEST PUSH0 PUSH1 0x20 DUP3 ADD SWAP1 POP DUP2 DUP2 SUB PUSH0 DUP4 ADD MSTORE PUSH2 0xEB2 DUP2 PUSH2 0xE79 JUMP JUMPDEST SWAP1 POP SWAP2 SWAP1 POP JUMP JUMPDEST PUSH32 0x546172676574206973206E6F7420726561636865642100000000000000000000 PUSH0 DUP3 ADD MSTORE POP JUMP JUMPDEST PUSH0 PUSH2 0xEED PUSH1 0x16 DUP4 PUSH2 0xC3A JUMP JUMPDEST SWAP2 POP PUSH2 0xEF8 DUP3 PUSH2 0xEB9 JUMP JUMPDEST PUSH1 0x20 DUP3 ADD SWAP1 POP SWAP2 SWAP1 POP JUMP JUMPDEST PUSH0 PUSH1 0x20 DUP3 ADD SWAP1 POP DUP2 DUP2 SUB PUSH0 DUP4 ADD MSTORE PUSH2 0xF1A DUP2 PUSH2 0xEE1 JUMP JUMPDEST SWAP1 POP SWAP2 SWAP1 POP JUMP JUMPDEST PUSH32 0x53656E64206D6F7265204554482C20546865206D696E696D756D204554482076 PUSH0 DUP3 ADD MSTORE PUSH32 0x616C7565206973206F6E65000000000000000000000000000000000000000000 PUSH1 0x20 DUP3 ADD MSTORE POP JUMP JUMPDEST PUSH0 PUSH2 0xF7B PUSH1 0x2B DUP4 PUSH2 0xC3A JUMP JUMPDEST SWAP2 POP PUSH2 0xF86 DUP3 PUSH2 0xF21 JUMP JUMPDEST PUSH1 0x40 DUP3 ADD SWAP1 POP SWAP2 SWAP1 POP JUMP JUMPDEST PUSH0 PUSH1 0x20 DUP3 ADD SWAP1 POP DUP2 DUP2 SUB PUSH0 DUP4 ADD MSTORE PUSH2 0xFA8 DUP2 PUSH2 0xF6F JUMP JUMPDEST SWAP1 POP SWAP2 SWAP1 POP JUMP JUMPDEST PUSH32 0x57696E646F7720697320636C6F73656400000000000000000000000000000000 PUSH0 DUP3 ADD MSTORE POP JUMP JUMPDEST PUSH0 PUSH2 0xFE3 PUSH1 0x10 DUP4 PUSH2 0xC3A JUMP JUMPDEST SWAP2 POP PUSH2 0xFEE DUP3 PUSH2 0xFAF JUMP JUMPDEST PUSH1 0x20 DUP3 ADD SWAP1 POP SWAP2 SWAP1 POP JUMP JUMPDEST PUSH0 PUSH1 0x20 DUP3 ADD SWAP1 POP DUP2 DUP2 SUB PUSH0 DUP4 ADD MSTORE PUSH2 0x1010 DUP2 PUSH2 0xFD7 JUMP JUMPDEST SWAP1 POP SWAP2 SWAP1 POP JUMP JUMPDEST PUSH0 PUSH10 0xFFFFFFFFFFFFFFFFFFFF DUP3 AND SWAP1 POP SWAP2 SWAP1 POP JUMP JUMPDEST PUSH2 0x1035 DUP2 PUSH2 0x1017 JUMP JUMPDEST DUP2 EQ PUSH2 0x103F JUMPI PUSH0 DUP1 REVERT JUMPDEST POP JUMP JUMPDEST PUSH0 DUP2 MLOAD SWAP1 POP PUSH2 0x1050 DUP2 PUSH2 0x102C JUMP JUMPDEST SWAP3 SWAP2 POP POP JUMP JUMPDEST PUSH2 0x105F DUP2 PUSH2 0xB0E JUMP JUMPDEST DUP2 EQ PUSH2 0x1069 JUMPI PUSH0 DUP1 REVERT JUMPDEST POP JUMP JUMPDEST PUSH0 DUP2 MLOAD SWAP1 POP PUSH2 0x107A DUP2 PUSH2 0x1056 JUMP JUMPDEST SWAP3 SWAP2 POP POP JUMP JUMPDEST PUSH0 DUP2 MLOAD SWAP1 POP PUSH2 0x108E DUP2 PUSH2 0xB3F JUMP JUMPDEST SWAP3 SWAP2 POP POP JUMP JUMPDEST PUSH0 DUP1 PUSH0 DUP1 PUSH0 PUSH1 0xA0 DUP7 DUP9 SUB SLT ISZERO PUSH2 0x10AD JUMPI PUSH2 0x10AC PUSH2 0xA54 JUMP JUMPDEST JUMPDEST PUSH0 PUSH2 0x10BA DUP9 DUP3 DUP10 ADD PUSH2 0x1042 JUMP JUMPDEST SWAP6 POP POP PUSH1 0x20 PUSH2 0x10CB DUP9 DUP3 DUP10 ADD PUSH2 0x106C JUMP JUMPDEST SWAP5 POP POP PUSH1 0x40 PUSH2 0x10DC DUP9 DUP3 DUP10 ADD PUSH2 0x1080 JUMP JUMPDEST SWAP4 POP POP PUSH1 0x60 PUSH2 0x10ED DUP9 DUP3 DUP10 ADD PUSH2 0x1080 JUMP JUMPDEST SWAP3 POP POP PUSH1 0x80 PUSH2 0x10FE DUP9 DUP3 DUP10 ADD PUSH2 0x1042 JUMP JUMPDEST SWAP2 POP POP SWAP3 SWAP6 POP SWAP3 SWAP6 SWAP1 SWAP4 POP JUMP JUMPDEST PUSH32 0x796F7520646F206E6F742068617665207065726D697373696F6E20746F206361 PUSH0 DUP3 ADD MSTORE PUSH32 0x6C6C20746869732066756E6374696F6E00000000000000000000000000000000 PUSH1 0x20 DUP3 ADD MSTORE POP JUMP JUMPDEST PUSH0 PUSH2 0x1165 PUSH1 0x30 DUP4 PUSH2 0xC3A JUMP JUMPDEST SWAP2 POP PUSH2 0x1170 DUP3 PUSH2 0x110B JUMP JUMPDEST PUSH1 0x40 DUP3 ADD SWAP1 POP SWAP2 SWAP1 POP JUMP JUMPDEST PUSH0 PUSH1 0x20 DUP3 ADD SWAP1 POP DUP2 DUP2 SUB PUSH0 DUP4 ADD MSTORE PUSH2 0x1192 DUP2 PUSH2 0x1159 JUMP JUMPDEST SWAP1 POP SWAP2 SWAP1 POP JUMP JUMPDEST PUSH0 PUSH2 0x11A3 DUP3 PUSH2 0xADD JUMP JUMPDEST SWAP2 POP PUSH2 0x11AE DUP4 PUSH2 0xADD JUMP JUMPDEST SWAP3 POP DUP3 DUP3 MUL PUSH2 0x11BC DUP2 PUSH2 0xADD JUMP JUMPDEST SWAP2 POP DUP3 DUP3 DIV DUP5 EQ DUP4 ISZERO OR PUSH2 0x11D3 JUMPI PUSH2 0x11D2 PUSH2 0xBDA JUMP JUMPDEST JUMPDEST POP SWAP3 SWAP2 POP POP JUMP JUMPDEST PUSH32 0x4E487B7100000000000000000000000000000000000000000000000000000000 PUSH0 MSTORE PUSH1 0x12 PUSH1 0x4 MSTORE PUSH1 0x24 PUSH0 REVERT JUMPDEST PUSH0 PUSH2 0x1211 DUP3 PUSH2 0xADD JUMP JUMPDEST SWAP2 POP PUSH2 0x121C DUP4 PUSH2 0xADD JUMP JUMPDEST SWAP3 POP DUP3 PUSH2 0x122C JUMPI PUSH2 0x122B PUSH2 0x11DA JUMP JUMPDEST JUMPDEST DUP3 DUP3 DIV SWAP1 POP SWAP3 SWAP2 POP POP JUMP INVALID LOG2 PUSH5 0x6970667358 0x22 SLT KECCAK256 TSTORE 0x2A SHL DUP10 PUSH32 0x59E2C1E72B1BE7A88821DDC4A8B1F43A4ED98C209725B27F05D4A364736F6C63 NUMBER STOP ADDMOD BYTE STOP CALLER "
				},
				"gasEstimates": {
					"creation": {
						"codeDepositCost": "943400",
						"executionCost": "infinite",
						"totalCost": "infinite"
					},
					"external": {
						"fund()": "infinite",
						"fundersToAmount(address)": "2801",
						"getChainlinkDataFeedLatestAnswer()": "infinite",
						"getFund()": "infinite",
						"getFundSuccess()": "2605",
						"refund()": "infinite",
						"setERC20Addr(address)": "26907",
						"setFunderToAmount(address,uint256)": "25057",
						"transferOwnerShip(address)": "26929"
					},
					"internal": {
						"convertEthToUsd(uint256)": "infinite"
					}
				},
				"methodIdentifiers": {
					"fund()": "b60d4288",
					"fundersToAmount(address)": "9f883a05",
					"getChainlinkDataFeedLatestAnswer()": "bea4dfb5",
					"getFund()": "8edd6eb6",
					"getFundSuccess()": "da4658e0",
					"refund()": "590e1ae3",
					"setERC20Addr(address)": "648c2910",
					"setFunderToAmount(address,uint256)": "d39cf006",
					"transferOwnerShip(address)": "8863dd1a"
				}
			},
			"storageLayout": {
				"storage": [
					{
						"astId": 839,
						"contract": "fundMe/FundMe.sol:FundMe",
						"label": "fundersToAmount",
						"offset": 0,
						"slot": "0",
						"type": "t_mapping(t_address,t_uint256)"
					},
					{
						"astId": 851,
						"contract": "fundMe/FundMe.sol:FundMe",
						"label": "owner",
						"offset": 0,
						"slot": "1",
						"type": "t_address"
					},
					{
						"astId": 853,
						"contract": "fundMe/FundMe.sol:FundMe",
						"label": "deploymentTimestamp",
						"offset": 0,
						"slot": "2",
						"type": "t_uint256"
					},
					{
						"astId": 855,
						"contract": "fundMe/FundMe.sol:FundMe",
						"label": "lockTime",
						"offset": 0,
						"slot": "3",
						"type": "t_uint256"
					},
					{
						"astId": 857,
						"contract": "fundMe/FundMe.sol:FundMe",
						"label": "erc20Addr",
						"offset": 0,
						"slot": "4",
						"type": "t_address"
					},
					{
						"astId": 860,
						"contract": "fundMe/FundMe.sol:FundMe",
						"label": "getFundSuccess",
						"offset": 20,
						"slot": "4",
						"type": "t_bool"
					},
					{
						"astId": 863,
						"contract": "fundMe/FundMe.sol:FundMe",
						"label": "dataFeed",
						"offset": 0,
						"slot": "5",
						"type": "t_contract(AggregatorV3Interface)45"
					}
				],
				"types": {
					"t_address": {
						"encoding": "inplace",
						"label": "address",
						"numberOfBytes": "20"
					},
					"t_bool": {
						"encoding": "inplace",
						"label": "bool",
						"numberOfBytes": "1"
					},
					"t_contract(AggregatorV3Interface)45": {
						"encoding": "inplace",
						"label": "contract AggregatorV3Interface",
						"numberOfBytes": "20"
					},
					"t_mapping(t_address,t_uint256)": {
						"encoding": "mapping",
						"key": "t_address",
						"label": "mapping(address => uint256)",
						"numberOfBytes": "32",
						"value": "t_uint256"
					},
					"t_uint256": {
						"encoding": "inplace",
						"label": "uint256",
						"numberOfBytes": "32"
					}
				}
			},
			"userdoc": {
				"kind": "user",
				"methods": {},
				"version": 1
			}
		}
	}
}