{
	"fundMe/FundMe.sol": {
		"FundMe": {
			"abi": [
				{
					"inputs": [
						{
							"internalType": "uint256",
							"name": "_lockTime",
							"type": "uint256"
						}
					],
					"stateMutability": "nonpayable",
					"type": "constructor"
				},
				{
					"inputs": [],
					"name": "fund",
					"outputs": [],
					"stateMutability": "payable",
					"type": "function"
				},
				{
					"inputs": [
						{
							"internalType": "address",
							"name": "",
							"type": "address"
						}
					],
					"name": "fundersToAmount",
					"outputs": [
						{
							"internalType": "uint256",
							"name": "",
							"type": "uint256"
						}
					],
					"stateMutability": "view",
					"type": "function"
				},
				{
					"inputs": [],
					"name": "getChainlinkDataFeedLatestAnswer",
					"outputs": [
						{
							"internalType": "int256",
							"name": "",
							"type": "int256"
						}
					],
					"stateMutability": "view",
					"type": "function"
				},
				{
					"inputs": [],
					"name": "getFund",
					"outputs": [],
					"stateMutability": "nonpayable",
					"type": "function"
				},
				{
					"inputs": [],
					"name": "refund",
					"outputs": [],
					"stateMutability": "nonpayable",
					"type": "function"
				},
				{
					"inputs": [
						{
							"internalType": "address",
							"name": "_newOwner",
							"type": "address"
						}
					],
					"name": "transferOwnerShip",
					"outputs": [],
					"stateMutability": "nonpayable",
					"type": "function"
				}
			],
			"devdoc": {
				"kind": "dev",
				"methods": {},
				"version": 1
			},
			"evm": {
				"assembly": "    /* \"fundMe/FundMe.sol\":555:4661  contract FundMe {... */\n  mstore(0x40, 0x80)\n    /* \"fundMe/FundMe.sol\":1046:1652  constructor(uint256 _lockTime) { ... */\n  callvalue\n  dup1\n  iszero\n  tag_1\n  jumpi\n  0x00\n  dup1\n  revert\ntag_1:\n  pop\n  mload(0x40)\n  sub(codesize, bytecodeSize)\n  dup1\n  bytecodeSize\n  dup4\n  codecopy\n  dup2\n  dup2\n  add\n  0x40\n  mstore\n  dup2\n  add\n  swap1\n  tag_2\n  swap2\n  swap1\n  tag_3\n  jump\t// in\ntag_2:\n    /* \"fundMe/FundMe.sol\":1405:1447  0x694AA1769357215DE4FAC081bf1f309aDC325306 */\n  0x694aa1769357215de4fac081bf1f309adc325306\n    /* \"fundMe/FundMe.sol\":1372:1380  dataFeed */\n  0x04\n  0x00\n    /* \"fundMe/FundMe.sol\":1372:1448  dataFeed = AggregatorV3Interface(0x694AA1769357215DE4FAC081bf1f309aDC325306) */\n  0x0100\n  exp\n  dup2\n  sload\n  dup2\n  0xffffffffffffffffffffffffffffffffffffffff\n  mul\n  not\n  and\n  swap1\n  dup4\n  0xffffffffffffffffffffffffffffffffffffffff\n  and\n  mul\n  or\n  swap1\n  sstore\n  pop\n    /* \"fundMe/FundMe.sol\":1555:1565  msg.sender */\n  caller\n    /* \"fundMe/FundMe.sol\":1547:1552  owner */\n  0x01\n  0x00\n    /* \"fundMe/FundMe.sol\":1547:1565  owner = msg.sender */\n  0x0100\n  exp\n  dup2\n  sload\n  dup2\n  0xffffffffffffffffffffffffffffffffffffffff\n  mul\n  not\n  and\n  swap1\n  dup4\n  0xffffffffffffffffffffffffffffffffffffffff\n  and\n  mul\n  or\n  swap1\n  sstore\n  pop\n    /* \"fundMe/FundMe.sol\":1598:1613  block.timestamp */\n  timestamp\n    /* \"fundMe/FundMe.sol\":1576:1595  deploymentTimestamp */\n  0x02\n    /* \"fundMe/FundMe.sol\":1576:1613  deploymentTimestamp = block.timestamp */\n  dup2\n  swap1\n  sstore\n  pop\n    /* \"fundMe/FundMe.sol\":1635:1644  _lockTime */\n  dup1\n    /* \"fundMe/FundMe.sol\":1624:1632  lockTime */\n  0x03\n    /* \"fundMe/FundMe.sol\":1624:1644  lockTime = _lockTime */\n  dup2\n  swap1\n  sstore\n  pop\n    /* \"fundMe/FundMe.sol\":1046:1652  constructor(uint256 _lockTime) { ... */\n  pop\n    /* \"fundMe/FundMe.sol\":555:4661  contract FundMe {... */\n  jump(tag_6)\n    /* \"#utility.yul\":88:205   */\ntag_8:\n    /* \"#utility.yul\":197:198   */\n  0x00\n    /* \"#utility.yul\":194:195   */\n  dup1\n    /* \"#utility.yul\":187:199   */\n  revert\n    /* \"#utility.yul\":334:411   */\ntag_10:\n    /* \"#utility.yul\":371:378   */\n  0x00\n    /* \"#utility.yul\":400:405   */\n  dup2\n    /* \"#utility.yul\":389:405   */\n  swap1\n  pop\n    /* \"#utility.yul\":334:411   */\n  swap2\n  swap1\n  pop\n  jump\t// out\n    /* \"#utility.yul\":417:539   */\ntag_11:\n    /* \"#utility.yul\":490:514   */\n  tag_19\n    /* \"#utility.yul\":508:513   */\n  dup2\n    /* \"#utility.yul\":490:514   */\n  tag_10\n  jump\t// in\ntag_19:\n    /* \"#utility.yul\":483:488   */\n  dup2\n    /* \"#utility.yul\":480:515   */\n  eq\n    /* \"#utility.yul\":470:533   */\n  tag_20\n  jumpi\n    /* \"#utility.yul\":529:530   */\n  0x00\n    /* \"#utility.yul\":526:527   */\n  dup1\n    /* \"#utility.yul\":519:531   */\n  revert\n    /* \"#utility.yul\":470:533   */\ntag_20:\n    /* \"#utility.yul\":417:539   */\n  pop\n  jump\t// out\n    /* \"#utility.yul\":545:688   */\ntag_12:\n    /* \"#utility.yul\":602:607   */\n  0x00\n    /* \"#utility.yul\":633:639   */\n  dup2\n    /* \"#utility.yul\":627:640   */\n  mload\n    /* \"#utility.yul\":618:640   */\n  swap1\n  pop\n    /* \"#utility.yul\":649:682   */\n  tag_22\n    /* \"#utility.yul\":676:681   */\n  dup2\n    /* \"#utility.yul\":649:682   */\n  tag_11\n  jump\t// in\ntag_22:\n    /* \"#utility.yul\":545:688   */\n  swap3\n  swap2\n  pop\n  pop\n  jump\t// out\n    /* \"#utility.yul\":694:1045   */\ntag_3:\n    /* \"#utility.yul\":764:770   */\n  0x00\n    /* \"#utility.yul\":813:815   */\n  0x20\n    /* \"#utility.yul\":801:810   */\n  dup3\n    /* \"#utility.yul\":792:799   */\n  dup5\n    /* \"#utility.yul\":788:811   */\n  sub\n    /* \"#utility.yul\":784:816   */\n  slt\n    /* \"#utility.yul\":781:900   */\n  iszero\n  tag_24\n  jumpi\n    /* \"#utility.yul\":819:898   */\n  tag_25\n  tag_8\n  jump\t// in\ntag_25:\n    /* \"#utility.yul\":781:900   */\ntag_24:\n    /* \"#utility.yul\":939:940   */\n  0x00\n    /* \"#utility.yul\":964:1028   */\n  tag_26\n    /* \"#utility.yul\":1020:1027   */\n  dup5\n    /* \"#utility.yul\":1011:1017   */\n  dup3\n    /* \"#utility.yul\":1000:1009   */\n  dup6\n    /* \"#utility.yul\":996:1018   */\n  add\n    /* \"#utility.yul\":964:1028   */\n  tag_12\n  jump\t// in\ntag_26:\n    /* \"#utility.yul\":954:1028   */\n  swap2\n  pop\n    /* \"#utility.yul\":910:1038   */\n  pop\n    /* \"#utility.yul\":694:1045   */\n  swap3\n  swap2\n  pop\n  pop\n  jump\t// out\n    /* \"fundMe/FundMe.sol\":555:4661  contract FundMe {... */\ntag_6:\n  dataSize(sub_0)\n  dup1\n  dataOffset(sub_0)\n  0x00\n  codecopy\n  0x00\n  return\nstop\n\nsub_0: assembly {\n        /* \"fundMe/FundMe.sol\":555:4661  contract FundMe {... */\n      mstore(0x40, 0x80)\n      jumpi(tag_1, lt(calldatasize, 0x04))\n      shr(0xe0, calldataload(0x00))\n      dup1\n      0x590e1ae3\n      eq\n      tag_2\n      jumpi\n      dup1\n      0x8863dd1a\n      eq\n      tag_3\n      jumpi\n      dup1\n      0x8edd6eb6\n      eq\n      tag_4\n      jumpi\n      dup1\n      0x9f883a05\n      eq\n      tag_5\n      jumpi\n      dup1\n      0xb60d4288\n      eq\n      tag_6\n      jumpi\n      dup1\n      0xbea4dfb5\n      eq\n      tag_7\n      jumpi\n    tag_1:\n      0x00\n      dup1\n      revert\n        /* \"fundMe/FundMe.sol\":3798:4283  function refund() external WindowClosed{... */\n    tag_2:\n      callvalue\n      dup1\n      iszero\n      tag_8\n      jumpi\n      0x00\n      dup1\n      revert\n    tag_8:\n      pop\n      tag_9\n      tag_10\n      jump\t// in\n    tag_9:\n      stop\n        /* \"fundMe/FundMe.sol\":3677:3776  function transferOwnerShip(address _newOwner) public onlyOwner {... */\n    tag_3:\n      callvalue\n      dup1\n      iszero\n      tag_11\n      jumpi\n      0x00\n      dup1\n      revert\n    tag_11:\n      pop\n      tag_12\n      0x04\n      dup1\n      calldatasize\n      sub\n      dup2\n      add\n      swap1\n      tag_13\n      swap2\n      swap1\n      tag_14\n      jump\t// in\n    tag_13:\n      tag_15\n      jump\t// in\n    tag_12:\n      stop\n        /* \"fundMe/FundMe.sol\":2830:3650  function getFund() external WindowClosed onlyOwner{... */\n    tag_4:\n      callvalue\n      dup1\n      iszero\n      tag_16\n      jumpi\n      0x00\n      dup1\n      revert\n    tag_16:\n      pop\n      tag_17\n      tag_18\n      jump\t// in\n    tag_17:\n      stop\n        /* \"fundMe/FundMe.sol\":580:630  mapping(address => uint256) public fundersToAmount */\n    tag_5:\n      callvalue\n      dup1\n      iszero\n      tag_19\n      jumpi\n      0x00\n      dup1\n      revert\n    tag_19:\n      pop\n      tag_20\n      0x04\n      dup1\n      calldatasize\n      sub\n      dup2\n      add\n      swap1\n      tag_21\n      swap2\n      swap1\n      tag_14\n      jump\t// in\n    tag_21:\n      tag_22\n      jump\t// in\n    tag_20:\n      mload(0x40)\n      tag_23\n      swap2\n      swap1\n      tag_24\n      jump\t// in\n    tag_23:\n      mload(0x40)\n      dup1\n      swap2\n      sub\n      swap1\n      return\n        /* \"fundMe/FundMe.sol\":1660:2075  function fund() external payable { ... */\n    tag_6:\n      tag_25\n      tag_26\n      jump\t// in\n    tag_25:\n      stop\n        /* \"fundMe/FundMe.sol\":2109:2457  function getChainlinkDataFeedLatestAnswer() public view returns (int) {... */\n    tag_7:\n      callvalue\n      dup1\n      iszero\n      tag_27\n      jumpi\n      0x00\n      dup1\n      revert\n    tag_27:\n      pop\n      tag_28\n      tag_29\n      jump\t// in\n    tag_28:\n      mload(0x40)\n      tag_30\n      swap2\n      swap1\n      tag_31\n      jump\t// in\n    tag_30:\n      mload(0x40)\n      dup1\n      swap2\n      sub\n      swap1\n      return\n        /* \"fundMe/FundMe.sol\":3798:4283  function refund() external WindowClosed{... */\n    tag_10:\n        /* \"fundMe/FundMe.sol\":4416:4424  lockTime */\n      sload(0x03)\n        /* \"fundMe/FundMe.sol\":4394:4413  deploymentTimestamp */\n      sload(0x02)\n        /* \"fundMe/FundMe.sol\":4394:4424  deploymentTimestamp + lockTime */\n      tag_33\n      swap2\n      swap1\n      tag_34\n      jump\t// in\n    tag_33:\n        /* \"fundMe/FundMe.sol\":4375:4390  block.timestamp */\n      timestamp\n        /* \"fundMe/FundMe.sol\":4375:4424  block.timestamp >= deploymentTimestamp + lockTime */\n      lt\n      iszero\n        /* \"fundMe/FundMe.sol\":4367:4449  require(block.timestamp >= deploymentTimestamp + lockTime, \"Window is not closed\") */\n      tag_35\n      jumpi\n      mload(0x40)\n      0x08c379a000000000000000000000000000000000000000000000000000000000\n      dup2\n      mstore\n      0x04\n      add\n      tag_36\n      swap1\n      tag_37\n      jump\t// in\n    tag_36:\n      mload(0x40)\n      dup1\n      swap2\n      sub\n      swap1\n      revert\n    tag_35:\n        /* \"fundMe/FundMe.sol\":755:758  200 */\n      0xc8\n        /* \"fundMe/FundMe.sol\":3856:3894  convertEthToUsd(address(this).balance) */\n      tag_39\n        /* \"fundMe/FundMe.sol\":3872:3893  address(this).balance */\n      selfbalance\n        /* \"fundMe/FundMe.sol\":3856:3871  convertEthToUsd */\n      tag_40\n        /* \"fundMe/FundMe.sol\":3856:3894  convertEthToUsd(address(this).balance) */\n      jump\t// in\n    tag_39:\n        /* \"fundMe/FundMe.sol\":3856:3903  convertEthToUsd(address(this).balance) < TARGET */\n      lt\n        /* \"fundMe/FundMe.sol\":3848:3926  require(convertEthToUsd(address(this).balance) < TARGET, \"Target is reached!\") */\n      tag_41\n      jumpi\n      mload(0x40)\n      0x08c379a000000000000000000000000000000000000000000000000000000000\n      dup2\n      mstore\n      0x04\n      add\n      tag_42\n      swap1\n      tag_43\n      jump\t// in\n    tag_42:\n      mload(0x40)\n      dup1\n      swap2\n      sub\n      swap1\n      revert\n    tag_41:\n        /* \"fundMe/FundMe.sol\":3976:3977  0 */\n      0x00\n        /* \"fundMe/FundMe.sol\":3945:3960  fundersToAmount */\n      dup1\n        /* \"fundMe/FundMe.sol\":3945:3972  fundersToAmount[msg.sender] */\n      0x00\n        /* \"fundMe/FundMe.sol\":3961:3971  msg.sender */\n      caller\n        /* \"fundMe/FundMe.sol\":3945:3972  fundersToAmount[msg.sender] */\n      0xffffffffffffffffffffffffffffffffffffffff\n      and\n      0xffffffffffffffffffffffffffffffffffffffff\n      and\n      dup2\n      mstore\n      0x20\n      add\n      swap1\n      dup2\n      mstore\n      0x20\n      add\n      0x00\n      keccak256\n      sload\n        /* \"fundMe/FundMe.sol\":3945:3977  fundersToAmount[msg.sender] != 0 */\n      sub\n        /* \"fundMe/FundMe.sol\":3937:4006  require(fundersToAmount[msg.sender] != 0, \"There is no fund for you\") */\n      tag_44\n      jumpi\n      mload(0x40)\n      0x08c379a000000000000000000000000000000000000000000000000000000000\n      dup2\n      mstore\n      0x04\n      add\n      tag_45\n      swap1\n      tag_46\n      jump\t// in\n    tag_45:\n      mload(0x40)\n      dup1\n      swap2\n      sub\n      swap1\n      revert\n    tag_44:\n        /* \"fundMe/FundMe.sol\":4086:4097  bool result */\n      0x00\n        /* \"fundMe/FundMe.sol\":4129:4139  msg.sender */\n      caller\n        /* \"fundMe/FundMe.sol\":4121:4145  payable(msg.sender).call */\n      0xffffffffffffffffffffffffffffffffffffffff\n      and\n        /* \"fundMe/FundMe.sol\":4153:4168  fundersToAmount */\n      0x00\n        /* \"fundMe/FundMe.sol\":4153:4180  fundersToAmount[msg.sender] */\n      dup1\n        /* \"fundMe/FundMe.sol\":4169:4179  msg.sender */\n      caller\n        /* \"fundMe/FundMe.sol\":4153:4180  fundersToAmount[msg.sender] */\n      0xffffffffffffffffffffffffffffffffffffffff\n      and\n      0xffffffffffffffffffffffffffffffffffffffff\n      and\n      dup2\n      mstore\n      0x20\n      add\n      swap1\n      dup2\n      mstore\n      0x20\n      add\n      0x00\n      keccak256\n      sload\n        /* \"fundMe/FundMe.sol\":4121:4185  payable(msg.sender).call{value: fundersToAmount[msg.sender]}(\"\") */\n      mload(0x40)\n      tag_47\n      swap1\n      tag_48\n      jump\t// in\n    tag_47:\n      0x00\n      mload(0x40)\n      dup1\n      dup4\n      sub\n      dup2\n      dup6\n      dup8\n      gas\n      call\n      swap3\n      pop\n      pop\n      pop\n      returndatasize\n      dup1\n      0x00\n      dup2\n      eq\n      tag_51\n      jumpi\n      mload(0x40)\n      swap2\n      pop\n      and(add(returndatasize, 0x3f), not(0x1f))\n      dup3\n      add\n      0x40\n      mstore\n      returndatasize\n      dup3\n      mstore\n      returndatasize\n      0x00\n      0x20\n      dup5\n      add\n      returndatacopy\n      jump(tag_50)\n    tag_51:\n      0x60\n      swap2\n      pop\n    tag_50:\n      pop\n        /* \"fundMe/FundMe.sol\":4108:4185  (result, ) = payable(msg.sender).call{value: fundersToAmount[msg.sender]}(\"\") */\n      pop\n      dup1\n      swap2\n      pop\n      pop\n        /* \"fundMe/FundMe.sol\":4204:4210  result */\n      dup1\n        /* \"fundMe/FundMe.sol\":4196:4233  require(result, \"Transfer is failed\") */\n      tag_52\n      jumpi\n      mload(0x40)\n      0x08c379a000000000000000000000000000000000000000000000000000000000\n      dup2\n      mstore\n      0x04\n      add\n      tag_53\n      swap1\n      tag_54\n      jump\t// in\n    tag_53:\n      mload(0x40)\n      dup1\n      swap2\n      sub\n      swap1\n      revert\n    tag_52:\n        /* \"fundMe/FundMe.sol\":4274:4275  0 */\n      0x00\n        /* \"fundMe/FundMe.sol\":4244:4259  fundersToAmount */\n      dup1\n        /* \"fundMe/FundMe.sol\":4244:4271  fundersToAmount[msg.sender] */\n      0x00\n        /* \"fundMe/FundMe.sol\":4260:4270  msg.sender */\n      caller\n        /* \"fundMe/FundMe.sol\":4244:4271  fundersToAmount[msg.sender] */\n      0xffffffffffffffffffffffffffffffffffffffff\n      and\n      0xffffffffffffffffffffffffffffffffffffffff\n      and\n      dup2\n      mstore\n      0x20\n      add\n      swap1\n      dup2\n      mstore\n      0x20\n      add\n      0x00\n      keccak256\n        /* \"fundMe/FundMe.sol\":4244:4275  fundersToAmount[msg.sender] = 0 */\n      dup2\n      swap1\n      sstore\n      pop\n        /* \"fundMe/FundMe.sol\":3837:4283  {... */\n      pop\n        /* \"fundMe/FundMe.sol\":3798:4283  function refund() external WindowClosed{... */\n      jump\t// out\n        /* \"fundMe/FundMe.sol\":3677:3776  function transferOwnerShip(address _newOwner) public onlyOwner {... */\n    tag_15:\n        /* \"fundMe/FundMe.sol\":4589:4594  owner */\n      0x01\n      0x00\n      swap1\n      sload\n      swap1\n      0x0100\n      exp\n      swap1\n      div\n      0xffffffffffffffffffffffffffffffffffffffff\n      and\n        /* \"fundMe/FundMe.sol\":4575:4594  msg.sender == owner */\n      0xffffffffffffffffffffffffffffffffffffffff\n      and\n        /* \"fundMe/FundMe.sol\":4575:4585  msg.sender */\n      caller\n        /* \"fundMe/FundMe.sol\":4575:4594  msg.sender == owner */\n      0xffffffffffffffffffffffffffffffffffffffff\n      and\n      eq\n        /* \"fundMe/FundMe.sol\":4567:4638  require(msg.sender == owner, \"This function can only be call by owner\") */\n      tag_56\n      jumpi\n      mload(0x40)\n      0x08c379a000000000000000000000000000000000000000000000000000000000\n      dup2\n      mstore\n      0x04\n      add\n      tag_57\n      swap1\n      tag_58\n      jump\t// in\n    tag_57:\n      mload(0x40)\n      dup1\n      swap2\n      sub\n      swap1\n      revert\n    tag_56:\n        /* \"fundMe/FundMe.sol\":3759:3768  _newOwner */\n      dup1\n        /* \"fundMe/FundMe.sol\":3751:3756  owner */\n      0x01\n      0x00\n        /* \"fundMe/FundMe.sol\":3751:3768  owner = _newOwner */\n      0x0100\n      exp\n      dup2\n      sload\n      dup2\n      0xffffffffffffffffffffffffffffffffffffffff\n      mul\n      not\n      and\n      swap1\n      dup4\n      0xffffffffffffffffffffffffffffffffffffffff\n      and\n      mul\n      or\n      swap1\n      sstore\n      pop\n        /* \"fundMe/FundMe.sol\":3677:3776  function transferOwnerShip(address _newOwner) public onlyOwner {... */\n      pop\n      jump\t// out\n        /* \"fundMe/FundMe.sol\":2830:3650  function getFund() external WindowClosed onlyOwner{... */\n    tag_18:\n        /* \"fundMe/FundMe.sol\":4416:4424  lockTime */\n      sload(0x03)\n        /* \"fundMe/FundMe.sol\":4394:4413  deploymentTimestamp */\n      sload(0x02)\n        /* \"fundMe/FundMe.sol\":4394:4424  deploymentTimestamp + lockTime */\n      tag_61\n      swap2\n      swap1\n      tag_34\n      jump\t// in\n    tag_61:\n        /* \"fundMe/FundMe.sol\":4375:4390  block.timestamp */\n      timestamp\n        /* \"fundMe/FundMe.sol\":4375:4424  block.timestamp >= deploymentTimestamp + lockTime */\n      lt\n      iszero\n        /* \"fundMe/FundMe.sol\":4367:4449  require(block.timestamp >= deploymentTimestamp + lockTime, \"Window is not closed\") */\n      tag_62\n      jumpi\n      mload(0x40)\n      0x08c379a000000000000000000000000000000000000000000000000000000000\n      dup2\n      mstore\n      0x04\n      add\n      tag_63\n      swap1\n      tag_37\n      jump\t// in\n    tag_63:\n      mload(0x40)\n      dup1\n      swap2\n      sub\n      swap1\n      revert\n    tag_62:\n        /* \"fundMe/FundMe.sol\":4589:4594  owner */\n      0x01\n      0x00\n      swap1\n      sload\n      swap1\n      0x0100\n      exp\n      swap1\n      div\n      0xffffffffffffffffffffffffffffffffffffffff\n      and\n        /* \"fundMe/FundMe.sol\":4575:4594  msg.sender == owner */\n      0xffffffffffffffffffffffffffffffffffffffff\n      and\n        /* \"fundMe/FundMe.sol\":4575:4585  msg.sender */\n      caller\n        /* \"fundMe/FundMe.sol\":4575:4594  msg.sender == owner */\n      0xffffffffffffffffffffffffffffffffffffffff\n      and\n      eq\n        /* \"fundMe/FundMe.sol\":4567:4638  require(msg.sender == owner, \"This function can only be call by owner\") */\n      tag_65\n      jumpi\n      mload(0x40)\n      0x08c379a000000000000000000000000000000000000000000000000000000000\n      dup2\n      mstore\n      0x04\n      add\n      tag_66\n      swap1\n      tag_58\n      jump\t// in\n    tag_66:\n      mload(0x40)\n      dup1\n      swap2\n      sub\n      swap1\n      revert\n    tag_65:\n        /* \"fundMe/FundMe.sol\":755:758  200 */\n      0xc8\n        /* \"fundMe/FundMe.sol\":3092:3130  convertEthToUsd(address(this).balance) */\n      tag_68\n        /* \"fundMe/FundMe.sol\":3108:3129  address(this).balance */\n      selfbalance\n        /* \"fundMe/FundMe.sol\":3092:3107  convertEthToUsd */\n      tag_40\n        /* \"fundMe/FundMe.sol\":3092:3130  convertEthToUsd(address(this).balance) */\n      jump\t// in\n    tag_68:\n        /* \"fundMe/FundMe.sol\":3092:3140  convertEthToUsd(address(this).balance) >= TARGET */\n      lt\n      iszero\n        /* \"fundMe/FundMe.sol\":3084:3167  require(convertEthToUsd(address(this).balance) >= TARGET, \"Target is not reached!\") */\n      tag_69\n      jumpi\n      mload(0x40)\n      0x08c379a000000000000000000000000000000000000000000000000000000000\n      dup2\n      mstore\n      0x04\n      add\n      tag_70\n      swap1\n      tag_71\n      jump\t// in\n    tag_70:\n      mload(0x40)\n      dup1\n      swap2\n      sub\n      swap1\n      revert\n    tag_69:\n        /* \"fundMe/FundMe.sol\":3501:3512  bool result */\n      0x00\n        /* \"fundMe/FundMe.sol\":3544:3554  msg.sender */\n      caller\n        /* \"fundMe/FundMe.sol\":3536:3560  payable(msg.sender).call */\n      0xffffffffffffffffffffffffffffffffffffffff\n      and\n        /* \"fundMe/FundMe.sol\":3568:3589  address(this).balance */\n      selfbalance\n        /* \"fundMe/FundMe.sol\":3536:3594  payable(msg.sender).call{value: address(this).balance}(\"\") */\n      mload(0x40)\n      tag_72\n      swap1\n      tag_48\n      jump\t// in\n    tag_72:\n      0x00\n      mload(0x40)\n      dup1\n      dup4\n      sub\n      dup2\n      dup6\n      dup8\n      gas\n      call\n      swap3\n      pop\n      pop\n      pop\n      returndatasize\n      dup1\n      0x00\n      dup2\n      eq\n      tag_75\n      jumpi\n      mload(0x40)\n      swap2\n      pop\n      and(add(returndatasize, 0x3f), not(0x1f))\n      dup3\n      add\n      0x40\n      mstore\n      returndatasize\n      dup3\n      mstore\n      returndatasize\n      0x00\n      0x20\n      dup5\n      add\n      returndatacopy\n      jump(tag_74)\n    tag_75:\n      0x60\n      swap2\n      pop\n    tag_74:\n      pop\n        /* \"fundMe/FundMe.sol\":3523:3594  (result, ) = payable(msg.sender).call{value: address(this).balance}(\"\") */\n      pop\n      dup1\n      swap2\n      pop\n      pop\n        /* \"fundMe/FundMe.sol\":3613:3619  result */\n      dup1\n        /* \"fundMe/FundMe.sol\":3605:3642  require(result, \"Transfer is failed\") */\n      tag_76\n      jumpi\n      mload(0x40)\n      0x08c379a000000000000000000000000000000000000000000000000000000000\n      dup2\n      mstore\n      0x04\n      add\n      tag_77\n      swap1\n      tag_54\n      jump\t// in\n    tag_77:\n      mload(0x40)\n      dup1\n      swap2\n      sub\n      swap1\n      revert\n    tag_76:\n        /* \"fundMe/FundMe.sol\":2880:3650  {... */\n      pop\n        /* \"fundMe/FundMe.sol\":2830:3650  function getFund() external WindowClosed onlyOwner{... */\n      jump\t// out\n        /* \"fundMe/FundMe.sol\":580:630  mapping(address => uint256) public fundersToAmount */\n    tag_22:\n      mstore(0x20, 0x00)\n      dup1\n      0x00\n      mstore\n      keccak256(0x00, 0x40)\n      0x00\n      swap2\n      pop\n      swap1\n      pop\n      sload\n      dup2\n      jump\t// out\n        /* \"fundMe/FundMe.sol\":1660:2075  function fund() external payable { ... */\n    tag_26:\n        /* \"fundMe/FundMe.sol\":702:716  100 * 10 ** 18 */\n      0x056bc75e2d63100000\n        /* \"fundMe/FundMe.sol\":1777:1803  convertEthToUsd(msg.value) */\n      tag_79\n        /* \"fundMe/FundMe.sol\":1793:1802  msg.value */\n      callvalue\n        /* \"fundMe/FundMe.sol\":1777:1792  convertEthToUsd */\n      tag_40\n        /* \"fundMe/FundMe.sol\":1777:1803  convertEthToUsd(msg.value) */\n      jump\t// in\n    tag_79:\n        /* \"fundMe/FundMe.sol\":1777:1818  convertEthToUsd(msg.value)>=MINIMUM_VALUE */\n      lt\n      iszero\n        /* \"fundMe/FundMe.sol\":1769:1866  require(convertEthToUsd(msg.value)>=MINIMUM_VALUE, \"Send more ETH, The minimum ETH value is one\") */\n      tag_80\n      jumpi\n      mload(0x40)\n      0x08c379a000000000000000000000000000000000000000000000000000000000\n      dup2\n      mstore\n      0x04\n      add\n      tag_81\n      swap1\n      tag_82\n      jump\t// in\n    tag_81:\n      mload(0x40)\n      dup1\n      swap2\n      sub\n      swap1\n      revert\n    tag_80:\n        /* \"fundMe/FundMe.sol\":1988:1996  lockTime */\n      sload(0x03)\n        /* \"fundMe/FundMe.sol\":1966:1985  deploymentTimestamp */\n      sload(0x02)\n        /* \"fundMe/FundMe.sol\":1966:1996  deploymentTimestamp + lockTime */\n      tag_83\n      swap2\n      swap1\n      tag_34\n      jump\t// in\n    tag_83:\n        /* \"fundMe/FundMe.sol\":1948:1963  block.timestamp */\n      timestamp\n        /* \"fundMe/FundMe.sol\":1948:1996  block.timestamp < deploymentTimestamp + lockTime */\n      lt\n        /* \"fundMe/FundMe.sol\":1940:2017  require(block.timestamp < deploymentTimestamp + lockTime, \"Window is closed\") */\n      tag_84\n      jumpi\n      mload(0x40)\n      0x08c379a000000000000000000000000000000000000000000000000000000000\n      dup2\n      mstore\n      0x04\n      add\n      tag_85\n      swap1\n      tag_86\n      jump\t// in\n    tag_85:\n      mload(0x40)\n      dup1\n      swap2\n      sub\n      swap1\n      revert\n    tag_84:\n        /* \"fundMe/FundMe.sol\":2058:2067  msg.value */\n      callvalue\n        /* \"fundMe/FundMe.sol\":2028:2043  fundersToAmount */\n      0x00\n        /* \"fundMe/FundMe.sol\":2028:2055  fundersToAmount[msg.sender] */\n      dup1\n        /* \"fundMe/FundMe.sol\":2044:2054  msg.sender */\n      caller\n        /* \"fundMe/FundMe.sol\":2028:2055  fundersToAmount[msg.sender] */\n      0xffffffffffffffffffffffffffffffffffffffff\n      and\n      0xffffffffffffffffffffffffffffffffffffffff\n      and\n      dup2\n      mstore\n      0x20\n      add\n      swap1\n      dup2\n      mstore\n      0x20\n      add\n      0x00\n      keccak256\n        /* \"fundMe/FundMe.sol\":2028:2067  fundersToAmount[msg.sender] = msg.value */\n      dup2\n      swap1\n      sstore\n      pop\n        /* \"fundMe/FundMe.sol\":1660:2075  function fund() external payable { ... */\n      jump\t// out\n        /* \"fundMe/FundMe.sol\":2109:2457  function getChainlinkDataFeedLatestAnswer() public view returns (int) {... */\n    tag_29:\n        /* \"fundMe/FundMe.sol\":2174:2177  int */\n      0x00\n        /* \"fundMe/FundMe.sol\":2268:2278  int answer */\n      dup1\n        /* \"fundMe/FundMe.sol\":2399:2407  dataFeed */\n      0x04\n      0x00\n      swap1\n      sload\n      swap1\n      0x0100\n      exp\n      swap1\n      div\n      0xffffffffffffffffffffffffffffffffffffffff\n      and\n        /* \"fundMe/FundMe.sol\":2399:2423  dataFeed.latestRoundData */\n      0xffffffffffffffffffffffffffffffffffffffff\n      and\n      0xfeaf968c\n        /* \"fundMe/FundMe.sol\":2399:2425  dataFeed.latestRoundData() */\n      mload(0x40)\n      dup2\n      0xffffffff\n      and\n      0xe0\n      shl\n      dup2\n      mstore\n      0x04\n      add\n      0xa0\n      mload(0x40)\n      dup1\n      dup4\n      sub\n      dup2\n      dup7\n      gas\n      staticcall\n      iszero\n      dup1\n      iszero\n      tag_89\n      jumpi\n      returndatasize\n      0x00\n      dup1\n      returndatacopy\n      revert(0x00, returndatasize)\n    tag_89:\n      pop\n      pop\n      pop\n      pop\n      mload(0x40)\n      returndatasize\n      not(0x1f)\n      0x1f\n      dup3\n      add\n      and\n      dup3\n      add\n      dup1\n      0x40\n      mstore\n      pop\n      dup2\n      add\n      swap1\n      tag_90\n      swap2\n      swap1\n      tag_91\n      jump\t// in\n    tag_90:\n        /* \"fundMe/FundMe.sol\":2218:2425  (... */\n      pop\n      pop\n      pop\n      swap2\n      pop\n      pop\n        /* \"fundMe/FundMe.sol\":2443:2449  answer */\n      dup1\n        /* \"fundMe/FundMe.sol\":2436:2449  return answer */\n      swap2\n      pop\n      pop\n        /* \"fundMe/FundMe.sol\":2109:2457  function getChainlinkDataFeedLatestAnswer() public view returns (int) {... */\n      swap1\n      jump\t// out\n        /* \"fundMe/FundMe.sol\":2465:2780  function convertEthToUsd(uint256 _ethAmount) internal view returns(uint256) {... */\n    tag_40:\n        /* \"fundMe/FundMe.sol\":2532:2539  uint256 */\n      0x00\n        /* \"fundMe/FundMe.sol\":2552:2568  uint256 ethPrice */\n      dup1\n        /* \"fundMe/FundMe.sol\":2579:2613  getChainlinkDataFeedLatestAnswer() */\n      tag_93\n        /* \"fundMe/FundMe.sol\":2579:2611  getChainlinkDataFeedLatestAnswer */\n      tag_29\n        /* \"fundMe/FundMe.sol\":2579:2613  getChainlinkDataFeedLatestAnswer() */\n      jump\t// in\n    tag_93:\n        /* \"fundMe/FundMe.sol\":2552:2614  uint256 ethPrice = uint256(getChainlinkDataFeedLatestAnswer()) */\n      swap1\n      pop\n        /* \"fundMe/FundMe.sol\":2738:2743  10**8 */\n      0x05f5e100\n        /* \"fundMe/FundMe.sol\":2728:2736  ethPrice */\n      dup2\n        /* \"fundMe/FundMe.sol\":2715:2725  _ethAmount */\n      dup5\n        /* \"fundMe/FundMe.sol\":2715:2736  _ethAmount * ethPrice */\n      tag_94\n      swap2\n      swap1\n      tag_95\n      jump\t// in\n    tag_94:\n        /* \"fundMe/FundMe.sol\":2715:2744  _ethAmount * ethPrice/(10**8) */\n      tag_96\n      swap2\n      swap1\n      tag_97\n      jump\t// in\n    tag_96:\n        /* \"fundMe/FundMe.sol\":2708:2744  return _ethAmount * ethPrice/(10**8) */\n      swap2\n      pop\n      pop\n        /* \"fundMe/FundMe.sol\":2465:2780  function convertEthToUsd(uint256 _ethAmount) internal view returns(uint256) {... */\n      swap2\n      swap1\n      pop\n      jump\t// out\n        /* \"#utility.yul\":88:205   */\n    tag_99:\n        /* \"#utility.yul\":197:198   */\n      0x00\n        /* \"#utility.yul\":194:195   */\n      dup1\n        /* \"#utility.yul\":187:199   */\n      revert\n        /* \"#utility.yul\":334:460   */\n    tag_101:\n        /* \"#utility.yul\":371:378   */\n      0x00\n        /* \"#utility.yul\":411:453   */\n      0xffffffffffffffffffffffffffffffffffffffff\n        /* \"#utility.yul\":404:409   */\n      dup3\n        /* \"#utility.yul\":400:454   */\n      and\n        /* \"#utility.yul\":389:454   */\n      swap1\n      pop\n        /* \"#utility.yul\":334:460   */\n      swap2\n      swap1\n      pop\n      jump\t// out\n        /* \"#utility.yul\":466:562   */\n    tag_102:\n        /* \"#utility.yul\":503:510   */\n      0x00\n        /* \"#utility.yul\":532:556   */\n      tag_144\n        /* \"#utility.yul\":550:555   */\n      dup3\n        /* \"#utility.yul\":532:556   */\n      tag_101\n      jump\t// in\n    tag_144:\n        /* \"#utility.yul\":521:556   */\n      swap1\n      pop\n        /* \"#utility.yul\":466:562   */\n      swap2\n      swap1\n      pop\n      jump\t// out\n        /* \"#utility.yul\":568:690   */\n    tag_103:\n        /* \"#utility.yul\":641:665   */\n      tag_146\n        /* \"#utility.yul\":659:664   */\n      dup2\n        /* \"#utility.yul\":641:665   */\n      tag_102\n      jump\t// in\n    tag_146:\n        /* \"#utility.yul\":634:639   */\n      dup2\n        /* \"#utility.yul\":631:666   */\n      eq\n        /* \"#utility.yul\":621:684   */\n      tag_147\n      jumpi\n        /* \"#utility.yul\":680:681   */\n      0x00\n        /* \"#utility.yul\":677:678   */\n      dup1\n        /* \"#utility.yul\":670:682   */\n      revert\n        /* \"#utility.yul\":621:684   */\n    tag_147:\n        /* \"#utility.yul\":568:690   */\n      pop\n      jump\t// out\n        /* \"#utility.yul\":696:835   */\n    tag_104:\n        /* \"#utility.yul\":742:747   */\n      0x00\n        /* \"#utility.yul\":780:786   */\n      dup2\n        /* \"#utility.yul\":767:787   */\n      calldataload\n        /* \"#utility.yul\":758:787   */\n      swap1\n      pop\n        /* \"#utility.yul\":796:829   */\n      tag_149\n        /* \"#utility.yul\":823:828   */\n      dup2\n        /* \"#utility.yul\":796:829   */\n      tag_103\n      jump\t// in\n    tag_149:\n        /* \"#utility.yul\":696:835   */\n      swap3\n      swap2\n      pop\n      pop\n      jump\t// out\n        /* \"#utility.yul\":841:1170   */\n    tag_14:\n        /* \"#utility.yul\":900:906   */\n      0x00\n        /* \"#utility.yul\":949:951   */\n      0x20\n        /* \"#utility.yul\":937:946   */\n      dup3\n        /* \"#utility.yul\":928:935   */\n      dup5\n        /* \"#utility.yul\":924:947   */\n      sub\n        /* \"#utility.yul\":920:952   */\n      slt\n        /* \"#utility.yul\":917:1036   */\n      iszero\n      tag_151\n      jumpi\n        /* \"#utility.yul\":955:1034   */\n      tag_152\n      tag_99\n      jump\t// in\n    tag_152:\n        /* \"#utility.yul\":917:1036   */\n    tag_151:\n        /* \"#utility.yul\":1075:1076   */\n      0x00\n        /* \"#utility.yul\":1100:1153   */\n      tag_153\n        /* \"#utility.yul\":1145:1152   */\n      dup5\n        /* \"#utility.yul\":1136:1142   */\n      dup3\n        /* \"#utility.yul\":1125:1134   */\n      dup6\n        /* \"#utility.yul\":1121:1143   */\n      add\n        /* \"#utility.yul\":1100:1153   */\n      tag_104\n      jump\t// in\n    tag_153:\n        /* \"#utility.yul\":1090:1153   */\n      swap2\n      pop\n        /* \"#utility.yul\":1046:1163   */\n      pop\n        /* \"#utility.yul\":841:1170   */\n      swap3\n      swap2\n      pop\n      pop\n      jump\t// out\n        /* \"#utility.yul\":1176:1253   */\n    tag_105:\n        /* \"#utility.yul\":1213:1220   */\n      0x00\n        /* \"#utility.yul\":1242:1247   */\n      dup2\n        /* \"#utility.yul\":1231:1247   */\n      swap1\n      pop\n        /* \"#utility.yul\":1176:1253   */\n      swap2\n      swap1\n      pop\n      jump\t// out\n        /* \"#utility.yul\":1259:1377   */\n    tag_106:\n        /* \"#utility.yul\":1346:1370   */\n      tag_156\n        /* \"#utility.yul\":1364:1369   */\n      dup2\n        /* \"#utility.yul\":1346:1370   */\n      tag_105\n      jump\t// in\n    tag_156:\n        /* \"#utility.yul\":1341:1344   */\n      dup3\n        /* \"#utility.yul\":1334:1371   */\n      mstore\n        /* \"#utility.yul\":1259:1377   */\n      pop\n      pop\n      jump\t// out\n        /* \"#utility.yul\":1383:1605   */\n    tag_24:\n        /* \"#utility.yul\":1476:1480   */\n      0x00\n        /* \"#utility.yul\":1514:1516   */\n      0x20\n        /* \"#utility.yul\":1503:1512   */\n      dup3\n        /* \"#utility.yul\":1499:1517   */\n      add\n        /* \"#utility.yul\":1491:1517   */\n      swap1\n      pop\n        /* \"#utility.yul\":1527:1598   */\n      tag_158\n        /* \"#utility.yul\":1595:1596   */\n      0x00\n        /* \"#utility.yul\":1584:1593   */\n      dup4\n        /* \"#utility.yul\":1580:1597   */\n      add\n        /* \"#utility.yul\":1571:1577   */\n      dup5\n        /* \"#utility.yul\":1527:1598   */\n      tag_106\n      jump\t// in\n    tag_158:\n        /* \"#utility.yul\":1383:1605   */\n      swap3\n      swap2\n      pop\n      pop\n      jump\t// out\n        /* \"#utility.yul\":1611:1687   */\n    tag_107:\n        /* \"#utility.yul\":1647:1654   */\n      0x00\n        /* \"#utility.yul\":1676:1681   */\n      dup2\n        /* \"#utility.yul\":1665:1681   */\n      swap1\n      pop\n        /* \"#utility.yul\":1611:1687   */\n      swap2\n      swap1\n      pop\n      jump\t// out\n        /* \"#utility.yul\":1693:1808   */\n    tag_108:\n        /* \"#utility.yul\":1778:1801   */\n      tag_161\n        /* \"#utility.yul\":1795:1800   */\n      dup2\n        /* \"#utility.yul\":1778:1801   */\n      tag_107\n      jump\t// in\n    tag_161:\n        /* \"#utility.yul\":1773:1776   */\n      dup3\n        /* \"#utility.yul\":1766:1802   */\n      mstore\n        /* \"#utility.yul\":1693:1808   */\n      pop\n      pop\n      jump\t// out\n        /* \"#utility.yul\":1814:2032   */\n    tag_31:\n        /* \"#utility.yul\":1905:1909   */\n      0x00\n        /* \"#utility.yul\":1943:1945   */\n      0x20\n        /* \"#utility.yul\":1932:1941   */\n      dup3\n        /* \"#utility.yul\":1928:1946   */\n      add\n        /* \"#utility.yul\":1920:1946   */\n      swap1\n      pop\n        /* \"#utility.yul\":1956:2025   */\n      tag_163\n        /* \"#utility.yul\":2022:2023   */\n      0x00\n        /* \"#utility.yul\":2011:2020   */\n      dup4\n        /* \"#utility.yul\":2007:2024   */\n      add\n        /* \"#utility.yul\":1998:2004   */\n      dup5\n        /* \"#utility.yul\":1956:2025   */\n      tag_108\n      jump\t// in\n    tag_163:\n        /* \"#utility.yul\":1814:2032   */\n      swap3\n      swap2\n      pop\n      pop\n      jump\t// out\n        /* \"#utility.yul\":2038:2218   */\n    tag_109:\n        /* \"#utility.yul\":2086:2163   */\n      0x4e487b7100000000000000000000000000000000000000000000000000000000\n        /* \"#utility.yul\":2083:2084   */\n      0x00\n        /* \"#utility.yul\":2076:2164   */\n      mstore\n        /* \"#utility.yul\":2183:2187   */\n      0x11\n        /* \"#utility.yul\":2180:2181   */\n      0x04\n        /* \"#utility.yul\":2173:2188   */\n      mstore\n        /* \"#utility.yul\":2207:2211   */\n      0x24\n        /* \"#utility.yul\":2204:2205   */\n      0x00\n        /* \"#utility.yul\":2197:2212   */\n      revert\n        /* \"#utility.yul\":2224:2415   */\n    tag_34:\n        /* \"#utility.yul\":2264:2267   */\n      0x00\n        /* \"#utility.yul\":2283:2303   */\n      tag_166\n        /* \"#utility.yul\":2301:2302   */\n      dup3\n        /* \"#utility.yul\":2283:2303   */\n      tag_105\n      jump\t// in\n    tag_166:\n        /* \"#utility.yul\":2278:2303   */\n      swap2\n      pop\n        /* \"#utility.yul\":2317:2337   */\n      tag_167\n        /* \"#utility.yul\":2335:2336   */\n      dup4\n        /* \"#utility.yul\":2317:2337   */\n      tag_105\n      jump\t// in\n    tag_167:\n        /* \"#utility.yul\":2312:2337   */\n      swap3\n      pop\n        /* \"#utility.yul\":2360:2361   */\n      dup3\n        /* \"#utility.yul\":2357:2358   */\n      dup3\n        /* \"#utility.yul\":2353:2362   */\n      add\n        /* \"#utility.yul\":2346:2362   */\n      swap1\n      pop\n        /* \"#utility.yul\":2381:2384   */\n      dup1\n        /* \"#utility.yul\":2378:2379   */\n      dup3\n        /* \"#utility.yul\":2375:2385   */\n      gt\n        /* \"#utility.yul\":2372:2408   */\n      iszero\n      tag_168\n      jumpi\n        /* \"#utility.yul\":2388:2406   */\n      tag_169\n      tag_109\n      jump\t// in\n    tag_169:\n        /* \"#utility.yul\":2372:2408   */\n    tag_168:\n        /* \"#utility.yul\":2224:2415   */\n      swap3\n      swap2\n      pop\n      pop\n      jump\t// out\n        /* \"#utility.yul\":2421:2590   */\n    tag_110:\n        /* \"#utility.yul\":2505:2516   */\n      0x00\n        /* \"#utility.yul\":2539:2545   */\n      dup3\n        /* \"#utility.yul\":2534:2537   */\n      dup3\n        /* \"#utility.yul\":2527:2546   */\n      mstore\n        /* \"#utility.yul\":2579:2583   */\n      0x20\n        /* \"#utility.yul\":2574:2577   */\n      dup3\n        /* \"#utility.yul\":2570:2584   */\n      add\n        /* \"#utility.yul\":2555:2584   */\n      swap1\n      pop\n        /* \"#utility.yul\":2421:2590   */\n      swap3\n      swap2\n      pop\n      pop\n      jump\t// out\n        /* \"#utility.yul\":2596:2766   */\n    tag_111:\n        /* \"#utility.yul\":2736:2758   */\n      0x57696e646f77206973206e6f7420636c6f736564000000000000000000000000\n        /* \"#utility.yul\":2732:2733   */\n      0x00\n        /* \"#utility.yul\":2724:2730   */\n      dup3\n        /* \"#utility.yul\":2720:2734   */\n      add\n        /* \"#utility.yul\":2713:2759   */\n      mstore\n        /* \"#utility.yul\":2596:2766   */\n      pop\n      jump\t// out\n        /* \"#utility.yul\":2772:3138   */\n    tag_112:\n        /* \"#utility.yul\":2914:2917   */\n      0x00\n        /* \"#utility.yul\":2935:3002   */\n      tag_173\n        /* \"#utility.yul\":2999:3001   */\n      0x14\n        /* \"#utility.yul\":2994:2997   */\n      dup4\n        /* \"#utility.yul\":2935:3002   */\n      tag_110\n      jump\t// in\n    tag_173:\n        /* \"#utility.yul\":2928:3002   */\n      swap2\n      pop\n        /* \"#utility.yul\":3011:3104   */\n      tag_174\n        /* \"#utility.yul\":3100:3103   */\n      dup3\n        /* \"#utility.yul\":3011:3104   */\n      tag_111\n      jump\t// in\n    tag_174:\n        /* \"#utility.yul\":3129:3131   */\n      0x20\n        /* \"#utility.yul\":3124:3127   */\n      dup3\n        /* \"#utility.yul\":3120:3132   */\n      add\n        /* \"#utility.yul\":3113:3132   */\n      swap1\n      pop\n        /* \"#utility.yul\":2772:3138   */\n      swap2\n      swap1\n      pop\n      jump\t// out\n        /* \"#utility.yul\":3144:3563   */\n    tag_37:\n        /* \"#utility.yul\":3310:3314   */\n      0x00\n        /* \"#utility.yul\":3348:3350   */\n      0x20\n        /* \"#utility.yul\":3337:3346   */\n      dup3\n        /* \"#utility.yul\":3333:3351   */\n      add\n        /* \"#utility.yul\":3325:3351   */\n      swap1\n      pop\n        /* \"#utility.yul\":3397:3406   */\n      dup2\n        /* \"#utility.yul\":3391:3395   */\n      dup2\n        /* \"#utility.yul\":3387:3407   */\n      sub\n        /* \"#utility.yul\":3383:3384   */\n      0x00\n        /* \"#utility.yul\":3372:3381   */\n      dup4\n        /* \"#utility.yul\":3368:3385   */\n      add\n        /* \"#utility.yul\":3361:3408   */\n      mstore\n        /* \"#utility.yul\":3425:3556   */\n      tag_176\n        /* \"#utility.yul\":3551:3555   */\n      dup2\n        /* \"#utility.yul\":3425:3556   */\n      tag_112\n      jump\t// in\n    tag_176:\n        /* \"#utility.yul\":3417:3556   */\n      swap1\n      pop\n        /* \"#utility.yul\":3144:3563   */\n      swap2\n      swap1\n      pop\n      jump\t// out\n        /* \"#utility.yul\":3569:3737   */\n    tag_113:\n        /* \"#utility.yul\":3709:3729   */\n      0x5461726765742069732072656163686564210000000000000000000000000000\n        /* \"#utility.yul\":3705:3706   */\n      0x00\n        /* \"#utility.yul\":3697:3703   */\n      dup3\n        /* \"#utility.yul\":3693:3707   */\n      add\n        /* \"#utility.yul\":3686:3730   */\n      mstore\n        /* \"#utility.yul\":3569:3737   */\n      pop\n      jump\t// out\n        /* \"#utility.yul\":3743:4109   */\n    tag_114:\n        /* \"#utility.yul\":3885:3888   */\n      0x00\n        /* \"#utility.yul\":3906:3973   */\n      tag_179\n        /* \"#utility.yul\":3970:3972   */\n      0x12\n        /* \"#utility.yul\":3965:3968   */\n      dup4\n        /* \"#utility.yul\":3906:3973   */\n      tag_110\n      jump\t// in\n    tag_179:\n        /* \"#utility.yul\":3899:3973   */\n      swap2\n      pop\n        /* \"#utility.yul\":3982:4075   */\n      tag_180\n        /* \"#utility.yul\":4071:4074   */\n      dup3\n        /* \"#utility.yul\":3982:4075   */\n      tag_113\n      jump\t// in\n    tag_180:\n        /* \"#utility.yul\":4100:4102   */\n      0x20\n        /* \"#utility.yul\":4095:4098   */\n      dup3\n        /* \"#utility.yul\":4091:4103   */\n      add\n        /* \"#utility.yul\":4084:4103   */\n      swap1\n      pop\n        /* \"#utility.yul\":3743:4109   */\n      swap2\n      swap1\n      pop\n      jump\t// out\n        /* \"#utility.yul\":4115:4534   */\n    tag_43:\n        /* \"#utility.yul\":4281:4285   */\n      0x00\n        /* \"#utility.yul\":4319:4321   */\n      0x20\n        /* \"#utility.yul\":4308:4317   */\n      dup3\n        /* \"#utility.yul\":4304:4322   */\n      add\n        /* \"#utility.yul\":4296:4322   */\n      swap1\n      pop\n        /* \"#utility.yul\":4368:4377   */\n      dup2\n        /* \"#utility.yul\":4362:4366   */\n      dup2\n        /* \"#utility.yul\":4358:4378   */\n      sub\n        /* \"#utility.yul\":4354:4355   */\n      0x00\n        /* \"#utility.yul\":4343:4352   */\n      dup4\n        /* \"#utility.yul\":4339:4356   */\n      add\n        /* \"#utility.yul\":4332:4379   */\n      mstore\n        /* \"#utility.yul\":4396:4527   */\n      tag_182\n        /* \"#utility.yul\":4522:4526   */\n      dup2\n        /* \"#utility.yul\":4396:4527   */\n      tag_114\n      jump\t// in\n    tag_182:\n        /* \"#utility.yul\":4388:4527   */\n      swap1\n      pop\n        /* \"#utility.yul\":4115:4534   */\n      swap2\n      swap1\n      pop\n      jump\t// out\n        /* \"#utility.yul\":4540:4714   */\n    tag_115:\n        /* \"#utility.yul\":4680:4706   */\n      0x5468657265206973206e6f2066756e6420666f7220796f750000000000000000\n        /* \"#utility.yul\":4676:4677   */\n      0x00\n        /* \"#utility.yul\":4668:4674   */\n      dup3\n        /* \"#utility.yul\":4664:4678   */\n      add\n        /* \"#utility.yul\":4657:4707   */\n      mstore\n        /* \"#utility.yul\":4540:4714   */\n      pop\n      jump\t// out\n        /* \"#utility.yul\":4720:5086   */\n    tag_116:\n        /* \"#utility.yul\":4862:4865   */\n      0x00\n        /* \"#utility.yul\":4883:4950   */\n      tag_185\n        /* \"#utility.yul\":4947:4949   */\n      0x18\n        /* \"#utility.yul\":4942:4945   */\n      dup4\n        /* \"#utility.yul\":4883:4950   */\n      tag_110\n      jump\t// in\n    tag_185:\n        /* \"#utility.yul\":4876:4950   */\n      swap2\n      pop\n        /* \"#utility.yul\":4959:5052   */\n      tag_186\n        /* \"#utility.yul\":5048:5051   */\n      dup3\n        /* \"#utility.yul\":4959:5052   */\n      tag_115\n      jump\t// in\n    tag_186:\n        /* \"#utility.yul\":5077:5079   */\n      0x20\n        /* \"#utility.yul\":5072:5075   */\n      dup3\n        /* \"#utility.yul\":5068:5080   */\n      add\n        /* \"#utility.yul\":5061:5080   */\n      swap1\n      pop\n        /* \"#utility.yul\":4720:5086   */\n      swap2\n      swap1\n      pop\n      jump\t// out\n        /* \"#utility.yul\":5092:5511   */\n    tag_46:\n        /* \"#utility.yul\":5258:5262   */\n      0x00\n        /* \"#utility.yul\":5296:5298   */\n      0x20\n        /* \"#utility.yul\":5285:5294   */\n      dup3\n        /* \"#utility.yul\":5281:5299   */\n      add\n        /* \"#utility.yul\":5273:5299   */\n      swap1\n      pop\n        /* \"#utility.yul\":5345:5354   */\n      dup2\n        /* \"#utility.yul\":5339:5343   */\n      dup2\n        /* \"#utility.yul\":5335:5355   */\n      sub\n        /* \"#utility.yul\":5331:5332   */\n      0x00\n        /* \"#utility.yul\":5320:5329   */\n      dup4\n        /* \"#utility.yul\":5316:5333   */\n      add\n        /* \"#utility.yul\":5309:5356   */\n      mstore\n        /* \"#utility.yul\":5373:5504   */\n      tag_188\n        /* \"#utility.yul\":5499:5503   */\n      dup2\n        /* \"#utility.yul\":5373:5504   */\n      tag_116\n      jump\t// in\n    tag_188:\n        /* \"#utility.yul\":5365:5504   */\n      swap1\n      pop\n        /* \"#utility.yul\":5092:5511   */\n      swap2\n      swap1\n      pop\n      jump\t// out\n        /* \"#utility.yul\":5517:5664   */\n    tag_117:\n        /* \"#utility.yul\":5618:5629   */\n      0x00\n        /* \"#utility.yul\":5655:5658   */\n      dup2\n        /* \"#utility.yul\":5640:5658   */\n      swap1\n      pop\n        /* \"#utility.yul\":5517:5664   */\n      swap3\n      swap2\n      pop\n      pop\n      jump\t// out\n        /* \"#utility.yul\":5670:5784   */\n    tag_118:\n      pop\n      jump\t// out\n        /* \"#utility.yul\":5790:6188   */\n    tag_119:\n        /* \"#utility.yul\":5949:5952   */\n      0x00\n        /* \"#utility.yul\":5970:6053   */\n      tag_192\n        /* \"#utility.yul\":6051:6052   */\n      0x00\n        /* \"#utility.yul\":6046:6049   */\n      dup4\n        /* \"#utility.yul\":5970:6053   */\n      tag_117\n      jump\t// in\n    tag_192:\n        /* \"#utility.yul\":5963:6053   */\n      swap2\n      pop\n        /* \"#utility.yul\":6062:6155   */\n      tag_193\n        /* \"#utility.yul\":6151:6154   */\n      dup3\n        /* \"#utility.yul\":6062:6155   */\n      tag_118\n      jump\t// in\n    tag_193:\n        /* \"#utility.yul\":6180:6181   */\n      0x00\n        /* \"#utility.yul\":6175:6178   */\n      dup3\n        /* \"#utility.yul\":6171:6182   */\n      add\n        /* \"#utility.yul\":6164:6182   */\n      swap1\n      pop\n        /* \"#utility.yul\":5790:6188   */\n      swap2\n      swap1\n      pop\n      jump\t// out\n        /* \"#utility.yul\":6194:6573   */\n    tag_48:\n        /* \"#utility.yul\":6378:6381   */\n      0x00\n        /* \"#utility.yul\":6400:6547   */\n      tag_195\n        /* \"#utility.yul\":6543:6546   */\n      dup3\n        /* \"#utility.yul\":6400:6547   */\n      tag_119\n      jump\t// in\n    tag_195:\n        /* \"#utility.yul\":6393:6547   */\n      swap2\n      pop\n        /* \"#utility.yul\":6564:6567   */\n      dup2\n        /* \"#utility.yul\":6557:6567   */\n      swap1\n      pop\n        /* \"#utility.yul\":6194:6573   */\n      swap2\n      swap1\n      pop\n      jump\t// out\n        /* \"#utility.yul\":6579:6747   */\n    tag_120:\n        /* \"#utility.yul\":6719:6739   */\n      0x5472616e73666572206973206661696c65640000000000000000000000000000\n        /* \"#utility.yul\":6715:6716   */\n      0x00\n        /* \"#utility.yul\":6707:6713   */\n      dup3\n        /* \"#utility.yul\":6703:6717   */\n      add\n        /* \"#utility.yul\":6696:6740   */\n      mstore\n        /* \"#utility.yul\":6579:6747   */\n      pop\n      jump\t// out\n        /* \"#utility.yul\":6753:7119   */\n    tag_121:\n        /* \"#utility.yul\":6895:6898   */\n      0x00\n        /* \"#utility.yul\":6916:6983   */\n      tag_198\n        /* \"#utility.yul\":6980:6982   */\n      0x12\n        /* \"#utility.yul\":6975:6978   */\n      dup4\n        /* \"#utility.yul\":6916:6983   */\n      tag_110\n      jump\t// in\n    tag_198:\n        /* \"#utility.yul\":6909:6983   */\n      swap2\n      pop\n        /* \"#utility.yul\":6992:7085   */\n      tag_199\n        /* \"#utility.yul\":7081:7084   */\n      dup3\n        /* \"#utility.yul\":6992:7085   */\n      tag_120\n      jump\t// in\n    tag_199:\n        /* \"#utility.yul\":7110:7112   */\n      0x20\n        /* \"#utility.yul\":7105:7108   */\n      dup3\n        /* \"#utility.yul\":7101:7113   */\n      add\n        /* \"#utility.yul\":7094:7113   */\n      swap1\n      pop\n        /* \"#utility.yul\":6753:7119   */\n      swap2\n      swap1\n      pop\n      jump\t// out\n        /* \"#utility.yul\":7125:7544   */\n    tag_54:\n        /* \"#utility.yul\":7291:7295   */\n      0x00\n        /* \"#utility.yul\":7329:7331   */\n      0x20\n        /* \"#utility.yul\":7318:7327   */\n      dup3\n        /* \"#utility.yul\":7314:7332   */\n      add\n        /* \"#utility.yul\":7306:7332   */\n      swap1\n      pop\n        /* \"#utility.yul\":7378:7387   */\n      dup2\n        /* \"#utility.yul\":7372:7376   */\n      dup2\n        /* \"#utility.yul\":7368:7388   */\n      sub\n        /* \"#utility.yul\":7364:7365   */\n      0x00\n        /* \"#utility.yul\":7353:7362   */\n      dup4\n        /* \"#utility.yul\":7349:7366   */\n      add\n        /* \"#utility.yul\":7342:7389   */\n      mstore\n        /* \"#utility.yul\":7406:7537   */\n      tag_201\n        /* \"#utility.yul\":7532:7536   */\n      dup2\n        /* \"#utility.yul\":7406:7537   */\n      tag_121\n      jump\t// in\n    tag_201:\n        /* \"#utility.yul\":7398:7537   */\n      swap1\n      pop\n        /* \"#utility.yul\":7125:7544   */\n      swap2\n      swap1\n      pop\n      jump\t// out\n        /* \"#utility.yul\":7550:7776   */\n    tag_122:\n        /* \"#utility.yul\":7690:7724   */\n      0x546869732066756e6374696f6e2063616e206f6e6c792062652063616c6c2062\n        /* \"#utility.yul\":7686:7687   */\n      0x00\n        /* \"#utility.yul\":7678:7684   */\n      dup3\n        /* \"#utility.yul\":7674:7688   */\n      add\n        /* \"#utility.yul\":7667:7725   */\n      mstore\n        /* \"#utility.yul\":7759:7768   */\n      0x79206f776e657200000000000000000000000000000000000000000000000000\n        /* \"#utility.yul\":7754:7756   */\n      0x20\n        /* \"#utility.yul\":7746:7752   */\n      dup3\n        /* \"#utility.yul\":7742:7757   */\n      add\n        /* \"#utility.yul\":7735:7769   */\n      mstore\n        /* \"#utility.yul\":7550:7776   */\n      pop\n      jump\t// out\n        /* \"#utility.yul\":7782:8148   */\n    tag_123:\n        /* \"#utility.yul\":7924:7927   */\n      0x00\n        /* \"#utility.yul\":7945:8012   */\n      tag_204\n        /* \"#utility.yul\":8009:8011   */\n      0x27\n        /* \"#utility.yul\":8004:8007   */\n      dup4\n        /* \"#utility.yul\":7945:8012   */\n      tag_110\n      jump\t// in\n    tag_204:\n        /* \"#utility.yul\":7938:8012   */\n      swap2\n      pop\n        /* \"#utility.yul\":8021:8114   */\n      tag_205\n        /* \"#utility.yul\":8110:8113   */\n      dup3\n        /* \"#utility.yul\":8021:8114   */\n      tag_122\n      jump\t// in\n    tag_205:\n        /* \"#utility.yul\":8139:8141   */\n      0x40\n        /* \"#utility.yul\":8134:8137   */\n      dup3\n        /* \"#utility.yul\":8130:8142   */\n      add\n        /* \"#utility.yul\":8123:8142   */\n      swap1\n      pop\n        /* \"#utility.yul\":7782:8148   */\n      swap2\n      swap1\n      pop\n      jump\t// out\n        /* \"#utility.yul\":8154:8573   */\n    tag_58:\n        /* \"#utility.yul\":8320:8324   */\n      0x00\n        /* \"#utility.yul\":8358:8360   */\n      0x20\n        /* \"#utility.yul\":8347:8356   */\n      dup3\n        /* \"#utility.yul\":8343:8361   */\n      add\n        /* \"#utility.yul\":8335:8361   */\n      swap1\n      pop\n        /* \"#utility.yul\":8407:8416   */\n      dup2\n        /* \"#utility.yul\":8401:8405   */\n      dup2\n        /* \"#utility.yul\":8397:8417   */\n      sub\n        /* \"#utility.yul\":8393:8394   */\n      0x00\n        /* \"#utility.yul\":8382:8391   */\n      dup4\n        /* \"#utility.yul\":8378:8395   */\n      add\n        /* \"#utility.yul\":8371:8418   */\n      mstore\n        /* \"#utility.yul\":8435:8566   */\n      tag_207\n        /* \"#utility.yul\":8561:8565   */\n      dup2\n        /* \"#utility.yul\":8435:8566   */\n      tag_123\n      jump\t// in\n    tag_207:\n        /* \"#utility.yul\":8427:8566   */\n      swap1\n      pop\n        /* \"#utility.yul\":8154:8573   */\n      swap2\n      swap1\n      pop\n      jump\t// out\n        /* \"#utility.yul\":8579:8751   */\n    tag_124:\n        /* \"#utility.yul\":8719:8743   */\n      0x546172676574206973206e6f7420726561636865642100000000000000000000\n        /* \"#utility.yul\":8715:8716   */\n      0x00\n        /* \"#utility.yul\":8707:8713   */\n      dup3\n        /* \"#utility.yul\":8703:8717   */\n      add\n        /* \"#utility.yul\":8696:8744   */\n      mstore\n        /* \"#utility.yul\":8579:8751   */\n      pop\n      jump\t// out\n        /* \"#utility.yul\":8757:9123   */\n    tag_125:\n        /* \"#utility.yul\":8899:8902   */\n      0x00\n        /* \"#utility.yul\":8920:8987   */\n      tag_210\n        /* \"#utility.yul\":8984:8986   */\n      0x16\n        /* \"#utility.yul\":8979:8982   */\n      dup4\n        /* \"#utility.yul\":8920:8987   */\n      tag_110\n      jump\t// in\n    tag_210:\n        /* \"#utility.yul\":8913:8987   */\n      swap2\n      pop\n        /* \"#utility.yul\":8996:9089   */\n      tag_211\n        /* \"#utility.yul\":9085:9088   */\n      dup3\n        /* \"#utility.yul\":8996:9089   */\n      tag_124\n      jump\t// in\n    tag_211:\n        /* \"#utility.yul\":9114:9116   */\n      0x20\n        /* \"#utility.yul\":9109:9112   */\n      dup3\n        /* \"#utility.yul\":9105:9117   */\n      add\n        /* \"#utility.yul\":9098:9117   */\n      swap1\n      pop\n        /* \"#utility.yul\":8757:9123   */\n      swap2\n      swap1\n      pop\n      jump\t// out\n        /* \"#utility.yul\":9129:9548   */\n    tag_71:\n        /* \"#utility.yul\":9295:9299   */\n      0x00\n        /* \"#utility.yul\":9333:9335   */\n      0x20\n        /* \"#utility.yul\":9322:9331   */\n      dup3\n        /* \"#utility.yul\":9318:9336   */\n      add\n        /* \"#utility.yul\":9310:9336   */\n      swap1\n      pop\n        /* \"#utility.yul\":9382:9391   */\n      dup2\n        /* \"#utility.yul\":9376:9380   */\n      dup2\n        /* \"#utility.yul\":9372:9392   */\n      sub\n        /* \"#utility.yul\":9368:9369   */\n      0x00\n        /* \"#utility.yul\":9357:9366   */\n      dup4\n        /* \"#utility.yul\":9353:9370   */\n      add\n        /* \"#utility.yul\":9346:9393   */\n      mstore\n        /* \"#utility.yul\":9410:9541   */\n      tag_213\n        /* \"#utility.yul\":9536:9540   */\n      dup2\n        /* \"#utility.yul\":9410:9541   */\n      tag_125\n      jump\t// in\n    tag_213:\n        /* \"#utility.yul\":9402:9541   */\n      swap1\n      pop\n        /* \"#utility.yul\":9129:9548   */\n      swap2\n      swap1\n      pop\n      jump\t// out\n        /* \"#utility.yul\":9554:9784   */\n    tag_126:\n        /* \"#utility.yul\":9694:9728   */\n      0x53656e64206d6f7265204554482c20546865206d696e696d756d204554482076\n        /* \"#utility.yul\":9690:9691   */\n      0x00\n        /* \"#utility.yul\":9682:9688   */\n      dup3\n        /* \"#utility.yul\":9678:9692   */\n      add\n        /* \"#utility.yul\":9671:9729   */\n      mstore\n        /* \"#utility.yul\":9763:9776   */\n      0x616c7565206973206f6e65000000000000000000000000000000000000000000\n        /* \"#utility.yul\":9758:9760   */\n      0x20\n        /* \"#utility.yul\":9750:9756   */\n      dup3\n        /* \"#utility.yul\":9746:9761   */\n      add\n        /* \"#utility.yul\":9739:9777   */\n      mstore\n        /* \"#utility.yul\":9554:9784   */\n      pop\n      jump\t// out\n        /* \"#utility.yul\":9790:10156   */\n    tag_127:\n        /* \"#utility.yul\":9932:9935   */\n      0x00\n        /* \"#utility.yul\":9953:10020   */\n      tag_216\n        /* \"#utility.yul\":10017:10019   */\n      0x2b\n        /* \"#utility.yul\":10012:10015   */\n      dup4\n        /* \"#utility.yul\":9953:10020   */\n      tag_110\n      jump\t// in\n    tag_216:\n        /* \"#utility.yul\":9946:10020   */\n      swap2\n      pop\n        /* \"#utility.yul\":10029:10122   */\n      tag_217\n        /* \"#utility.yul\":10118:10121   */\n      dup3\n        /* \"#utility.yul\":10029:10122   */\n      tag_126\n      jump\t// in\n    tag_217:\n        /* \"#utility.yul\":10147:10149   */\n      0x40\n        /* \"#utility.yul\":10142:10145   */\n      dup3\n        /* \"#utility.yul\":10138:10150   */\n      add\n        /* \"#utility.yul\":10131:10150   */\n      swap1\n      pop\n        /* \"#utility.yul\":9790:10156   */\n      swap2\n      swap1\n      pop\n      jump\t// out\n        /* \"#utility.yul\":10162:10581   */\n    tag_82:\n        /* \"#utility.yul\":10328:10332   */\n      0x00\n        /* \"#utility.yul\":10366:10368   */\n      0x20\n        /* \"#utility.yul\":10355:10364   */\n      dup3\n        /* \"#utility.yul\":10351:10369   */\n      add\n        /* \"#utility.yul\":10343:10369   */\n      swap1\n      pop\n        /* \"#utility.yul\":10415:10424   */\n      dup2\n        /* \"#utility.yul\":10409:10413   */\n      dup2\n        /* \"#utility.yul\":10405:10425   */\n      sub\n        /* \"#utility.yul\":10401:10402   */\n      0x00\n        /* \"#utility.yul\":10390:10399   */\n      dup4\n        /* \"#utility.yul\":10386:10403   */\n      add\n        /* \"#utility.yul\":10379:10426   */\n      mstore\n        /* \"#utility.yul\":10443:10574   */\n      tag_219\n        /* \"#utility.yul\":10569:10573   */\n      dup2\n        /* \"#utility.yul\":10443:10574   */\n      tag_127\n      jump\t// in\n    tag_219:\n        /* \"#utility.yul\":10435:10574   */\n      swap1\n      pop\n        /* \"#utility.yul\":10162:10581   */\n      swap2\n      swap1\n      pop\n      jump\t// out\n        /* \"#utility.yul\":10587:10753   */\n    tag_128:\n        /* \"#utility.yul\":10727:10745   */\n      0x57696e646f7720697320636c6f73656400000000000000000000000000000000\n        /* \"#utility.yul\":10723:10724   */\n      0x00\n        /* \"#utility.yul\":10715:10721   */\n      dup3\n        /* \"#utility.yul\":10711:10725   */\n      add\n        /* \"#utility.yul\":10704:10746   */\n      mstore\n        /* \"#utility.yul\":10587:10753   */\n      pop\n      jump\t// out\n        /* \"#utility.yul\":10759:11125   */\n    tag_129:\n        /* \"#utility.yul\":10901:10904   */\n      0x00\n        /* \"#utility.yul\":10922:10989   */\n      tag_222\n        /* \"#utility.yul\":10986:10988   */\n      0x10\n        /* \"#utility.yul\":10981:10984   */\n      dup4\n        /* \"#utility.yul\":10922:10989   */\n      tag_110\n      jump\t// in\n    tag_222:\n        /* \"#utility.yul\":10915:10989   */\n      swap2\n      pop\n        /* \"#utility.yul\":10998:11091   */\n      tag_223\n        /* \"#utility.yul\":11087:11090   */\n      dup3\n        /* \"#utility.yul\":10998:11091   */\n      tag_128\n      jump\t// in\n    tag_223:\n        /* \"#utility.yul\":11116:11118   */\n      0x20\n        /* \"#utility.yul\":11111:11114   */\n      dup3\n        /* \"#utility.yul\":11107:11119   */\n      add\n        /* \"#utility.yul\":11100:11119   */\n      swap1\n      pop\n        /* \"#utility.yul\":10759:11125   */\n      swap2\n      swap1\n      pop\n      jump\t// out\n        /* \"#utility.yul\":11131:11550   */\n    tag_86:\n        /* \"#utility.yul\":11297:11301   */\n      0x00\n        /* \"#utility.yul\":11335:11337   */\n      0x20\n        /* \"#utility.yul\":11324:11333   */\n      dup3\n        /* \"#utility.yul\":11320:11338   */\n      add\n        /* \"#utility.yul\":11312:11338   */\n      swap1\n      pop\n        /* \"#utility.yul\":11384:11393   */\n      dup2\n        /* \"#utility.yul\":11378:11382   */\n      dup2\n        /* \"#utility.yul\":11374:11394   */\n      sub\n        /* \"#utility.yul\":11370:11371   */\n      0x00\n        /* \"#utility.yul\":11359:11368   */\n      dup4\n        /* \"#utility.yul\":11355:11372   */\n      add\n        /* \"#utility.yul\":11348:11395   */\n      mstore\n        /* \"#utility.yul\":11412:11543   */\n      tag_225\n        /* \"#utility.yul\":11538:11542   */\n      dup2\n        /* \"#utility.yul\":11412:11543   */\n      tag_129\n      jump\t// in\n    tag_225:\n        /* \"#utility.yul\":11404:11543   */\n      swap1\n      pop\n        /* \"#utility.yul\":11131:11550   */\n      swap2\n      swap1\n      pop\n      jump\t// out\n        /* \"#utility.yul\":11556:11661   */\n    tag_130:\n        /* \"#utility.yul\":11592:11599   */\n      0x00\n        /* \"#utility.yul\":11632:11654   */\n      0xffffffffffffffffffff\n        /* \"#utility.yul\":11625:11630   */\n      dup3\n        /* \"#utility.yul\":11621:11655   */\n      and\n        /* \"#utility.yul\":11610:11655   */\n      swap1\n      pop\n        /* \"#utility.yul\":11556:11661   */\n      swap2\n      swap1\n      pop\n      jump\t// out\n        /* \"#utility.yul\":11667:11787   */\n    tag_131:\n        /* \"#utility.yul\":11739:11762   */\n      tag_228\n        /* \"#utility.yul\":11756:11761   */\n      dup2\n        /* \"#utility.yul\":11739:11762   */\n      tag_130\n      jump\t// in\n    tag_228:\n        /* \"#utility.yul\":11732:11737   */\n      dup2\n        /* \"#utility.yul\":11729:11763   */\n      eq\n        /* \"#utility.yul\":11719:11781   */\n      tag_229\n      jumpi\n        /* \"#utility.yul\":11777:11778   */\n      0x00\n        /* \"#utility.yul\":11774:11775   */\n      dup1\n        /* \"#utility.yul\":11767:11779   */\n      revert\n        /* \"#utility.yul\":11719:11781   */\n    tag_229:\n        /* \"#utility.yul\":11667:11787   */\n      pop\n      jump\t// out\n        /* \"#utility.yul\":11793:11934   */\n    tag_132:\n        /* \"#utility.yul\":11849:11854   */\n      0x00\n        /* \"#utility.yul\":11880:11886   */\n      dup2\n        /* \"#utility.yul\":11874:11887   */\n      mload\n        /* \"#utility.yul\":11865:11887   */\n      swap1\n      pop\n        /* \"#utility.yul\":11896:11928   */\n      tag_231\n        /* \"#utility.yul\":11922:11927   */\n      dup2\n        /* \"#utility.yul\":11896:11928   */\n      tag_131\n      jump\t// in\n    tag_231:\n        /* \"#utility.yul\":11793:11934   */\n      swap3\n      swap2\n      pop\n      pop\n      jump\t// out\n        /* \"#utility.yul\":11940:12060   */\n    tag_133:\n        /* \"#utility.yul\":12012:12035   */\n      tag_233\n        /* \"#utility.yul\":12029:12034   */\n      dup2\n        /* \"#utility.yul\":12012:12035   */\n      tag_107\n      jump\t// in\n    tag_233:\n        /* \"#utility.yul\":12005:12010   */\n      dup2\n        /* \"#utility.yul\":12002:12036   */\n      eq\n        /* \"#utility.yul\":11992:12054   */\n      tag_234\n      jumpi\n        /* \"#utility.yul\":12050:12051   */\n      0x00\n        /* \"#utility.yul\":12047:12048   */\n      dup1\n        /* \"#utility.yul\":12040:12052   */\n      revert\n        /* \"#utility.yul\":11992:12054   */\n    tag_234:\n        /* \"#utility.yul\":11940:12060   */\n      pop\n      jump\t// out\n        /* \"#utility.yul\":12066:12207   */\n    tag_134:\n        /* \"#utility.yul\":12122:12127   */\n      0x00\n        /* \"#utility.yul\":12153:12159   */\n      dup2\n        /* \"#utility.yul\":12147:12160   */\n      mload\n        /* \"#utility.yul\":12138:12160   */\n      swap1\n      pop\n        /* \"#utility.yul\":12169:12201   */\n      tag_236\n        /* \"#utility.yul\":12195:12200   */\n      dup2\n        /* \"#utility.yul\":12169:12201   */\n      tag_133\n      jump\t// in\n    tag_236:\n        /* \"#utility.yul\":12066:12207   */\n      swap3\n      swap2\n      pop\n      pop\n      jump\t// out\n        /* \"#utility.yul\":12213:12335   */\n    tag_135:\n        /* \"#utility.yul\":12286:12310   */\n      tag_238\n        /* \"#utility.yul\":12304:12309   */\n      dup2\n        /* \"#utility.yul\":12286:12310   */\n      tag_105\n      jump\t// in\n    tag_238:\n        /* \"#utility.yul\":12279:12284   */\n      dup2\n        /* \"#utility.yul\":12276:12311   */\n      eq\n        /* \"#utility.yul\":12266:12329   */\n      tag_239\n      jumpi\n        /* \"#utility.yul\":12325:12326   */\n      0x00\n        /* \"#utility.yul\":12322:12323   */\n      dup1\n        /* \"#utility.yul\":12315:12327   */\n      revert\n        /* \"#utility.yul\":12266:12329   */\n    tag_239:\n        /* \"#utility.yul\":12213:12335   */\n      pop\n      jump\t// out\n        /* \"#utility.yul\":12341:12484   */\n    tag_136:\n        /* \"#utility.yul\":12398:12403   */\n      0x00\n        /* \"#utility.yul\":12429:12435   */\n      dup2\n        /* \"#utility.yul\":12423:12436   */\n      mload\n        /* \"#utility.yul\":12414:12436   */\n      swap1\n      pop\n        /* \"#utility.yul\":12445:12478   */\n      tag_241\n        /* \"#utility.yul\":12472:12477   */\n      dup2\n        /* \"#utility.yul\":12445:12478   */\n      tag_135\n      jump\t// in\n    tag_241:\n        /* \"#utility.yul\":12341:12484   */\n      swap3\n      swap2\n      pop\n      pop\n      jump\t// out\n        /* \"#utility.yul\":12490:13461   */\n    tag_91:\n        /* \"#utility.yul\":12593:12599   */\n      0x00\n        /* \"#utility.yul\":12601:12607   */\n      dup1\n        /* \"#utility.yul\":12609:12615   */\n      0x00\n        /* \"#utility.yul\":12617:12623   */\n      dup1\n        /* \"#utility.yul\":12625:12631   */\n      0x00\n        /* \"#utility.yul\":12674:12677   */\n      0xa0\n        /* \"#utility.yul\":12662:12671   */\n      dup7\n        /* \"#utility.yul\":12653:12660   */\n      dup9\n        /* \"#utility.yul\":12649:12672   */\n      sub\n        /* \"#utility.yul\":12645:12678   */\n      slt\n        /* \"#utility.yul\":12642:12762   */\n      iszero\n      tag_243\n      jumpi\n        /* \"#utility.yul\":12681:12760   */\n      tag_244\n      tag_99\n      jump\t// in\n    tag_244:\n        /* \"#utility.yul\":12642:12762   */\n    tag_243:\n        /* \"#utility.yul\":12801:12802   */\n      0x00\n        /* \"#utility.yul\":12826:12889   */\n      tag_245\n        /* \"#utility.yul\":12881:12888   */\n      dup9\n        /* \"#utility.yul\":12872:12878   */\n      dup3\n        /* \"#utility.yul\":12861:12870   */\n      dup10\n        /* \"#utility.yul\":12857:12879   */\n      add\n        /* \"#utility.yul\":12826:12889   */\n      tag_132\n      jump\t// in\n    tag_245:\n        /* \"#utility.yul\":12816:12889   */\n      swap6\n      pop\n        /* \"#utility.yul\":12772:12899   */\n      pop\n        /* \"#utility.yul\":12938:12940   */\n      0x20\n        /* \"#utility.yul\":12964:13027   */\n      tag_246\n        /* \"#utility.yul\":13019:13026   */\n      dup9\n        /* \"#utility.yul\":13010:13016   */\n      dup3\n        /* \"#utility.yul\":12999:13008   */\n      dup10\n        /* \"#utility.yul\":12995:13017   */\n      add\n        /* \"#utility.yul\":12964:13027   */\n      tag_134\n      jump\t// in\n    tag_246:\n        /* \"#utility.yul\":12954:13027   */\n      swap5\n      pop\n        /* \"#utility.yul\":12909:13037   */\n      pop\n        /* \"#utility.yul\":13076:13078   */\n      0x40\n        /* \"#utility.yul\":13102:13166   */\n      tag_247\n        /* \"#utility.yul\":13158:13165   */\n      dup9\n        /* \"#utility.yul\":13149:13155   */\n      dup3\n        /* \"#utility.yul\":13138:13147   */\n      dup10\n        /* \"#utility.yul\":13134:13156   */\n      add\n        /* \"#utility.yul\":13102:13166   */\n      tag_136\n      jump\t// in\n    tag_247:\n        /* \"#utility.yul\":13092:13166   */\n      swap4\n      pop\n        /* \"#utility.yul\":13047:13176   */\n      pop\n        /* \"#utility.yul\":13215:13217   */\n      0x60\n        /* \"#utility.yul\":13241:13305   */\n      tag_248\n        /* \"#utility.yul\":13297:13304   */\n      dup9\n        /* \"#utility.yul\":13288:13294   */\n      dup3\n        /* \"#utility.yul\":13277:13286   */\n      dup10\n        /* \"#utility.yul\":13273:13295   */\n      add\n        /* \"#utility.yul\":13241:13305   */\n      tag_136\n      jump\t// in\n    tag_248:\n        /* \"#utility.yul\":13231:13305   */\n      swap3\n      pop\n        /* \"#utility.yul\":13186:13315   */\n      pop\n        /* \"#utility.yul\":13354:13357   */\n      0x80\n        /* \"#utility.yul\":13381:13444   */\n      tag_249\n        /* \"#utility.yul\":13436:13443   */\n      dup9\n        /* \"#utility.yul\":13427:13433   */\n      dup3\n        /* \"#utility.yul\":13416:13425   */\n      dup10\n        /* \"#utility.yul\":13412:13434   */\n      add\n        /* \"#utility.yul\":13381:13444   */\n      tag_132\n      jump\t// in\n    tag_249:\n        /* \"#utility.yul\":13371:13444   */\n      swap2\n      pop\n        /* \"#utility.yul\":13325:13454   */\n      pop\n        /* \"#utility.yul\":12490:13461   */\n      swap3\n      swap6\n      pop\n      swap3\n      swap6\n      swap1\n      swap4\n      pop\n      jump\t// out\n        /* \"#utility.yul\":13467:13877   */\n    tag_95:\n        /* \"#utility.yul\":13507:13514   */\n      0x00\n        /* \"#utility.yul\":13530:13550   */\n      tag_251\n        /* \"#utility.yul\":13548:13549   */\n      dup3\n        /* \"#utility.yul\":13530:13550   */\n      tag_105\n      jump\t// in\n    tag_251:\n        /* \"#utility.yul\":13525:13550   */\n      swap2\n      pop\n        /* \"#utility.yul\":13564:13584   */\n      tag_252\n        /* \"#utility.yul\":13582:13583   */\n      dup4\n        /* \"#utility.yul\":13564:13584   */\n      tag_105\n      jump\t// in\n    tag_252:\n        /* \"#utility.yul\":13559:13584   */\n      swap3\n      pop\n        /* \"#utility.yul\":13619:13620   */\n      dup3\n        /* \"#utility.yul\":13616:13617   */\n      dup3\n        /* \"#utility.yul\":13612:13621   */\n      mul\n        /* \"#utility.yul\":13641:13671   */\n      tag_253\n        /* \"#utility.yul\":13659:13670   */\n      dup2\n        /* \"#utility.yul\":13641:13671   */\n      tag_105\n      jump\t// in\n    tag_253:\n        /* \"#utility.yul\":13630:13671   */\n      swap2\n      pop\n        /* \"#utility.yul\":13820:13821   */\n      dup3\n        /* \"#utility.yul\":13811:13818   */\n      dup3\n        /* \"#utility.yul\":13807:13822   */\n      div\n        /* \"#utility.yul\":13804:13805   */\n      dup5\n        /* \"#utility.yul\":13801:13823   */\n      eq\n        /* \"#utility.yul\":13781:13782   */\n      dup4\n        /* \"#utility.yul\":13774:13783   */\n      iszero\n        /* \"#utility.yul\":13754:13837   */\n      or\n        /* \"#utility.yul\":13731:13870   */\n      tag_254\n      jumpi\n        /* \"#utility.yul\":13850:13868   */\n      tag_255\n      tag_109\n      jump\t// in\n    tag_255:\n        /* \"#utility.yul\":13731:13870   */\n    tag_254:\n        /* \"#utility.yul\":13515:13877   */\n      pop\n        /* \"#utility.yul\":13467:13877   */\n      swap3\n      swap2\n      pop\n      pop\n      jump\t// out\n        /* \"#utility.yul\":13883:14063   */\n    tag_137:\n        /* \"#utility.yul\":13931:14008   */\n      0x4e487b7100000000000000000000000000000000000000000000000000000000\n        /* \"#utility.yul\":13928:13929   */\n      0x00\n        /* \"#utility.yul\":13921:14009   */\n      mstore\n        /* \"#utility.yul\":14028:14032   */\n      0x12\n        /* \"#utility.yul\":14025:14026   */\n      0x04\n        /* \"#utility.yul\":14018:14033   */\n      mstore\n        /* \"#utility.yul\":14052:14056   */\n      0x24\n        /* \"#utility.yul\":14049:14050   */\n      0x00\n        /* \"#utility.yul\":14042:14057   */\n      revert\n        /* \"#utility.yul\":14069:14254   */\n    tag_97:\n        /* \"#utility.yul\":14109:14110   */\n      0x00\n        /* \"#utility.yul\":14126:14146   */\n      tag_258\n        /* \"#utility.yul\":14144:14145   */\n      dup3\n        /* \"#utility.yul\":14126:14146   */\n      tag_105\n      jump\t// in\n    tag_258:\n        /* \"#utility.yul\":14121:14146   */\n      swap2\n      pop\n        /* \"#utility.yul\":14160:14180   */\n      tag_259\n        /* \"#utility.yul\":14178:14179   */\n      dup4\n        /* \"#utility.yul\":14160:14180   */\n      tag_105\n      jump\t// in\n    tag_259:\n        /* \"#utility.yul\":14155:14180   */\n      swap3\n      pop\n        /* \"#utility.yul\":14199:14200   */\n      dup3\n        /* \"#utility.yul\":14189:14224   */\n      tag_260\n      jumpi\n        /* \"#utility.yul\":14204:14222   */\n      tag_261\n      tag_137\n      jump\t// in\n    tag_261:\n        /* \"#utility.yul\":14189:14224   */\n    tag_260:\n        /* \"#utility.yul\":14246:14247   */\n      dup3\n        /* \"#utility.yul\":14243:14244   */\n      dup3\n        /* \"#utility.yul\":14239:14248   */\n      div\n        /* \"#utility.yul\":14234:14248   */\n      swap1\n      pop\n        /* \"#utility.yul\":14069:14254   */\n      swap3\n      swap2\n      pop\n      pop\n      jump\t// out\n\n    auxdata: 0xa2646970667358221220af54777f5b5f803def0cdc709622bdb40cfaf32c0bfb4b71b3c8b524d013e4ec64736f6c634300081a0033\n}\n",
				"bytecode": {
					"linkReferences": {},
					"object": "608060405234801561000f575f80fd5b5060405161102338038061102383398181016040528101906100319190610110565b73694aa1769357215de4fac081bf1f309adc32530660045f6101000a81548173ffffffffffffffffffffffffffffffffffffffff021916908373ffffffffffffffffffffffffffffffffffffffff1602179055503360015f6101000a81548173ffffffffffffffffffffffffffffffffffffffff021916908373ffffffffffffffffffffffffffffffffffffffff16021790555042600281905550806003819055505061013b565b5f80fd5b5f819050919050565b6100ef816100dd565b81146100f9575f80fd5b50565b5f8151905061010a816100e6565b92915050565b5f60208284031215610125576101246100d9565b5b5f610132848285016100fc565b91505092915050565b610edb806101485f395ff3fe608060405260043610610054575f3560e01c8063590e1ae3146100585780638863dd1a1461006e5780638edd6eb6146100965780639f883a05146100ac578063b60d4288146100e8578063bea4dfb5146100f2575b5f80fd5b348015610063575f80fd5b5061006c61011c565b005b348015610079575f80fd5b50610094600480360381019061008f9190610833565b610361565b005b3480156100a1575f80fd5b506100aa610433565b005b3480156100b7575f80fd5b506100d260048036038101906100cd9190610833565b61060d565b6040516100df9190610876565b60405180910390f35b6100f0610621565b005b3480156100fd575f80fd5b50610106610709565b60405161011391906108a7565b60405180910390f35b60035460025461012c91906108ed565b42101561016e576040517f08c379a00000000000000000000000000000000000000000000000000000000081526004016101659061097a565b60405180910390fd5b60c8610179476107a6565b106101b9576040517f08c379a00000000000000000000000000000000000000000000000000000000081526004016101b0906109e2565b60405180910390fd5b5f805f3373ffffffffffffffffffffffffffffffffffffffff1673ffffffffffffffffffffffffffffffffffffffff1681526020019081526020015f205403610237576040517f08c379a000000000000000000000000000000000000000000000000000000000815260040161022e90610a4a565b60405180910390fd5b5f3373ffffffffffffffffffffffffffffffffffffffff165f803373ffffffffffffffffffffffffffffffffffffffff1673ffffffffffffffffffffffffffffffffffffffff1681526020019081526020015f205460405161029890610a95565b5f6040518083038185875af1925050503d805f81146102d2576040519150601f19603f3d011682016040523d82523d5f602084013e6102d7565b606091505b5050809150508061031d576040517f08c379a000000000000000000000000000000000000000000000000000000000815260040161031490610af3565b60405180910390fd5b5f805f3373ffffffffffffffffffffffffffffffffffffffff1673ffffffffffffffffffffffffffffffffffffffff1681526020019081526020015f208190555050565b60015f9054906101000a900473ffffffffffffffffffffffffffffffffffffffff1673ffffffffffffffffffffffffffffffffffffffff163373ffffffffffffffffffffffffffffffffffffffff16146103f0576040517f08c379a00000000000000000000000000000000000000000000000000000000081526004016103e790610b81565b60405180910390fd5b8060015f6101000a81548173ffffffffffffffffffffffffffffffffffffffff021916908373ffffffffffffffffffffffffffffffffffffffff16021790555050565b60035460025461044391906108ed565b421015610485576040517f08c379a000000000000000000000000000000000000000000000000000000000815260040161047c9061097a565b60405180910390fd5b60015f9054906101000a900473ffffffffffffffffffffffffffffffffffffffff1673ffffffffffffffffffffffffffffffffffffffff163373ffffffffffffffffffffffffffffffffffffffff1614610514576040517f08c379a000000000000000000000000000000000000000000000000000000000815260040161050b90610b81565b60405180910390fd5b60c861051f476107a6565b1015610560576040517f08c379a000000000000000000000000000000000000000000000000000000000815260040161055790610be9565b60405180910390fd5b5f3373ffffffffffffffffffffffffffffffffffffffff164760405161058590610a95565b5f6040518083038185875af1925050503d805f81146105bf576040519150601f19603f3d011682016040523d82523d5f602084013e6105c4565b606091505b5050809150508061060a576040517f08c379a000000000000000000000000000000000000000000000000000000000815260040161060190610af3565b60405180910390fd5b50565b5f602052805f5260405f205f915090505481565b68056bc75e2d63100000610634346107a6565b1015610675576040517f08c379a000000000000000000000000000000000000000000000000000000000815260040161066c90610c77565b60405180910390fd5b60035460025461068591906108ed565b42106106c6576040517f08c379a00000000000000000000000000000000000000000000000000000000081526004016106bd90610cdf565b60405180910390fd5b345f803373ffffffffffffffffffffffffffffffffffffffff1673ffffffffffffffffffffffffffffffffffffffff1681526020019081526020015f2081905550565b5f8060045f9054906101000a900473ffffffffffffffffffffffffffffffffffffffff1673ffffffffffffffffffffffffffffffffffffffff1663feaf968c6040518163ffffffff1660e01b815260040160a060405180830381865afa158015610775573d5f803e3d5ffd5b505050506040513d601f19601f820116820180604052508101906107999190610d90565b5050509150508091505090565b5f806107b0610709565b90506305f5e10081846107c39190610e07565b6107cd9190610e75565b915050919050565b5f80fd5b5f73ffffffffffffffffffffffffffffffffffffffff82169050919050565b5f610802826107d9565b9050919050565b610812816107f8565b811461081c575f80fd5b50565b5f8135905061082d81610809565b92915050565b5f60208284031215610848576108476107d5565b5b5f6108558482850161081f565b91505092915050565b5f819050919050565b6108708161085e565b82525050565b5f6020820190506108895f830184610867565b92915050565b5f819050919050565b6108a18161088f565b82525050565b5f6020820190506108ba5f830184610898565b92915050565b7f4e487b71000000000000000000000000000000000000000000000000000000005f52601160045260245ffd5b5f6108f78261085e565b91506109028361085e565b925082820190508082111561091a576109196108c0565b5b92915050565b5f82825260208201905092915050565b7f57696e646f77206973206e6f7420636c6f7365640000000000000000000000005f82015250565b5f610964601483610920565b915061096f82610930565b602082019050919050565b5f6020820190508181035f83015261099181610958565b9050919050565b7f54617267657420697320726561636865642100000000000000000000000000005f82015250565b5f6109cc601283610920565b91506109d782610998565b602082019050919050565b5f6020820190508181035f8301526109f9816109c0565b9050919050565b7f5468657265206973206e6f2066756e6420666f7220796f7500000000000000005f82015250565b5f610a34601883610920565b9150610a3f82610a00565b602082019050919050565b5f6020820190508181035f830152610a6181610a28565b9050919050565b5f81905092915050565b50565b5f610a805f83610a68565b9150610a8b82610a72565b5f82019050919050565b5f610a9f82610a75565b9150819050919050565b7f5472616e73666572206973206661696c656400000000000000000000000000005f82015250565b5f610add601283610920565b9150610ae882610aa9565b602082019050919050565b5f6020820190508181035f830152610b0a81610ad1565b9050919050565b7f546869732066756e6374696f6e2063616e206f6e6c792062652063616c6c20625f8201527f79206f776e657200000000000000000000000000000000000000000000000000602082015250565b5f610b6b602783610920565b9150610b7682610b11565b604082019050919050565b5f6020820190508181035f830152610b9881610b5f565b9050919050565b7f546172676574206973206e6f74207265616368656421000000000000000000005f82015250565b5f610bd3601683610920565b9150610bde82610b9f565b602082019050919050565b5f6020820190508181035f830152610c0081610bc7565b9050919050565b7f53656e64206d6f7265204554482c20546865206d696e696d756d2045544820765f8201527f616c7565206973206f6e65000000000000000000000000000000000000000000602082015250565b5f610c61602b83610920565b9150610c6c82610c07565b604082019050919050565b5f6020820190508181035f830152610c8e81610c55565b9050919050565b7f57696e646f7720697320636c6f736564000000000000000000000000000000005f82015250565b5f610cc9601083610920565b9150610cd482610c95565b602082019050919050565b5f6020820190508181035f830152610cf681610cbd565b9050919050565b5f69ffffffffffffffffffff82169050919050565b610d1b81610cfd565b8114610d25575f80fd5b50565b5f81519050610d3681610d12565b92915050565b610d458161088f565b8114610d4f575f80fd5b50565b5f81519050610d6081610d3c565b92915050565b610d6f8161085e565b8114610d79575f80fd5b50565b5f81519050610d8a81610d66565b92915050565b5f805f805f60a08688031215610da957610da86107d5565b5b5f610db688828901610d28565b9550506020610dc788828901610d52565b9450506040610dd888828901610d7c565b9350506060610de988828901610d7c565b9250506080610dfa88828901610d28565b9150509295509295909350565b5f610e118261085e565b9150610e1c8361085e565b9250828202610e2a8161085e565b91508282048414831517610e4157610e406108c0565b5b5092915050565b7f4e487b71000000000000000000000000000000000000000000000000000000005f52601260045260245ffd5b5f610e7f8261085e565b9150610e8a8361085e565b925082610e9a57610e99610e48565b5b82820490509291505056fea2646970667358221220af54777f5b5f803def0cdc709622bdb40cfaf32c0bfb4b71b3c8b524d013e4ec64736f6c634300081a0033",
					"opcodes": "PUSH1 0x80 PUSH1 0x40 MSTORE CALLVALUE DUP1 ISZERO PUSH2 0xF JUMPI PUSH0 DUP1 REVERT JUMPDEST POP PUSH1 0x40 MLOAD PUSH2 0x1023 CODESIZE SUB DUP1 PUSH2 0x1023 DUP4 CODECOPY DUP2 DUP2 ADD PUSH1 0x40 MSTORE DUP2 ADD SWAP1 PUSH2 0x31 SWAP2 SWAP1 PUSH2 0x110 JUMP JUMPDEST PUSH20 0x694AA1769357215DE4FAC081BF1F309ADC325306 PUSH1 0x4 PUSH0 PUSH2 0x100 EXP DUP2 SLOAD DUP2 PUSH20 0xFFFFFFFFFFFFFFFFFFFFFFFFFFFFFFFFFFFFFFFF MUL NOT AND SWAP1 DUP4 PUSH20 0xFFFFFFFFFFFFFFFFFFFFFFFFFFFFFFFFFFFFFFFF AND MUL OR SWAP1 SSTORE POP CALLER PUSH1 0x1 PUSH0 PUSH2 0x100 EXP DUP2 SLOAD DUP2 PUSH20 0xFFFFFFFFFFFFFFFFFFFFFFFFFFFFFFFFFFFFFFFF MUL NOT AND SWAP1 DUP4 PUSH20 0xFFFFFFFFFFFFFFFFFFFFFFFFFFFFFFFFFFFFFFFF AND MUL OR SWAP1 SSTORE POP TIMESTAMP PUSH1 0x2 DUP2 SWAP1 SSTORE POP DUP1 PUSH1 0x3 DUP2 SWAP1 SSTORE POP POP PUSH2 0x13B JUMP JUMPDEST PUSH0 DUP1 REVERT JUMPDEST PUSH0 DUP2 SWAP1 POP SWAP2 SWAP1 POP JUMP JUMPDEST PUSH2 0xEF DUP2 PUSH2 0xDD JUMP JUMPDEST DUP2 EQ PUSH2 0xF9 JUMPI PUSH0 DUP1 REVERT JUMPDEST POP JUMP JUMPDEST PUSH0 DUP2 MLOAD SWAP1 POP PUSH2 0x10A DUP2 PUSH2 0xE6 JUMP JUMPDEST SWAP3 SWAP2 POP POP JUMP JUMPDEST PUSH0 PUSH1 0x20 DUP3 DUP5 SUB SLT ISZERO PUSH2 0x125 JUMPI PUSH2 0x124 PUSH2 0xD9 JUMP JUMPDEST JUMPDEST PUSH0 PUSH2 0x132 DUP5 DUP3 DUP6 ADD PUSH2 0xFC JUMP JUMPDEST SWAP2 POP POP SWAP3 SWAP2 POP POP JUMP JUMPDEST PUSH2 0xEDB DUP1 PUSH2 0x148 PUSH0 CODECOPY PUSH0 RETURN INVALID PUSH1 0x80 PUSH1 0x40 MSTORE PUSH1 0x4 CALLDATASIZE LT PUSH2 0x54 JUMPI PUSH0 CALLDATALOAD PUSH1 0xE0 SHR DUP1 PUSH4 0x590E1AE3 EQ PUSH2 0x58 JUMPI DUP1 PUSH4 0x8863DD1A EQ PUSH2 0x6E JUMPI DUP1 PUSH4 0x8EDD6EB6 EQ PUSH2 0x96 JUMPI DUP1 PUSH4 0x9F883A05 EQ PUSH2 0xAC JUMPI DUP1 PUSH4 0xB60D4288 EQ PUSH2 0xE8 JUMPI DUP1 PUSH4 0xBEA4DFB5 EQ PUSH2 0xF2 JUMPI JUMPDEST PUSH0 DUP1 REVERT JUMPDEST CALLVALUE DUP1 ISZERO PUSH2 0x63 JUMPI PUSH0 DUP1 REVERT JUMPDEST POP PUSH2 0x6C PUSH2 0x11C JUMP JUMPDEST STOP JUMPDEST CALLVALUE DUP1 ISZERO PUSH2 0x79 JUMPI PUSH0 DUP1 REVERT JUMPDEST POP PUSH2 0x94 PUSH1 0x4 DUP1 CALLDATASIZE SUB DUP2 ADD SWAP1 PUSH2 0x8F SWAP2 SWAP1 PUSH2 0x833 JUMP JUMPDEST PUSH2 0x361 JUMP JUMPDEST STOP JUMPDEST CALLVALUE DUP1 ISZERO PUSH2 0xA1 JUMPI PUSH0 DUP1 REVERT JUMPDEST POP PUSH2 0xAA PUSH2 0x433 JUMP JUMPDEST STOP JUMPDEST CALLVALUE DUP1 ISZERO PUSH2 0xB7 JUMPI PUSH0 DUP1 REVERT JUMPDEST POP PUSH2 0xD2 PUSH1 0x4 DUP1 CALLDATASIZE SUB DUP2 ADD SWAP1 PUSH2 0xCD SWAP2 SWAP1 PUSH2 0x833 JUMP JUMPDEST PUSH2 0x60D JUMP JUMPDEST PUSH1 0x40 MLOAD PUSH2 0xDF SWAP2 SWAP1 PUSH2 0x876 JUMP JUMPDEST PUSH1 0x40 MLOAD DUP1 SWAP2 SUB SWAP1 RETURN JUMPDEST PUSH2 0xF0 PUSH2 0x621 JUMP JUMPDEST STOP JUMPDEST CALLVALUE DUP1 ISZERO PUSH2 0xFD JUMPI PUSH0 DUP1 REVERT JUMPDEST POP PUSH2 0x106 PUSH2 0x709 JUMP JUMPDEST PUSH1 0x40 MLOAD PUSH2 0x113 SWAP2 SWAP1 PUSH2 0x8A7 JUMP JUMPDEST PUSH1 0x40 MLOAD DUP1 SWAP2 SUB SWAP1 RETURN JUMPDEST PUSH1 0x3 SLOAD PUSH1 0x2 SLOAD PUSH2 0x12C SWAP2 SWAP1 PUSH2 0x8ED JUMP JUMPDEST TIMESTAMP LT ISZERO PUSH2 0x16E JUMPI PUSH1 0x40 MLOAD PUSH32 0x8C379A000000000000000000000000000000000000000000000000000000000 DUP2 MSTORE PUSH1 0x4 ADD PUSH2 0x165 SWAP1 PUSH2 0x97A JUMP JUMPDEST PUSH1 0x40 MLOAD DUP1 SWAP2 SUB SWAP1 REVERT JUMPDEST PUSH1 0xC8 PUSH2 0x179 SELFBALANCE PUSH2 0x7A6 JUMP JUMPDEST LT PUSH2 0x1B9 JUMPI PUSH1 0x40 MLOAD PUSH32 0x8C379A000000000000000000000000000000000000000000000000000000000 DUP2 MSTORE PUSH1 0x4 ADD PUSH2 0x1B0 SWAP1 PUSH2 0x9E2 JUMP JUMPDEST PUSH1 0x40 MLOAD DUP1 SWAP2 SUB SWAP1 REVERT JUMPDEST PUSH0 DUP1 PUSH0 CALLER PUSH20 0xFFFFFFFFFFFFFFFFFFFFFFFFFFFFFFFFFFFFFFFF AND PUSH20 0xFFFFFFFFFFFFFFFFFFFFFFFFFFFFFFFFFFFFFFFF AND DUP2 MSTORE PUSH1 0x20 ADD SWAP1 DUP2 MSTORE PUSH1 0x20 ADD PUSH0 KECCAK256 SLOAD SUB PUSH2 0x237 JUMPI PUSH1 0x40 MLOAD PUSH32 0x8C379A000000000000000000000000000000000000000000000000000000000 DUP2 MSTORE PUSH1 0x4 ADD PUSH2 0x22E SWAP1 PUSH2 0xA4A JUMP JUMPDEST PUSH1 0x40 MLOAD DUP1 SWAP2 SUB SWAP1 REVERT JUMPDEST PUSH0 CALLER PUSH20 0xFFFFFFFFFFFFFFFFFFFFFFFFFFFFFFFFFFFFFFFF AND PUSH0 DUP1 CALLER PUSH20 0xFFFFFFFFFFFFFFFFFFFFFFFFFFFFFFFFFFFFFFFF AND PUSH20 0xFFFFFFFFFFFFFFFFFFFFFFFFFFFFFFFFFFFFFFFF AND DUP2 MSTORE PUSH1 0x20 ADD SWAP1 DUP2 MSTORE PUSH1 0x20 ADD PUSH0 KECCAK256 SLOAD PUSH1 0x40 MLOAD PUSH2 0x298 SWAP1 PUSH2 0xA95 JUMP JUMPDEST PUSH0 PUSH1 0x40 MLOAD DUP1 DUP4 SUB DUP2 DUP6 DUP8 GAS CALL SWAP3 POP POP POP RETURNDATASIZE DUP1 PUSH0 DUP2 EQ PUSH2 0x2D2 JUMPI PUSH1 0x40 MLOAD SWAP2 POP PUSH1 0x1F NOT PUSH1 0x3F RETURNDATASIZE ADD AND DUP3 ADD PUSH1 0x40 MSTORE RETURNDATASIZE DUP3 MSTORE RETURNDATASIZE PUSH0 PUSH1 0x20 DUP5 ADD RETURNDATACOPY PUSH2 0x2D7 JUMP JUMPDEST PUSH1 0x60 SWAP2 POP JUMPDEST POP POP DUP1 SWAP2 POP POP DUP1 PUSH2 0x31D JUMPI PUSH1 0x40 MLOAD PUSH32 0x8C379A000000000000000000000000000000000000000000000000000000000 DUP2 MSTORE PUSH1 0x4 ADD PUSH2 0x314 SWAP1 PUSH2 0xAF3 JUMP JUMPDEST PUSH1 0x40 MLOAD DUP1 SWAP2 SUB SWAP1 REVERT JUMPDEST PUSH0 DUP1 PUSH0 CALLER PUSH20 0xFFFFFFFFFFFFFFFFFFFFFFFFFFFFFFFFFFFFFFFF AND PUSH20 0xFFFFFFFFFFFFFFFFFFFFFFFFFFFFFFFFFFFFFFFF AND DUP2 MSTORE PUSH1 0x20 ADD SWAP1 DUP2 MSTORE PUSH1 0x20 ADD PUSH0 KECCAK256 DUP2 SWAP1 SSTORE POP POP JUMP JUMPDEST PUSH1 0x1 PUSH0 SWAP1 SLOAD SWAP1 PUSH2 0x100 EXP SWAP1 DIV PUSH20 0xFFFFFFFFFFFFFFFFFFFFFFFFFFFFFFFFFFFFFFFF AND PUSH20 0xFFFFFFFFFFFFFFFFFFFFFFFFFFFFFFFFFFFFFFFF AND CALLER PUSH20 0xFFFFFFFFFFFFFFFFFFFFFFFFFFFFFFFFFFFFFFFF AND EQ PUSH2 0x3F0 JUMPI PUSH1 0x40 MLOAD PUSH32 0x8C379A000000000000000000000000000000000000000000000000000000000 DUP2 MSTORE PUSH1 0x4 ADD PUSH2 0x3E7 SWAP1 PUSH2 0xB81 JUMP JUMPDEST PUSH1 0x40 MLOAD DUP1 SWAP2 SUB SWAP1 REVERT JUMPDEST DUP1 PUSH1 0x1 PUSH0 PUSH2 0x100 EXP DUP2 SLOAD DUP2 PUSH20 0xFFFFFFFFFFFFFFFFFFFFFFFFFFFFFFFFFFFFFFFF MUL NOT AND SWAP1 DUP4 PUSH20 0xFFFFFFFFFFFFFFFFFFFFFFFFFFFFFFFFFFFFFFFF AND MUL OR SWAP1 SSTORE POP POP JUMP JUMPDEST PUSH1 0x3 SLOAD PUSH1 0x2 SLOAD PUSH2 0x443 SWAP2 SWAP1 PUSH2 0x8ED JUMP JUMPDEST TIMESTAMP LT ISZERO PUSH2 0x485 JUMPI PUSH1 0x40 MLOAD PUSH32 0x8C379A000000000000000000000000000000000000000000000000000000000 DUP2 MSTORE PUSH1 0x4 ADD PUSH2 0x47C SWAP1 PUSH2 0x97A JUMP JUMPDEST PUSH1 0x40 MLOAD DUP1 SWAP2 SUB SWAP1 REVERT JUMPDEST PUSH1 0x1 PUSH0 SWAP1 SLOAD SWAP1 PUSH2 0x100 EXP SWAP1 DIV PUSH20 0xFFFFFFFFFFFFFFFFFFFFFFFFFFFFFFFFFFFFFFFF AND PUSH20 0xFFFFFFFFFFFFFFFFFFFFFFFFFFFFFFFFFFFFFFFF AND CALLER PUSH20 0xFFFFFFFFFFFFFFFFFFFFFFFFFFFFFFFFFFFFFFFF AND EQ PUSH2 0x514 JUMPI PUSH1 0x40 MLOAD PUSH32 0x8C379A000000000000000000000000000000000000000000000000000000000 DUP2 MSTORE PUSH1 0x4 ADD PUSH2 0x50B SWAP1 PUSH2 0xB81 JUMP JUMPDEST PUSH1 0x40 MLOAD DUP1 SWAP2 SUB SWAP1 REVERT JUMPDEST PUSH1 0xC8 PUSH2 0x51F SELFBALANCE PUSH2 0x7A6 JUMP JUMPDEST LT ISZERO PUSH2 0x560 JUMPI PUSH1 0x40 MLOAD PUSH32 0x8C379A000000000000000000000000000000000000000000000000000000000 DUP2 MSTORE PUSH1 0x4 ADD PUSH2 0x557 SWAP1 PUSH2 0xBE9 JUMP JUMPDEST PUSH1 0x40 MLOAD DUP1 SWAP2 SUB SWAP1 REVERT JUMPDEST PUSH0 CALLER PUSH20 0xFFFFFFFFFFFFFFFFFFFFFFFFFFFFFFFFFFFFFFFF AND SELFBALANCE PUSH1 0x40 MLOAD PUSH2 0x585 SWAP1 PUSH2 0xA95 JUMP JUMPDEST PUSH0 PUSH1 0x40 MLOAD DUP1 DUP4 SUB DUP2 DUP6 DUP8 GAS CALL SWAP3 POP POP POP RETURNDATASIZE DUP1 PUSH0 DUP2 EQ PUSH2 0x5BF JUMPI PUSH1 0x40 MLOAD SWAP2 POP PUSH1 0x1F NOT PUSH1 0x3F RETURNDATASIZE ADD AND DUP3 ADD PUSH1 0x40 MSTORE RETURNDATASIZE DUP3 MSTORE RETURNDATASIZE PUSH0 PUSH1 0x20 DUP5 ADD RETURNDATACOPY PUSH2 0x5C4 JUMP JUMPDEST PUSH1 0x60 SWAP2 POP JUMPDEST POP POP DUP1 SWAP2 POP POP DUP1 PUSH2 0x60A JUMPI PUSH1 0x40 MLOAD PUSH32 0x8C379A000000000000000000000000000000000000000000000000000000000 DUP2 MSTORE PUSH1 0x4 ADD PUSH2 0x601 SWAP1 PUSH2 0xAF3 JUMP JUMPDEST PUSH1 0x40 MLOAD DUP1 SWAP2 SUB SWAP1 REVERT JUMPDEST POP JUMP JUMPDEST PUSH0 PUSH1 0x20 MSTORE DUP1 PUSH0 MSTORE PUSH1 0x40 PUSH0 KECCAK256 PUSH0 SWAP2 POP SWAP1 POP SLOAD DUP2 JUMP JUMPDEST PUSH9 0x56BC75E2D63100000 PUSH2 0x634 CALLVALUE PUSH2 0x7A6 JUMP JUMPDEST LT ISZERO PUSH2 0x675 JUMPI PUSH1 0x40 MLOAD PUSH32 0x8C379A000000000000000000000000000000000000000000000000000000000 DUP2 MSTORE PUSH1 0x4 ADD PUSH2 0x66C SWAP1 PUSH2 0xC77 JUMP JUMPDEST PUSH1 0x40 MLOAD DUP1 SWAP2 SUB SWAP1 REVERT JUMPDEST PUSH1 0x3 SLOAD PUSH1 0x2 SLOAD PUSH2 0x685 SWAP2 SWAP1 PUSH2 0x8ED JUMP JUMPDEST TIMESTAMP LT PUSH2 0x6C6 JUMPI PUSH1 0x40 MLOAD PUSH32 0x8C379A000000000000000000000000000000000000000000000000000000000 DUP2 MSTORE PUSH1 0x4 ADD PUSH2 0x6BD SWAP1 PUSH2 0xCDF JUMP JUMPDEST PUSH1 0x40 MLOAD DUP1 SWAP2 SUB SWAP1 REVERT JUMPDEST CALLVALUE PUSH0 DUP1 CALLER PUSH20 0xFFFFFFFFFFFFFFFFFFFFFFFFFFFFFFFFFFFFFFFF AND PUSH20 0xFFFFFFFFFFFFFFFFFFFFFFFFFFFFFFFFFFFFFFFF AND DUP2 MSTORE PUSH1 0x20 ADD SWAP1 DUP2 MSTORE PUSH1 0x20 ADD PUSH0 KECCAK256 DUP2 SWAP1 SSTORE POP JUMP JUMPDEST PUSH0 DUP1 PUSH1 0x4 PUSH0 SWAP1 SLOAD SWAP1 PUSH2 0x100 EXP SWAP1 DIV PUSH20 0xFFFFFFFFFFFFFFFFFFFFFFFFFFFFFFFFFFFFFFFF AND PUSH20 0xFFFFFFFFFFFFFFFFFFFFFFFFFFFFFFFFFFFFFFFF AND PUSH4 0xFEAF968C PUSH1 0x40 MLOAD DUP2 PUSH4 0xFFFFFFFF AND PUSH1 0xE0 SHL DUP2 MSTORE PUSH1 0x4 ADD PUSH1 0xA0 PUSH1 0x40 MLOAD DUP1 DUP4 SUB DUP2 DUP7 GAS STATICCALL ISZERO DUP1 ISZERO PUSH2 0x775 JUMPI RETURNDATASIZE PUSH0 DUP1 RETURNDATACOPY RETURNDATASIZE PUSH0 REVERT JUMPDEST POP POP POP POP PUSH1 0x40 MLOAD RETURNDATASIZE PUSH1 0x1F NOT PUSH1 0x1F DUP3 ADD AND DUP3 ADD DUP1 PUSH1 0x40 MSTORE POP DUP2 ADD SWAP1 PUSH2 0x799 SWAP2 SWAP1 PUSH2 0xD90 JUMP JUMPDEST POP POP POP SWAP2 POP POP DUP1 SWAP2 POP POP SWAP1 JUMP JUMPDEST PUSH0 DUP1 PUSH2 0x7B0 PUSH2 0x709 JUMP JUMPDEST SWAP1 POP PUSH4 0x5F5E100 DUP2 DUP5 PUSH2 0x7C3 SWAP2 SWAP1 PUSH2 0xE07 JUMP JUMPDEST PUSH2 0x7CD SWAP2 SWAP1 PUSH2 0xE75 JUMP JUMPDEST SWAP2 POP POP SWAP2 SWAP1 POP JUMP JUMPDEST PUSH0 DUP1 REVERT JUMPDEST PUSH0 PUSH20 0xFFFFFFFFFFFFFFFFFFFFFFFFFFFFFFFFFFFFFFFF DUP3 AND SWAP1 POP SWAP2 SWAP1 POP JUMP JUMPDEST PUSH0 PUSH2 0x802 DUP3 PUSH2 0x7D9 JUMP JUMPDEST SWAP1 POP SWAP2 SWAP1 POP JUMP JUMPDEST PUSH2 0x812 DUP2 PUSH2 0x7F8 JUMP JUMPDEST DUP2 EQ PUSH2 0x81C JUMPI PUSH0 DUP1 REVERT JUMPDEST POP JUMP JUMPDEST PUSH0 DUP2 CALLDATALOAD SWAP1 POP PUSH2 0x82D DUP2 PUSH2 0x809 JUMP JUMPDEST SWAP3 SWAP2 POP POP JUMP JUMPDEST PUSH0 PUSH1 0x20 DUP3 DUP5 SUB SLT ISZERO PUSH2 0x848 JUMPI PUSH2 0x847 PUSH2 0x7D5 JUMP JUMPDEST JUMPDEST PUSH0 PUSH2 0x855 DUP5 DUP3 DUP6 ADD PUSH2 0x81F JUMP JUMPDEST SWAP2 POP POP SWAP3 SWAP2 POP POP JUMP JUMPDEST PUSH0 DUP2 SWAP1 POP SWAP2 SWAP1 POP JUMP JUMPDEST PUSH2 0x870 DUP2 PUSH2 0x85E JUMP JUMPDEST DUP3 MSTORE POP POP JUMP JUMPDEST PUSH0 PUSH1 0x20 DUP3 ADD SWAP1 POP PUSH2 0x889 PUSH0 DUP4 ADD DUP5 PUSH2 0x867 JUMP JUMPDEST SWAP3 SWAP2 POP POP JUMP JUMPDEST PUSH0 DUP2 SWAP1 POP SWAP2 SWAP1 POP JUMP JUMPDEST PUSH2 0x8A1 DUP2 PUSH2 0x88F JUMP JUMPDEST DUP3 MSTORE POP POP JUMP JUMPDEST PUSH0 PUSH1 0x20 DUP3 ADD SWAP1 POP PUSH2 0x8BA PUSH0 DUP4 ADD DUP5 PUSH2 0x898 JUMP JUMPDEST SWAP3 SWAP2 POP POP JUMP JUMPDEST PUSH32 0x4E487B7100000000000000000000000000000000000000000000000000000000 PUSH0 MSTORE PUSH1 0x11 PUSH1 0x4 MSTORE PUSH1 0x24 PUSH0 REVERT JUMPDEST PUSH0 PUSH2 0x8F7 DUP3 PUSH2 0x85E JUMP JUMPDEST SWAP2 POP PUSH2 0x902 DUP4 PUSH2 0x85E JUMP JUMPDEST SWAP3 POP DUP3 DUP3 ADD SWAP1 POP DUP1 DUP3 GT ISZERO PUSH2 0x91A JUMPI PUSH2 0x919 PUSH2 0x8C0 JUMP JUMPDEST JUMPDEST SWAP3 SWAP2 POP POP JUMP JUMPDEST PUSH0 DUP3 DUP3 MSTORE PUSH1 0x20 DUP3 ADD SWAP1 POP SWAP3 SWAP2 POP POP JUMP JUMPDEST PUSH32 0x57696E646F77206973206E6F7420636C6F736564000000000000000000000000 PUSH0 DUP3 ADD MSTORE POP JUMP JUMPDEST PUSH0 PUSH2 0x964 PUSH1 0x14 DUP4 PUSH2 0x920 JUMP JUMPDEST SWAP2 POP PUSH2 0x96F DUP3 PUSH2 0x930 JUMP JUMPDEST PUSH1 0x20 DUP3 ADD SWAP1 POP SWAP2 SWAP1 POP JUMP JUMPDEST PUSH0 PUSH1 0x20 DUP3 ADD SWAP1 POP DUP2 DUP2 SUB PUSH0 DUP4 ADD MSTORE PUSH2 0x991 DUP2 PUSH2 0x958 JUMP JUMPDEST SWAP1 POP SWAP2 SWAP1 POP JUMP JUMPDEST PUSH32 0x5461726765742069732072656163686564210000000000000000000000000000 PUSH0 DUP3 ADD MSTORE POP JUMP JUMPDEST PUSH0 PUSH2 0x9CC PUSH1 0x12 DUP4 PUSH2 0x920 JUMP JUMPDEST SWAP2 POP PUSH2 0x9D7 DUP3 PUSH2 0x998 JUMP JUMPDEST PUSH1 0x20 DUP3 ADD SWAP1 POP SWAP2 SWAP1 POP JUMP JUMPDEST PUSH0 PUSH1 0x20 DUP3 ADD SWAP1 POP DUP2 DUP2 SUB PUSH0 DUP4 ADD MSTORE PUSH2 0x9F9 DUP2 PUSH2 0x9C0 JUMP JUMPDEST SWAP1 POP SWAP2 SWAP1 POP JUMP JUMPDEST PUSH32 0x5468657265206973206E6F2066756E6420666F7220796F750000000000000000 PUSH0 DUP3 ADD MSTORE POP JUMP JUMPDEST PUSH0 PUSH2 0xA34 PUSH1 0x18 DUP4 PUSH2 0x920 JUMP JUMPDEST SWAP2 POP PUSH2 0xA3F DUP3 PUSH2 0xA00 JUMP JUMPDEST PUSH1 0x20 DUP3 ADD SWAP1 POP SWAP2 SWAP1 POP JUMP JUMPDEST PUSH0 PUSH1 0x20 DUP3 ADD SWAP1 POP DUP2 DUP2 SUB PUSH0 DUP4 ADD MSTORE PUSH2 0xA61 DUP2 PUSH2 0xA28 JUMP JUMPDEST SWAP1 POP SWAP2 SWAP1 POP JUMP JUMPDEST PUSH0 DUP2 SWAP1 POP SWAP3 SWAP2 POP POP JUMP JUMPDEST POP JUMP JUMPDEST PUSH0 PUSH2 0xA80 PUSH0 DUP4 PUSH2 0xA68 JUMP JUMPDEST SWAP2 POP PUSH2 0xA8B DUP3 PUSH2 0xA72 JUMP JUMPDEST PUSH0 DUP3 ADD SWAP1 POP SWAP2 SWAP1 POP JUMP JUMPDEST PUSH0 PUSH2 0xA9F DUP3 PUSH2 0xA75 JUMP JUMPDEST SWAP2 POP DUP2 SWAP1 POP SWAP2 SWAP1 POP JUMP JUMPDEST PUSH32 0x5472616E73666572206973206661696C65640000000000000000000000000000 PUSH0 DUP3 ADD MSTORE POP JUMP JUMPDEST PUSH0 PUSH2 0xADD PUSH1 0x12 DUP4 PUSH2 0x920 JUMP JUMPDEST SWAP2 POP PUSH2 0xAE8 DUP3 PUSH2 0xAA9 JUMP JUMPDEST PUSH1 0x20 DUP3 ADD SWAP1 POP SWAP2 SWAP1 POP JUMP JUMPDEST PUSH0 PUSH1 0x20 DUP3 ADD SWAP1 POP DUP2 DUP2 SUB PUSH0 DUP4 ADD MSTORE PUSH2 0xB0A DUP2 PUSH2 0xAD1 JUMP JUMPDEST SWAP1 POP SWAP2 SWAP1 POP JUMP JUMPDEST PUSH32 0x546869732066756E6374696F6E2063616E206F6E6C792062652063616C6C2062 PUSH0 DUP3 ADD MSTORE PUSH32 0x79206F776E657200000000000000000000000000000000000000000000000000 PUSH1 0x20 DUP3 ADD MSTORE POP JUMP JUMPDEST PUSH0 PUSH2 0xB6B PUSH1 0x27 DUP4 PUSH2 0x920 JUMP JUMPDEST SWAP2 POP PUSH2 0xB76 DUP3 PUSH2 0xB11 JUMP JUMPDEST PUSH1 0x40 DUP3 ADD SWAP1 POP SWAP2 SWAP1 POP JUMP JUMPDEST PUSH0 PUSH1 0x20 DUP3 ADD SWAP1 POP DUP2 DUP2 SUB PUSH0 DUP4 ADD MSTORE PUSH2 0xB98 DUP2 PUSH2 0xB5F JUMP JUMPDEST SWAP1 POP SWAP2 SWAP1 POP JUMP JUMPDEST PUSH32 0x546172676574206973206E6F7420726561636865642100000000000000000000 PUSH0 DUP3 ADD MSTORE POP JUMP JUMPDEST PUSH0 PUSH2 0xBD3 PUSH1 0x16 DUP4 PUSH2 0x920 JUMP JUMPDEST SWAP2 POP PUSH2 0xBDE DUP3 PUSH2 0xB9F JUMP JUMPDEST PUSH1 0x20 DUP3 ADD SWAP1 POP SWAP2 SWAP1 POP JUMP JUMPDEST PUSH0 PUSH1 0x20 DUP3 ADD SWAP1 POP DUP2 DUP2 SUB PUSH0 DUP4 ADD MSTORE PUSH2 0xC00 DUP2 PUSH2 0xBC7 JUMP JUMPDEST SWAP1 POP SWAP2 SWAP1 POP JUMP JUMPDEST PUSH32 0x53656E64206D6F7265204554482C20546865206D696E696D756D204554482076 PUSH0 DUP3 ADD MSTORE PUSH32 0x616C7565206973206F6E65000000000000000000000000000000000000000000 PUSH1 0x20 DUP3 ADD MSTORE POP JUMP JUMPDEST PUSH0 PUSH2 0xC61 PUSH1 0x2B DUP4 PUSH2 0x920 JUMP JUMPDEST SWAP2 POP PUSH2 0xC6C DUP3 PUSH2 0xC07 JUMP JUMPDEST PUSH1 0x40 DUP3 ADD SWAP1 POP SWAP2 SWAP1 POP JUMP JUMPDEST PUSH0 PUSH1 0x20 DUP3 ADD SWAP1 POP DUP2 DUP2 SUB PUSH0 DUP4 ADD MSTORE PUSH2 0xC8E DUP2 PUSH2 0xC55 JUMP JUMPDEST SWAP1 POP SWAP2 SWAP1 POP JUMP JUMPDEST PUSH32 0x57696E646F7720697320636C6F73656400000000000000000000000000000000 PUSH0 DUP3 ADD MSTORE POP JUMP JUMPDEST PUSH0 PUSH2 0xCC9 PUSH1 0x10 DUP4 PUSH2 0x920 JUMP JUMPDEST SWAP2 POP PUSH2 0xCD4 DUP3 PUSH2 0xC95 JUMP JUMPDEST PUSH1 0x20 DUP3 ADD SWAP1 POP SWAP2 SWAP1 POP JUMP JUMPDEST PUSH0 PUSH1 0x20 DUP3 ADD SWAP1 POP DUP2 DUP2 SUB PUSH0 DUP4 ADD MSTORE PUSH2 0xCF6 DUP2 PUSH2 0xCBD JUMP JUMPDEST SWAP1 POP SWAP2 SWAP1 POP JUMP JUMPDEST PUSH0 PUSH10 0xFFFFFFFFFFFFFFFFFFFF DUP3 AND SWAP1 POP SWAP2 SWAP1 POP JUMP JUMPDEST PUSH2 0xD1B DUP2 PUSH2 0xCFD JUMP JUMPDEST DUP2 EQ PUSH2 0xD25 JUMPI PUSH0 DUP1 REVERT JUMPDEST POP JUMP JUMPDEST PUSH0 DUP2 MLOAD SWAP1 POP PUSH2 0xD36 DUP2 PUSH2 0xD12 JUMP JUMPDEST SWAP3 SWAP2 POP POP JUMP JUMPDEST PUSH2 0xD45 DUP2 PUSH2 0x88F JUMP JUMPDEST DUP2 EQ PUSH2 0xD4F JUMPI PUSH0 DUP1 REVERT JUMPDEST POP JUMP JUMPDEST PUSH0 DUP2 MLOAD SWAP1 POP PUSH2 0xD60 DUP2 PUSH2 0xD3C JUMP JUMPDEST SWAP3 SWAP2 POP POP JUMP JUMPDEST PUSH2 0xD6F DUP2 PUSH2 0x85E JUMP JUMPDEST DUP2 EQ PUSH2 0xD79 JUMPI PUSH0 DUP1 REVERT JUMPDEST POP JUMP JUMPDEST PUSH0 DUP2 MLOAD SWAP1 POP PUSH2 0xD8A DUP2 PUSH2 0xD66 JUMP JUMPDEST SWAP3 SWAP2 POP POP JUMP JUMPDEST PUSH0 DUP1 PUSH0 DUP1 PUSH0 PUSH1 0xA0 DUP7 DUP9 SUB SLT ISZERO PUSH2 0xDA9 JUMPI PUSH2 0xDA8 PUSH2 0x7D5 JUMP JUMPDEST JUMPDEST PUSH0 PUSH2 0xDB6 DUP9 DUP3 DUP10 ADD PUSH2 0xD28 JUMP JUMPDEST SWAP6 POP POP PUSH1 0x20 PUSH2 0xDC7 DUP9 DUP3 DUP10 ADD PUSH2 0xD52 JUMP JUMPDEST SWAP5 POP POP PUSH1 0x40 PUSH2 0xDD8 DUP9 DUP3 DUP10 ADD PUSH2 0xD7C JUMP JUMPDEST SWAP4 POP POP PUSH1 0x60 PUSH2 0xDE9 DUP9 DUP3 DUP10 ADD PUSH2 0xD7C JUMP JUMPDEST SWAP3 POP POP PUSH1 0x80 PUSH2 0xDFA DUP9 DUP3 DUP10 ADD PUSH2 0xD28 JUMP JUMPDEST SWAP2 POP POP SWAP3 SWAP6 POP SWAP3 SWAP6 SWAP1 SWAP4 POP JUMP JUMPDEST PUSH0 PUSH2 0xE11 DUP3 PUSH2 0x85E JUMP JUMPDEST SWAP2 POP PUSH2 0xE1C DUP4 PUSH2 0x85E JUMP JUMPDEST SWAP3 POP DUP3 DUP3 MUL PUSH2 0xE2A DUP2 PUSH2 0x85E JUMP JUMPDEST SWAP2 POP DUP3 DUP3 DIV DUP5 EQ DUP4 ISZERO OR PUSH2 0xE41 JUMPI PUSH2 0xE40 PUSH2 0x8C0 JUMP JUMPDEST JUMPDEST POP SWAP3 SWAP2 POP POP JUMP JUMPDEST PUSH32 0x4E487B7100000000000000000000000000000000000000000000000000000000 PUSH0 MSTORE PUSH1 0x12 PUSH1 0x4 MSTORE PUSH1 0x24 PUSH0 REVERT JUMPDEST PUSH0 PUSH2 0xE7F DUP3 PUSH2 0x85E JUMP JUMPDEST SWAP2 POP PUSH2 0xE8A DUP4 PUSH2 0x85E JUMP JUMPDEST SWAP3 POP DUP3 PUSH2 0xE9A JUMPI PUSH2 0xE99 PUSH2 0xE48 JUMP JUMPDEST JUMPDEST DUP3 DUP3 DIV SWAP1 POP SWAP3 SWAP2 POP POP JUMP INVALID LOG2 PUSH5 0x6970667358 0x22 SLT KECCAK256 0xAF SLOAD PUSH24 0x7F5B5F803DEF0CDC709622BDB40CFAF32C0BFB4B71B3C8B5 0x24 0xD0 SGT 0xE4 0xEC PUSH5 0x736F6C6343 STOP ADDMOD BYTE STOP CALLER "
				},
				"gasEstimates": {
					"creation": {
						"codeDepositCost": "760600",
						"executionCost": "infinite",
						"totalCost": "infinite"
					},
					"external": {
						"fund()": "infinite",
						"fundersToAmount(address)": "2845",
						"getChainlinkDataFeedLatestAnswer()": "infinite",
						"getFund()": "infinite",
						"refund()": "infinite",
						"transferOwnerShip(address)": "26884"
					},
					"internal": {
						"convertEthToUsd(uint256)": "infinite"
					}
				},
				"methodIdentifiers": {
					"fund()": "b60d4288",
					"fundersToAmount(address)": "9f883a05",
					"getChainlinkDataFeedLatestAnswer()": "bea4dfb5",
					"getFund()": "8edd6eb6",
					"refund()": "590e1ae3",
					"transferOwnerShip(address)": "8863dd1a"
				}
			},
			"storageLayout": {
				"storage": [
					{
						"astId": 839,
						"contract": "fundMe/FundMe.sol:FundMe",
						"label": "fundersToAmount",
						"offset": 0,
						"slot": "0",
						"type": "t_mapping(t_address,t_uint256)"
					},
					{
						"astId": 851,
						"contract": "fundMe/FundMe.sol:FundMe",
						"label": "owner",
						"offset": 0,
						"slot": "1",
						"type": "t_address"
					},
					{
						"astId": 853,
						"contract": "fundMe/FundMe.sol:FundMe",
						"label": "deploymentTimestamp",
						"offset": 0,
						"slot": "2",
						"type": "t_uint256"
					},
					{
						"astId": 855,
						"contract": "fundMe/FundMe.sol:FundMe",
						"label": "lockTime",
						"offset": 0,
						"slot": "3",
						"type": "t_uint256"
					},
					{
						"astId": 858,
						"contract": "fundMe/FundMe.sol:FundMe",
						"label": "dataFeed",
						"offset": 0,
						"slot": "4",
						"type": "t_contract(AggregatorV3Interface)45"
					}
				],
				"types": {
					"t_address": {
						"encoding": "inplace",
						"label": "address",
						"numberOfBytes": "20"
					},
					"t_contract(AggregatorV3Interface)45": {
						"encoding": "inplace",
						"label": "contract AggregatorV3Interface",
						"numberOfBytes": "20"
					},
					"t_mapping(t_address,t_uint256)": {
						"encoding": "mapping",
						"key": "t_address",
						"label": "mapping(address => uint256)",
						"numberOfBytes": "32",
						"value": "t_uint256"
					},
					"t_uint256": {
						"encoding": "inplace",
						"label": "uint256",
						"numberOfBytes": "32"
					}
				}
			},
			"userdoc": {
				"kind": "user",
				"methods": {},
				"version": 1
			}
		}
	}
}